{
  "contractName": "AgreementFactory",
  "abi": [
    {
      "inputs": [
        {
          "internalType": "contract DisputeResolution",
          "name": "_disputeResolutionContract",
          "type": "address"
        },
        {
          "internalType": "contract DefaultTerms",
          "name": "_defaultTermsContract",
          "type": "address"
        }
      ],
      "stateMutability": "nonpayable",
      "type": "constructor"
    },
    {
      "inputs": [
        {
          "internalType": "uint256",
          "name": "",
          "type": "uint256"
        }
      ],
      "name": "contractRegistry",
      "outputs": [
        {
          "internalType": "uint256",
          "name": "ID",
          "type": "uint256"
        },
        {
          "internalType": "address",
          "name": "landlord",
          "type": "address"
        },
        {
          "internalType": "address",
          "name": "tenant",
          "type": "address"
        },
        {
          "internalType": "uint256",
          "name": "rentAmount",
          "type": "uint256"
        },
        {
          "internalType": "uint256",
          "name": "securityDeposit",
          "type": "uint256"
        },
        {
          "internalType": "uint256",
          "name": "leaseDuration",
          "type": "uint256"
        },
        {
          "internalType": "uint256",
          "name": "startDate",
          "type": "uint256"
        },
        {
          "internalType": "uint256",
          "name": "terminationDate",
          "type": "uint256"
        },
        {
          "internalType": "string",
          "name": "propertyID",
          "type": "string"
        },
        {
          "internalType": "enum AgreementFactory.AgreementStatus",
          "name": "status",
          "type": "uint8"
        },
        {
          "internalType": "bool",
          "name": "tenantApproved",
          "type": "bool"
        },
        {
          "internalType": "bool",
          "name": "landlordApproved",
          "type": "bool"
        }
      ],
      "stateMutability": "view",
      "type": "function",
      "constant": true
    },
    {
      "inputs": [],
      "name": "defaultTermsContract",
      "outputs": [
        {
          "internalType": "contract DefaultTerms",
          "name": "",
          "type": "address"
        }
      ],
      "stateMutability": "view",
      "type": "function",
      "constant": true
    },
    {
      "inputs": [],
      "name": "disputeResolutionContract",
      "outputs": [
        {
          "internalType": "contract DisputeResolution",
          "name": "",
          "type": "address"
        }
      ],
      "stateMutability": "view",
      "type": "function",
      "constant": true
    },
    {
      "inputs": [
        {
          "internalType": "address",
          "name": "_landlord",
          "type": "address"
        },
        {
          "internalType": "address",
          "name": "_tenant",
          "type": "address"
        },
        {
          "internalType": "uint256",
          "name": "_rentAmount",
          "type": "uint256"
        },
        {
          "internalType": "uint256",
          "name": "_securityDeposit",
          "type": "uint256"
        },
        {
          "internalType": "uint256",
          "name": "_leaseDuration",
          "type": "uint256"
        },
        {
          "internalType": "uint256",
          "name": "_startDate",
          "type": "uint256"
        },
        {
          "internalType": "string",
          "name": "_propertyID",
          "type": "string"
        }
      ],
      "name": "createRentalAgreement",
      "outputs": [],
      "stateMutability": "nonpayable",
      "type": "function"
    },
    {
      "inputs": [
        {
          "internalType": "address",
          "name": "_tenant",
          "type": "address"
        },
        {
          "internalType": "address",
          "name": "_landlord",
          "type": "address"
        },
        {
          "internalType": "string",
          "name": "_propertyID",
          "type": "string"
        }
      ],
      "name": "approveAgreement",
      "outputs": [],
      "stateMutability": "nonpayable",
      "type": "function"
    },
    {
      "inputs": [
        {
          "internalType": "address",
          "name": "_tenant",
          "type": "address"
        },
        {
          "internalType": "address",
          "name": "_landlord",
          "type": "address"
        },
        {
          "internalType": "string",
          "name": "_propertyID",
          "type": "string"
        }
      ],
      "name": "disapproveAgreement",
      "outputs": [],
      "stateMutability": "nonpayable",
      "type": "function"
    },
    {
      "inputs": [
        {
          "internalType": "address",
          "name": "_tenant",
          "type": "address"
        },
        {
          "internalType": "address",
          "name": "_landlord",
          "type": "address"
        },
        {
          "internalType": "string",
          "name": "_propertyID",
          "type": "string"
        }
      ],
      "name": "terminateAgreement",
      "outputs": [],
      "stateMutability": "nonpayable",
      "type": "function"
    },
    {
      "inputs": [
        {
          "internalType": "uint256",
          "name": "_agreementID",
          "type": "uint256"
        },
        {
          "internalType": "string",
          "name": "_title",
          "type": "string"
        },
        {
          "internalType": "string",
          "name": "_reason",
          "type": "string"
        }
      ],
      "name": "raiseDispute",
      "outputs": [],
      "stateMutability": "nonpayable",
      "type": "function"
    },
    {
      "inputs": [
        {
          "internalType": "uint256",
          "name": "_disputeID",
          "type": "uint256"
        },
        {
          "internalType": "string",
          "name": "_resolution",
          "type": "string"
        }
      ],
      "name": "resolveDispute",
      "outputs": [],
      "stateMutability": "nonpayable",
      "type": "function"
    },
    {
      "inputs": [
        {
          "internalType": "address",
          "name": "_tenant",
          "type": "address"
        },
        {
          "internalType": "address",
          "name": "_landlord",
          "type": "address"
        },
        {
          "internalType": "string",
          "name": "_propertyID",
          "type": "string"
        }
      ],
      "name": "getContractID",
      "outputs": [
        {
          "internalType": "uint256",
          "name": "",
          "type": "uint256"
        }
      ],
      "stateMutability": "view",
      "type": "function",
      "constant": true
    },
    {
      "inputs": [
        {
          "internalType": "address",
          "name": "_tenant",
          "type": "address"
        },
        {
          "internalType": "address",
          "name": "_landlord",
          "type": "address"
        },
        {
          "internalType": "string",
          "name": "_propertyID",
          "type": "string"
        }
      ],
      "name": "getContractRentAmount",
      "outputs": [
        {
          "internalType": "uint256",
          "name": "",
          "type": "uint256"
        }
      ],
      "stateMutability": "view",
      "type": "function",
      "constant": true
    },
    {
      "inputs": [
        {
          "internalType": "address",
          "name": "_tenant",
          "type": "address"
        },
        {
          "internalType": "address",
          "name": "_landlord",
          "type": "address"
        },
        {
          "internalType": "string",
          "name": "_propertyID",
          "type": "string"
        }
      ],
      "name": "getContractSecurityDeposit",
      "outputs": [
        {
          "internalType": "uint256",
          "name": "",
          "type": "uint256"
        }
      ],
      "stateMutability": "view",
      "type": "function",
      "constant": true
    },
    {
      "inputs": [
        {
          "internalType": "address",
          "name": "_tenant",
          "type": "address"
        },
        {
          "internalType": "address",
          "name": "_landlord",
          "type": "address"
        },
        {
          "internalType": "string",
          "name": "_propertyID",
          "type": "string"
        }
      ],
      "name": "getContractLeaseDuration",
      "outputs": [
        {
          "internalType": "uint256",
          "name": "",
          "type": "uint256"
        }
      ],
      "stateMutability": "view",
      "type": "function",
      "constant": true
    },
    {
      "inputs": [
        {
          "internalType": "address",
          "name": "_tenant",
          "type": "address"
        },
        {
          "internalType": "address",
          "name": "_landlord",
          "type": "address"
        },
        {
          "internalType": "string",
          "name": "_propertyID",
          "type": "string"
        }
      ],
      "name": "getContractStartDate",
      "outputs": [
        {
          "internalType": "uint256",
          "name": "",
          "type": "uint256"
        }
      ],
      "stateMutability": "view",
      "type": "function",
      "constant": true
    },
    {
      "inputs": [
        {
          "internalType": "address",
          "name": "_tenant",
          "type": "address"
        },
        {
          "internalType": "address",
          "name": "_landlord",
          "type": "address"
        },
        {
          "internalType": "string",
          "name": "_propertyID",
          "type": "string"
        }
      ],
      "name": "getContractTerminationDate",
      "outputs": [
        {
          "internalType": "uint256",
          "name": "",
          "type": "uint256"
        }
      ],
      "stateMutability": "view",
      "type": "function",
      "constant": true
    },
    {
      "inputs": [
        {
          "internalType": "address",
          "name": "_tenant",
          "type": "address"
        },
        {
          "internalType": "address",
          "name": "_landlord",
          "type": "address"
        },
        {
          "internalType": "string",
          "name": "_propertyID",
          "type": "string"
        }
      ],
      "name": "getContractPropertyID",
      "outputs": [
        {
          "internalType": "string",
          "name": "",
          "type": "string"
        }
      ],
      "stateMutability": "view",
      "type": "function",
      "constant": true
    },
    {
      "inputs": [
        {
          "internalType": "address",
          "name": "_tenant",
          "type": "address"
        },
        {
          "internalType": "address",
          "name": "_landlord",
          "type": "address"
        },
        {
          "internalType": "string",
          "name": "_propertyID",
          "type": "string"
        }
      ],
      "name": "getContractStatus",
      "outputs": [
        {
          "internalType": "string",
          "name": "",
          "type": "string"
        }
      ],
      "stateMutability": "view",
      "type": "function",
      "constant": true
    },
    {
      "inputs": [
        {
          "internalType": "address",
          "name": "_tenant",
          "type": "address"
        },
        {
          "internalType": "address",
          "name": "_landlord",
          "type": "address"
        },
        {
          "internalType": "string",
          "name": "_propertyID",
          "type": "string"
        }
      ],
      "name": "getContractDetails",
      "outputs": [
        {
          "components": [
            {
              "internalType": "uint256",
              "name": "ID",
              "type": "uint256"
            },
            {
              "internalType": "address",
              "name": "landlord",
              "type": "address"
            },
            {
              "internalType": "address",
              "name": "tenant",
              "type": "address"
            },
            {
              "internalType": "uint256",
              "name": "rentAmount",
              "type": "uint256"
            },
            {
              "internalType": "uint256",
              "name": "securityDeposit",
              "type": "uint256"
            },
            {
              "internalType": "uint256",
              "name": "leaseDuration",
              "type": "uint256"
            },
            {
              "internalType": "uint256",
              "name": "startDate",
              "type": "uint256"
            },
            {
              "internalType": "uint256",
              "name": "terminationDate",
              "type": "uint256"
            },
            {
              "internalType": "string",
              "name": "propertyID",
              "type": "string"
            },
            {
              "internalType": "enum AgreementFactory.AgreementStatus",
              "name": "status",
              "type": "uint8"
            },
            {
              "internalType": "string[]",
              "name": "terms",
              "type": "string[]"
            },
            {
              "internalType": "bool",
              "name": "tenantApproved",
              "type": "bool"
            },
            {
              "internalType": "bool",
              "name": "landlordApproved",
              "type": "bool"
            }
          ],
          "internalType": "struct AgreementFactory.Contract",
          "name": "",
          "type": "tuple"
        }
      ],
      "stateMutability": "view",
      "type": "function",
      "constant": true
    },
    {
      "inputs": [
        {
          "internalType": "uint256",
          "name": "_disputeID",
          "type": "uint256"
        }
      ],
      "name": "getDisputeDetails",
      "outputs": [
        {
          "components": [
            {
              "internalType": "uint256",
              "name": "ID",
              "type": "uint256"
            },
            {
              "internalType": "uint256",
              "name": "agreementID",
              "type": "uint256"
            },
            {
              "internalType": "address",
              "name": "tenant",
              "type": "address"
            },
            {
              "internalType": "address",
              "name": "landlord",
              "type": "address"
            },
            {
              "internalType": "string",
              "name": "title",
              "type": "string"
            },
            {
              "internalType": "string",
              "name": "reason",
              "type": "string"
            },
            {
              "internalType": "string",
              "name": "resolution",
              "type": "string"
            },
            {
              "internalType": "enum DisputeResolution.DisputeStatus",
              "name": "status",
              "type": "uint8"
            }
          ],
          "internalType": "struct DisputeResolution.Dispute",
          "name": "",
          "type": "tuple"
        }
      ],
      "stateMutability": "view",
      "type": "function",
      "constant": true
    },
    {
      "inputs": [
        {
          "internalType": "uint256",
          "name": "_agreementID",
          "type": "uint256"
        }
      ],
      "name": "getAllDisputes",
      "outputs": [
        {
          "components": [
            {
              "internalType": "uint256",
              "name": "ID",
              "type": "uint256"
            },
            {
              "internalType": "uint256",
              "name": "agreementID",
              "type": "uint256"
            },
            {
              "internalType": "address",
              "name": "tenant",
              "type": "address"
            },
            {
              "internalType": "address",
              "name": "landlord",
              "type": "address"
            },
            {
              "internalType": "string",
              "name": "title",
              "type": "string"
            },
            {
              "internalType": "string",
              "name": "reason",
              "type": "string"
            },
            {
              "internalType": "string",
              "name": "resolution",
              "type": "string"
            },
            {
              "internalType": "enum DisputeResolution.DisputeStatus",
              "name": "status",
              "type": "uint8"
            }
          ],
          "internalType": "struct DisputeResolution.Dispute[]",
          "name": "",
          "type": "tuple[]"
        }
      ],
      "stateMutability": "view",
      "type": "function",
      "constant": true
    },
    {
      "inputs": [],
      "name": "getContractRegistryLength",
      "outputs": [
        {
          "internalType": "uint256",
          "name": "",
          "type": "uint256"
        }
      ],
      "stateMutability": "view",
      "type": "function",
      "constant": true
    },
    {
      "inputs": [
        {
          "internalType": "address",
          "name": "_landlordAddress",
          "type": "address"
        }
      ],
      "name": "getLandlordsContracts",
      "outputs": [
        {
          "components": [
            {
              "internalType": "uint256",
              "name": "ID",
              "type": "uint256"
            },
            {
              "internalType": "address",
              "name": "landlord",
              "type": "address"
            },
            {
              "internalType": "address",
              "name": "tenant",
              "type": "address"
            },
            {
              "internalType": "uint256",
              "name": "rentAmount",
              "type": "uint256"
            },
            {
              "internalType": "uint256",
              "name": "securityDeposit",
              "type": "uint256"
            },
            {
              "internalType": "uint256",
              "name": "leaseDuration",
              "type": "uint256"
            },
            {
              "internalType": "uint256",
              "name": "startDate",
              "type": "uint256"
            },
            {
              "internalType": "uint256",
              "name": "terminationDate",
              "type": "uint256"
            },
            {
              "internalType": "string",
              "name": "propertyID",
              "type": "string"
            },
            {
              "internalType": "enum AgreementFactory.AgreementStatus",
              "name": "status",
              "type": "uint8"
            },
            {
              "internalType": "string[]",
              "name": "terms",
              "type": "string[]"
            },
            {
              "internalType": "bool",
              "name": "tenantApproved",
              "type": "bool"
            },
            {
              "internalType": "bool",
              "name": "landlordApproved",
              "type": "bool"
            }
          ],
          "internalType": "struct AgreementFactory.Contract[]",
          "name": "",
          "type": "tuple[]"
        }
      ],
      "stateMutability": "view",
      "type": "function",
      "constant": true
    },
    {
      "inputs": [
        {
          "internalType": "address",
          "name": "_tenantAddress",
          "type": "address"
        }
      ],
      "name": "getTenantsContracts",
      "outputs": [
        {
          "components": [
            {
              "internalType": "uint256",
              "name": "ID",
              "type": "uint256"
            },
            {
              "internalType": "address",
              "name": "landlord",
              "type": "address"
            },
            {
              "internalType": "address",
              "name": "tenant",
              "type": "address"
            },
            {
              "internalType": "uint256",
              "name": "rentAmount",
              "type": "uint256"
            },
            {
              "internalType": "uint256",
              "name": "securityDeposit",
              "type": "uint256"
            },
            {
              "internalType": "uint256",
              "name": "leaseDuration",
              "type": "uint256"
            },
            {
              "internalType": "uint256",
              "name": "startDate",
              "type": "uint256"
            },
            {
              "internalType": "uint256",
              "name": "terminationDate",
              "type": "uint256"
            },
            {
              "internalType": "string",
              "name": "propertyID",
              "type": "string"
            },
            {
              "internalType": "enum AgreementFactory.AgreementStatus",
              "name": "status",
              "type": "uint8"
            },
            {
              "internalType": "string[]",
              "name": "terms",
              "type": "string[]"
            },
            {
              "internalType": "bool",
              "name": "tenantApproved",
              "type": "bool"
            },
            {
              "internalType": "bool",
              "name": "landlordApproved",
              "type": "bool"
            }
          ],
          "internalType": "struct AgreementFactory.Contract[]",
          "name": "",
          "type": "tuple[]"
        }
      ],
      "stateMutability": "view",
      "type": "function",
      "constant": true
    }
  ],
  "bytecode": "0x60806040523480156200001157600080fd5b5060405162005e7038038062005e70833981810160405281019062000037919062000184565b81600160006101000a81548173ffffffffffffffffffffffffffffffffffffffff021916908373ffffffffffffffffffffffffffffffffffffffff16021790555080600260006101000a81548173ffffffffffffffffffffffffffffffffffffffff021916908373ffffffffffffffffffffffffffffffffffffffff1602179055505050620001cb565b600080fd5b600073ffffffffffffffffffffffffffffffffffffffff82169050919050565b6000620000f382620000c6565b9050919050565b60006200010782620000e6565b9050919050565b6200011981620000fa565b81146200012557600080fd5b50565b60008151905062000139816200010e565b92915050565b60006200014c82620000e6565b9050919050565b6200015e816200013f565b81146200016a57600080fd5b50565b6000815190506200017e8162000153565b92915050565b600080604083850312156200019e576200019d620000c1565b5b6000620001ae8582860162000128565b9250506020620001c1858286016200016d565b9150509250929050565b615c9580620001db6000396000f3fe608060405234801561001057600080fd5b506004361061014d5760003560e01c8063951113a9116100c3578063d6e343ac1161007c578063d6e343ac14610403578063da997b2714610433578063e2bc6cca14610451578063ea89735d14610481578063f46f96b2146104b1578063f54abbe5146104cf5761014d565b8063951113a914610314578063a10b29b714610344578063a84b816214610360578063b110205a14610390578063bb5c071d146103cb578063cf51b45d146103e75761014d565b80635b982d2f116101155780635b982d2f1461024257806369bf97531461025e5780636d9a5acc1461027a5780636d9d118214610296578063781c0b26146102c65780638a46c9d8146102e45761014d565b80632356cea2146101525780632b0b9d991461018257806340a310da146101b25780634a507ab6146101e257806356dfe0c314610212575b600080fd5b61016c600480360381019061016791906140f7565b6104ff565b604051610179919061417f565b60405180910390f35b61019c600480360381019061019791906140f7565b610708565b6040516101a991906144ab565b60405180910390f35b6101cc60048036038101906101c791906140f7565b610be0565b6040516101d9919061417f565b60405180910390f35b6101fc60048036038101906101f791906140f7565b610de9565b604051610209919061417f565b60405180910390f35b61022c600480360381019061022791906140f7565b610ff2565b6040516102399190614517565b60405180910390f35b61025c60048036038101906102579190614565565b6113db565b005b610278600480360381019061027391906140f7565b6115f9565b005b610294600480360381019061028f91906140f7565b611ae7565b005b6102b060048036038101906102ab91906140f7565b611e66565b6040516102bd9190614517565b60405180910390f35b6102ce6120f4565b6040516102db919061417f565b60405180910390f35b6102fe60048036038101906102f991906140f7565b612100565b60405161030b919061417f565b60405180910390f35b61032e600480360381019061032991906145f0565b612309565b60405161033b91906147ff565b60405180910390f35b61035e600480360381019061035991906140f7565b612730565b005b61037a600480360381019061037591906145f0565b612ae6565b60405161038791906147ff565b60405180910390f35b6103aa60048036038101906103a59190614821565b612f0d565b6040516103c29c9b9a9998979695949392919061487b565b60405180910390f35b6103e560048036038101906103e0919061493c565b61306c565b005b61040160048036038101906103fc91906149fa565b6136ed565b005b61041d600480360381019061041891906140f7565b613780565b60405161042a919061417f565b60405180910390f35b61043b613989565b6040516104489190614ab5565b60405180910390f35b61046b60048036038101906104669190614821565b6139af565b6040516104789190614c98565b60405180910390f35b61049b60048036038101906104969190614821565b613a59565b6040516104a89190614d78565b60405180910390f35b6104b9613b09565b6040516104c69190614dbb565b60405180910390f35b6104e960048036038101906104e491906140f7565b613b2f565b6040516104f6919061417f565b60405180910390f35b600080600090505b6000805490508110156106c5578473ffffffffffffffffffffffffffffffffffffffff166000828154811061053f5761053e614dd6565b5b90600052602060002090600c020160020160009054906101000a900473ffffffffffffffffffffffffffffffffffffffff1673ffffffffffffffffffffffffffffffffffffffff1614801561060457508373ffffffffffffffffffffffffffffffffffffffff16600082815481106105ba576105b9614dd6565b5b90600052602060002090600c020160010160009054906101000a900473ffffffffffffffffffffffffffffffffffffffff1673ffffffffffffffffffffffffffffffffffffffff16145b801561067f57508260405160200161061c9190614e41565b604051602081830303815290604052805190602001206000828154811061064657610645614dd6565b5b90600052602060002090600c02016008016040516020016106679190614f50565b60405160208183030381529060405280519060200120145b156106b2576000818154811061069857610697614dd6565b5b90600052602060002090600c020160050154915050610701565b80806106bd90614f96565b915050610507565b506040517f08c379a00000000000000000000000000000000000000000000000000000000081526004016106f89061502a565b60405180910390fd5b9392505050565b610710613d38565b60005b600080549050811015610b9d578473ffffffffffffffffffffffffffffffffffffffff166000828154811061074b5761074a614dd6565b5b90600052602060002090600c020160020160009054906101000a900473ffffffffffffffffffffffffffffffffffffffff1673ffffffffffffffffffffffffffffffffffffffff1614801561081057508373ffffffffffffffffffffffffffffffffffffffff16600082815481106107c6576107c5614dd6565b5b90600052602060002090600c020160010160009054906101000a900473ffffffffffffffffffffffffffffffffffffffff1673ffffffffffffffffffffffffffffffffffffffff16145b801561088b5750826040516020016108289190614e41565b604051602081830303815290604052805190602001206000828154811061085257610851614dd6565b5b90600052602060002090600c02016008016040516020016108739190614f50565b60405160208183030381529060405280519060200120145b15610b8a57600081815481106108a4576108a3614dd6565b5b90600052602060002090600c0201604051806101a0016040529081600082015481526020016001820160009054906101000a900473ffffffffffffffffffffffffffffffffffffffff1673ffffffffffffffffffffffffffffffffffffffff1673ffffffffffffffffffffffffffffffffffffffff1681526020016002820160009054906101000a900473ffffffffffffffffffffffffffffffffffffffff1673ffffffffffffffffffffffffffffffffffffffff1673ffffffffffffffffffffffffffffffffffffffff16815260200160038201548152602001600482015481526020016005820154815260200160068201548152602001600782015481526020016008820180546109b690614e87565b80601f01602080910402602001604051908101604052809291908181526020018280546109e290614e87565b8015610a2f5780601f10610a0457610100808354040283529160200191610a2f565b820191906000526020600020905b815481529060010190602001808311610a1257829003601f168201915b505050505081526020016009820160009054906101000a900460ff166002811115610a5d57610a5c614237565b5b6002811115610a6f57610a6e614237565b5b8152602001600a8201805480602002602001604051908101604052809291908181526020016000905b82821015610b44578382906000526020600020018054610ab790614e87565b80601f0160208091040260200160405190810160405280929190818152602001828054610ae390614e87565b8015610b305780601f10610b0557610100808354040283529160200191610b30565b820191906000526020600020905b815481529060010190602001808311610b1357829003601f168201915b505050505081526020019060010190610a98565b505050508152602001600b820160009054906101000a900460ff16151515158152602001600b820160019054906101000a900460ff161515151581525050915050610bd9565b8080610b9590614f96565b915050610713565b506040517f08c379a0000000000000000000000000000000000000000000000000000000008152600401610bd09061502a565b60405180910390fd5b9392505050565b600080600090505b600080549050811015610da6578473ffffffffffffffffffffffffffffffffffffffff1660008281548110610c2057610c1f614dd6565b5b90600052602060002090600c020160020160009054906101000a900473ffffffffffffffffffffffffffffffffffffffff1673ffffffffffffffffffffffffffffffffffffffff16148015610ce557508373ffffffffffffffffffffffffffffffffffffffff1660008281548110610c9b57610c9a614dd6565b5b90600052602060002090600c020160010160009054906101000a900473ffffffffffffffffffffffffffffffffffffffff1673ffffffffffffffffffffffffffffffffffffffff16145b8015610d60575082604051602001610cfd9190614e41565b6040516020818303038152906040528051906020012060008281548110610d2757610d26614dd6565b5b90600052602060002090600c0201600801604051602001610d489190614f50565b60405160208183030381529060405280519060200120145b15610d935760008181548110610d7957610d78614dd6565b5b90600052602060002090600c020160070154915050610de2565b8080610d9e90614f96565b915050610be8565b506040517f08c379a0000000000000000000000000000000000000000000000000000000008152600401610dd99061502a565b60405180910390fd5b9392505050565b600080600090505b600080549050811015610faf578473ffffffffffffffffffffffffffffffffffffffff1660008281548110610e2957610e28614dd6565b5b90600052602060002090600c020160020160009054906101000a900473ffffffffffffffffffffffffffffffffffffffff1673ffffffffffffffffffffffffffffffffffffffff16148015610eee57508373ffffffffffffffffffffffffffffffffffffffff1660008281548110610ea457610ea3614dd6565b5b90600052602060002090600c020160010160009054906101000a900473ffffffffffffffffffffffffffffffffffffffff1673ffffffffffffffffffffffffffffffffffffffff16145b8015610f69575082604051602001610f069190614e41565b6040516020818303038152906040528051906020012060008281548110610f3057610f2f614dd6565b5b90600052602060002090600c0201600801604051602001610f519190614f50565b60405160208183030381529060405280519060200120145b15610f9c5760008181548110610f8257610f81614dd6565b5b90600052602060002090600c020160040154915050610feb565b8080610fa790614f96565b915050610df1565b506040517f08c379a0000000000000000000000000000000000000000000000000000000008152600401610fe29061502a565b60405180910390fd5b9392505050565b606060005b600080549050811015611398578473ffffffffffffffffffffffffffffffffffffffff166000828154811061102f5761102e614dd6565b5b90600052602060002090600c020160020160009054906101000a900473ffffffffffffffffffffffffffffffffffffffff1673ffffffffffffffffffffffffffffffffffffffff161480156110f457508373ffffffffffffffffffffffffffffffffffffffff16600082815481106110aa576110a9614dd6565b5b90600052602060002090600c020160010160009054906101000a900473ffffffffffffffffffffffffffffffffffffffff1673ffffffffffffffffffffffffffffffffffffffff16145b801561116f57508260405160200161110c9190614e41565b604051602081830303815290604052805190602001206000828154811061113657611135614dd6565b5b90600052602060002090600c02016008016040516020016111579190614f50565b60405160208183030381529060405280519060200120145b15611385576000600281111561118857611187614237565b5b6000828154811061119c5761119b614dd6565b5b90600052602060002090600c020160090160009054906101000a900460ff1660028111156111cd576111cc614237565b5b03611210576040518060400160405280600781526020017f50656e64696e67000000000000000000000000000000000000000000000000008152509150506113d4565b6001600281111561122457611223614237565b5b6000828154811061123857611237614dd6565b5b90600052602060002090600c020160090160009054906101000a900460ff16600281111561126957611268614237565b5b036112ac576040518060400160405280600681526020017f41637469766500000000000000000000000000000000000000000000000000008152509150506113d4565b6002808111156112bf576112be614237565b5b600082815481106112d3576112d2614dd6565b5b90600052602060002090600c020160090160009054906101000a900460ff16600281111561130457611303614237565b5b03611347576040518060400160405280600a81526020017f5465726d696e61746564000000000000000000000000000000000000000000008152509150506113d4565b6040518060400160405280600581526020017f4572726f720000000000000000000000000000000000000000000000000000008152509150506113d4565b808061139090614f96565b915050610ff7565b506040517f08c379a00000000000000000000000000000000000000000000000000000000081526004016113cb9061502a565b60405180910390fd5b9392505050565b6000805490508310611422576040517f08c379a000000000000000000000000000000000000000000000000000000000815260040161141990615096565b60405180910390fd5b3373ffffffffffffffffffffffffffffffffffffffff166000848154811061144d5761144c614dd6565b5b90600052602060002090600c020160020160009054906101000a900473ffffffffffffffffffffffffffffffffffffffff1673ffffffffffffffffffffffffffffffffffffffff16146114d5576040517f08c379a00000000000000000000000000000000000000000000000000000000081526004016114cc90615102565b60405180910390fd5b600160009054906101000a900473ffffffffffffffffffffffffffffffffffffffff1673ffffffffffffffffffffffffffffffffffffffff166395fdbdfb846000868154811061152857611527614dd6565b5b90600052602060002090600c020160020160009054906101000a900473ffffffffffffffffffffffffffffffffffffffff166000878154811061156e5761156d614dd6565b5b90600052602060002090600c020160010160009054906101000a900473ffffffffffffffffffffffffffffffffffffffff1686866040518663ffffffff1660e01b81526004016115c2959493929190615122565b600060405180830381600087803b1580156115dc57600080fd5b505af11580156115f0573d6000803e3d6000fd5b50505050505050565b60005b600080549050811015611ae1578373ffffffffffffffffffffffffffffffffffffffff166000828154811061163457611633614dd6565b5b90600052602060002090600c020160020160009054906101000a900473ffffffffffffffffffffffffffffffffffffffff1673ffffffffffffffffffffffffffffffffffffffff161480156116f957508273ffffffffffffffffffffffffffffffffffffffff16600082815481106116af576116ae614dd6565b5b90600052602060002090600c020160010160009054906101000a900473ffffffffffffffffffffffffffffffffffffffff1673ffffffffffffffffffffffffffffffffffffffff16145b80156117745750816040516020016117119190614e41565b604051602081830303815290604052805190602001206000828154811061173b5761173a614dd6565b5b90600052602060002090600c020160080160405160200161175c9190614f50565b60405160208183030381529060405280519060200120145b15611ace576000600281111561178d5761178c614237565b5b600082815481106117a1576117a0614dd6565b5b90600052602060002090600c020160090160009054906101000a900460ff1660028111156117d2576117d1614237565b5b14611812576040517f08c379a0000000000000000000000000000000000000000000000000000000008152600401611809906151cf565b60405180910390fd5b8373ffffffffffffffffffffffffffffffffffffffff163373ffffffffffffffffffffffffffffffffffffffff16036118845760016000828154811061185b5761185a614dd6565b5b90600052602060002090600c0201600b0160006101000a81548160ff0219169083151502179055505b8273ffffffffffffffffffffffffffffffffffffffff163373ffffffffffffffffffffffffffffffffffffffff160361196f5760011515600082815481106118cf576118ce614dd6565b5b90600052602060002090600c0201600b0160009054906101000a900460ff16151514611930576040517f08c379a00000000000000000000000000000000000000000000000000000000081526004016119279061523b565b60405180910390fd5b60016000828154811061194657611945614dd6565b5b90600052602060002090600c0201600b0160016101000a81548160ff0219169083151502179055505b6000818154811061198357611982614dd6565b5b90600052602060002090600c0201600b0160019054906101000a900460ff1680156119dd5750600081815481106119bd576119bc614dd6565b5b90600052602060002090600c0201600b0160009054906101000a900460ff165b15611ac9576002808111156119f5576119f4614237565b5b60008281548110611a0957611a08614dd6565b5b90600052602060002090600c020160090160009054906101000a900460ff166002811115611a3a57611a39614237565b5b03611a7a576040517f08c379a0000000000000000000000000000000000000000000000000000000008152600401611a71906152a7565b60405180910390fd5b600160008281548110611a9057611a8f614dd6565b5b90600052602060002090600c020160090160006101000a81548160ff02191690836002811115611ac357611ac2614237565b5b02179055505b611ae1565b8080611ad990614f96565b9150506115fc565b50505050565b60005b600080549050811015611e60578373ffffffffffffffffffffffffffffffffffffffff1660008281548110611b2257611b21614dd6565b5b90600052602060002090600c020160020160009054906101000a900473ffffffffffffffffffffffffffffffffffffffff1673ffffffffffffffffffffffffffffffffffffffff16148015611be757508273ffffffffffffffffffffffffffffffffffffffff1660008281548110611b9d57611b9c614dd6565b5b90600052602060002090600c020160010160009054906101000a900473ffffffffffffffffffffffffffffffffffffffff1673ffffffffffffffffffffffffffffffffffffffff16145b8015611c62575081604051602001611bff9190614e41565b6040516020818303038152906040528051906020012060008281548110611c2957611c28614dd6565b5b90600052602060002090600c0201600801604051602001611c4a9190614f50565b60405160208183030381529060405280519060200120145b8015611cc45750600280811115611c7c57611c7b614237565b5b60008281548110611c9057611c8f614dd6565b5b90600052602060002090600c020160090160009054906101000a900460ff166002811115611cc157611cc0614237565b5b14155b15611e4d57600280811115611cdc57611cdb614237565b5b60008281548110611cf057611cef614dd6565b5b90600052602060002090600c020160090160009054906101000a900460ff166002811115611d2157611d20614237565b5b03611d61576040517f08c379a0000000000000000000000000000000000000000000000000000000008152600401611d5890615339565b60405180910390fd5b60016002811115611d7557611d74614237565b5b60008281548110611d8957611d88614dd6565b5b90600052602060002090600c020160090160009054906101000a900460ff166002811115611dba57611db9614237565b5b14611dfa576040517f08c379a0000000000000000000000000000000000000000000000000000000008152600401611df1906153a5565b60405180910390fd5b600260008281548110611e1057611e0f614dd6565b5b90600052602060002090600c020160090160006101000a81548160ff02191690836002811115611e4357611e42614237565b5b0217905550611e60565b8080611e5890614f96565b915050611aea565b50505050565b606060005b6000805490508110156120b1578473ffffffffffffffffffffffffffffffffffffffff1660008281548110611ea357611ea2614dd6565b5b90600052602060002090600c020160020160009054906101000a900473ffffffffffffffffffffffffffffffffffffffff1673ffffffffffffffffffffffffffffffffffffffff16148015611f6857508373ffffffffffffffffffffffffffffffffffffffff1660008281548110611f1e57611f1d614dd6565b5b90600052602060002090600c020160010160009054906101000a900473ffffffffffffffffffffffffffffffffffffffff1673ffffffffffffffffffffffffffffffffffffffff16145b8015611fe3575082604051602001611f809190614e41565b6040516020818303038152906040528051906020012060008281548110611faa57611fa9614dd6565b5b90600052602060002090600c0201600801604051602001611fcb9190614f50565b60405160208183030381529060405280519060200120145b1561209e5760008181548110611ffc57611ffb614dd6565b5b90600052602060002090600c0201600801805461201890614e87565b80601f016020809104026020016040519081016040528092919081815260200182805461204490614e87565b80156120915780601f1061206657610100808354040283529160200191612091565b820191906000526020600020905b81548152906001019060200180831161207457829003601f168201915b50505050509150506120ed565b80806120a990614f96565b915050611e6b565b506040517f08c379a00000000000000000000000000000000000000000000000000000000081526004016120e49061502a565b60405180910390fd5b9392505050565b60008080549050905090565b600080600090505b6000805490508110156122c6578473ffffffffffffffffffffffffffffffffffffffff16600082815481106121405761213f614dd6565b5b90600052602060002090600c020160020160009054906101000a900473ffffffffffffffffffffffffffffffffffffffff1673ffffffffffffffffffffffffffffffffffffffff1614801561220557508373ffffffffffffffffffffffffffffffffffffffff16600082815481106121bb576121ba614dd6565b5b90600052602060002090600c020160010160009054906101000a900473ffffffffffffffffffffffffffffffffffffffff1673ffffffffffffffffffffffffffffffffffffffff16145b801561228057508260405160200161221d9190614e41565b604051602081830303815290604052805190602001206000828154811061224757612246614dd6565b5b90600052602060002090600c02016008016040516020016122689190614f50565b60405160208183030381529060405280519060200120145b156122b3576000818154811061229957612298614dd6565b5b90600052602060002090600c020160000154915050612302565b80806122be90614f96565b915050612108565b506040517f08c379a00000000000000000000000000000000000000000000000000000000081526004016122f99061502a565b60405180910390fd5b9392505050565b60606000808054905067ffffffffffffffff81111561232b5761232a613fcc565b5b60405190808252806020026020018201604052801561236457816020015b612351613d38565b8152602001906001900390816123495790505b5090506000805b600080549050811015612722578473ffffffffffffffffffffffffffffffffffffffff16600082815481106123a3576123a2614dd6565b5b90600052602060002090600c020160020160009054906101000a900473ffffffffffffffffffffffffffffffffffffffff1673ffffffffffffffffffffffffffffffffffffffff160361270f576000818154811061240457612403614dd6565b5b90600052602060002090600c0201604051806101a0016040529081600082015481526020016001820160009054906101000a900473ffffffffffffffffffffffffffffffffffffffff1673ffffffffffffffffffffffffffffffffffffffff1673ffffffffffffffffffffffffffffffffffffffff1681526020016002820160009054906101000a900473ffffffffffffffffffffffffffffffffffffffff1673ffffffffffffffffffffffffffffffffffffffff1673ffffffffffffffffffffffffffffffffffffffff168152602001600382015481526020016004820154815260200160058201548152602001600682015481526020016007820154815260200160088201805461251690614e87565b80601f016020809104026020016040519081016040528092919081815260200182805461254290614e87565b801561258f5780601f106125645761010080835404028352916020019161258f565b820191906000526020600020905b81548152906001019060200180831161257257829003601f168201915b505050505081526020016009820160009054906101000a900460ff1660028111156125bd576125bc614237565b5b60028111156125cf576125ce614237565b5b8152602001600a8201805480602002602001604051908101604052809291908181526020016000905b828210156126a457838290600052602060002001805461261790614e87565b80601f016020809104026020016040519081016040528092919081815260200182805461264390614e87565b80156126905780601f1061266557610100808354040283529160200191612690565b820191906000526020600020905b81548152906001019060200180831161267357829003601f168201915b5050505050815260200190600101906125f8565b505050508152602001600b820160009054906101000a900460ff16151515158152602001600b820160019054906101000a900460ff1615151515815250508383815181106126f5576126f4614dd6565b5b6020026020010181905250818061270b90614f96565b9250505b808061271a90614f96565b91505061236b565b508082528192505050919050565b60005b600080549050811015612ae0578373ffffffffffffffffffffffffffffffffffffffff166000828154811061276b5761276a614dd6565b5b90600052602060002090600c020160020160009054906101000a900473ffffffffffffffffffffffffffffffffffffffff1673ffffffffffffffffffffffffffffffffffffffff1614801561283057508273ffffffffffffffffffffffffffffffffffffffff16600082815481106127e6576127e5614dd6565b5b90600052602060002090600c020160010160009054906101000a900473ffffffffffffffffffffffffffffffffffffffff1673ffffffffffffffffffffffffffffffffffffffff16145b80156128ab5750816040516020016128489190614e41565b604051602081830303815290604052805190602001206000828154811061287257612871614dd6565b5b90600052602060002090600c02016008016040516020016128939190614f50565b60405160208183030381529060405280519060200120145b15612acd57600060028111156128c4576128c3614237565b5b600082815481106128d8576128d7614dd6565b5b90600052602060002090600c020160090160009054906101000a900460ff16600281111561290957612908614237565b5b14612949576040517f08c379a0000000000000000000000000000000000000000000000000000000008152600401612940906151cf565b60405180910390fd5b6001600281111561295d5761295c614237565b5b6000828154811061297157612970614dd6565b5b90600052602060002090600c020160090160009054906101000a900460ff1660028111156129a2576129a1614237565b5b036129e2576040517f08c379a00000000000000000000000000000000000000000000000000000000081526004016129d990615411565b60405180910390fd5b6002808111156129f5576129f4614237565b5b60008281548110612a0957612a08614dd6565b5b90600052602060002090600c020160090160009054906101000a900460ff166002811115612a3a57612a39614237565b5b03612a7a576040517f08c379a0000000000000000000000000000000000000000000000000000000008152600401612a71906152a7565b60405180910390fd5b600260008281548110612a9057612a8f614dd6565b5b90600052602060002090600c020160090160006101000a81548160ff02191690836002811115612ac357612ac2614237565b5b0217905550612ae0565b8080612ad890614f96565b915050612733565b50505050565b60606000808054905067ffffffffffffffff811115612b0857612b07613fcc565b5b604051908082528060200260200182016040528015612b4157816020015b612b2e613d38565b815260200190600190039081612b265790505b5090506000805b600080549050811015612eff578473ffffffffffffffffffffffffffffffffffffffff1660008281548110612b8057612b7f614dd6565b5b90600052602060002090600c020160010160009054906101000a900473ffffffffffffffffffffffffffffffffffffffff1673ffffffffffffffffffffffffffffffffffffffff1603612eec5760008181548110612be157612be0614dd6565b5b90600052602060002090600c0201604051806101a0016040529081600082015481526020016001820160009054906101000a900473ffffffffffffffffffffffffffffffffffffffff1673ffffffffffffffffffffffffffffffffffffffff1673ffffffffffffffffffffffffffffffffffffffff1681526020016002820160009054906101000a900473ffffffffffffffffffffffffffffffffffffffff1673ffffffffffffffffffffffffffffffffffffffff1673ffffffffffffffffffffffffffffffffffffffff1681526020016003820154815260200160048201548152602001600582015481526020016006820154815260200160078201548152602001600882018054612cf390614e87565b80601f0160208091040260200160405190810160405280929190818152602001828054612d1f90614e87565b8015612d6c5780601f10612d4157610100808354040283529160200191612d6c565b820191906000526020600020905b815481529060010190602001808311612d4f57829003601f168201915b505050505081526020016009820160009054906101000a900460ff166002811115612d9a57612d99614237565b5b6002811115612dac57612dab614237565b5b8152602001600a8201805480602002602001604051908101604052809291908181526020016000905b82821015612e81578382906000526020600020018054612df490614e87565b80601f0160208091040260200160405190810160405280929190818152602001828054612e2090614e87565b8015612e6d5780601f10612e4257610100808354040283529160200191612e6d565b820191906000526020600020905b815481529060010190602001808311612e5057829003601f168201915b505050505081526020019060010190612dd5565b505050508152602001600b820160009054906101000a900460ff16151515158152602001600b820160019054906101000a900460ff161515151581525050838381518110612ed257612ed1614dd6565b5b60200260200101819052508180612ee890614f96565b9250505b8080612ef790614f96565b915050612b48565b508082528192505050919050565b60008181548110612f1d57600080fd5b90600052602060002090600c02016000915090508060000154908060010160009054906101000a900473ffffffffffffffffffffffffffffffffffffffff16908060020160009054906101000a900473ffffffffffffffffffffffffffffffffffffffff1690806003015490806004015490806005015490806006015490806007015490806008018054612fb090614e87565b80601f0160208091040260200160405190810160405280929190818152602001828054612fdc90614e87565b80156130295780601f10612ffe57610100808354040283529160200191613029565b820191906000526020600020905b81548152906001019060200180831161300c57829003601f168201915b5050505050908060090160009054906101000a900460ff169080600b0160009054906101000a900460ff169080600b0160019054906101000a900460ff1690508c565b60005b6000805490508110156134b1578773ffffffffffffffffffffffffffffffffffffffff16600082815481106130a7576130a6614dd6565b5b90600052602060002090600c020160010160009054906101000a900473ffffffffffffffffffffffffffffffffffffffff1673ffffffffffffffffffffffffffffffffffffffff1614801561316c57508673ffffffffffffffffffffffffffffffffffffffff166000828154811061312257613121614dd6565b5b90600052602060002090600c020160020160009054906101000a900473ffffffffffffffffffffffffffffffffffffffff1673ffffffffffffffffffffffffffffffffffffffff16145b80156131e75750816040516020016131849190614e41565b60405160208183030381529060405280519060200120600082815481106131ae576131ad614dd6565b5b90600052602060002090600c02016008016040516020016131cf9190614f50565b60405160208183030381529060405280519060200120145b801561324957506000600281111561320257613201614237565b5b6000828154811061321657613215614dd6565b5b90600052602060002090600c020160090160009054906101000a900460ff16600281111561324757613246614237565b5b145b15613289576040517f08c379a00000000000000000000000000000000000000000000000000000000081526004016132809061547d565b60405180910390fd5b60028081111561329c5761329b614237565b5b600082815481106132b0576132af614dd6565b5b90600052602060002090600c020160090160009054906101000a900460ff1660028111156132e1576132e0614237565b5b0361349e5785600082815481106132fb576132fa614dd6565b5b90600052602060002090600c020160030181905550846000828154811061332557613324614dd6565b5b90600052602060002090600c020160040181905550836000828154811061334f5761334e614dd6565b5b90600052602060002090600c020160050181905550826000828154811061337957613378614dd6565b5b90600052602060002090600c02016006018190555062278d008461339d919061549d565b836133a891906154df565b600082815481106133bc576133bb614dd6565b5b90600052602060002090600c02016007018190555060008082815481106133e6576133e5614dd6565b5b90600052602060002090600c020160090160006101000a81548160ff0219169083600281111561341957613418614237565b5b0217905550600080828154811061343357613432614dd6565b5b90600052602060002090600c0201600b0160006101000a81548160ff02191690831515021790555060008082815481106134705761346f614dd6565b5b90600052602060002090600c0201600b0160016101000a81548160ff021916908315150217905550506136e4565b80806134a990614f96565b91505061306f565b506000806001816001815401808255809150500390600052602060002090600c0201905060016000805490506134e79190615513565b8160000181905550878160010160006101000a81548173ffffffffffffffffffffffffffffffffffffffff021916908373ffffffffffffffffffffffffffffffffffffffff160217905550868160020160006101000a81548173ffffffffffffffffffffffffffffffffffffffff021916908373ffffffffffffffffffffffffffffffffffffffff16021790555085816003018190555084816004018190555083816005018190555082816006018190555062278d00846135a8919061549d565b836135b391906154df565b8160070181905550818160080190816135cc91906156d4565b5060008160090160006101000a81548160ff021916908360028111156135f5576135f4614237565b5b0217905550600081600b0160006101000a81548160ff021916908315150217905550600081600b0160016101000a81548160ff021916908315150217905550600260009054906101000a900473ffffffffffffffffffffffffffffffffffffffff1673ffffffffffffffffffffffffffffffffffffffff1663c6418ab96040518163ffffffff1660e01b8152600401600060405180830381865afa1580156136a1573d6000803e3d6000fd5b505050506040513d6000823e3d601f19601f820116820180604052508101906136ca91906158fc565b81600a0190805190602001906136e1929190613de2565b50505b50505050505050565b600160009054906101000a900473ffffffffffffffffffffffffffffffffffffffff1673ffffffffffffffffffffffffffffffffffffffff1663cf51b45d83836040518363ffffffff1660e01b815260040161374a929190615945565b600060405180830381600087803b15801561376457600080fd5b505af1158015613778573d6000803e3d6000fd5b505050505050565b600080600090505b600080549050811015613946578473ffffffffffffffffffffffffffffffffffffffff16600082815481106137c0576137bf614dd6565b5b90600052602060002090600c020160020160009054906101000a900473ffffffffffffffffffffffffffffffffffffffff1673ffffffffffffffffffffffffffffffffffffffff1614801561388557508373ffffffffffffffffffffffffffffffffffffffff166000828154811061383b5761383a614dd6565b5b90600052602060002090600c020160010160009054906101000a900473ffffffffffffffffffffffffffffffffffffffff1673ffffffffffffffffffffffffffffffffffffffff16145b801561390057508260405160200161389d9190614e41565b60405160208183030381529060405280519060200120600082815481106138c7576138c6614dd6565b5b90600052602060002090600c02016008016040516020016138e89190614f50565b60405160208183030381529060405280519060200120145b15613933576000818154811061391957613918614dd6565b5b90600052602060002090600c020160030154915050613982565b808061393e90614f96565b915050613788565b506040517f08c379a00000000000000000000000000000000000000000000000000000000081526004016139799061502a565b60405180910390fd5b9392505050565b600260009054906101000a900473ffffffffffffffffffffffffffffffffffffffff1681565b6060600160009054906101000a900473ffffffffffffffffffffffffffffffffffffffff1673ffffffffffffffffffffffffffffffffffffffff16632cde9bef836040518263ffffffff1660e01b8152600401613a0c919061417f565b600060405180830381865afa158015613a29573d6000803e3d6000fd5b505050506040513d6000823e3d601f19601f82011682018060405250810190613a529190615bcd565b9050919050565b613a61613e3b565b600160009054906101000a900473ffffffffffffffffffffffffffffffffffffffff1673ffffffffffffffffffffffffffffffffffffffff1663ea89735d836040518263ffffffff1660e01b8152600401613abc919061417f565b600060405180830381865afa158015613ad9573d6000803e3d6000fd5b505050506040513d6000823e3d601f19601f82011682018060405250810190613b029190615c16565b9050919050565b600160009054906101000a900473ffffffffffffffffffffffffffffffffffffffff1681565b600080600090505b600080549050811015613cf5578473ffffffffffffffffffffffffffffffffffffffff1660008281548110613b6f57613b6e614dd6565b5b90600052602060002090600c020160020160009054906101000a900473ffffffffffffffffffffffffffffffffffffffff1673ffffffffffffffffffffffffffffffffffffffff16148015613c3457508373ffffffffffffffffffffffffffffffffffffffff1660008281548110613bea57613be9614dd6565b5b90600052602060002090600c020160010160009054906101000a900473ffffffffffffffffffffffffffffffffffffffff1673ffffffffffffffffffffffffffffffffffffffff16145b8015613caf575082604051602001613c4c9190614e41565b6040516020818303038152906040528051906020012060008281548110613c7657613c75614dd6565b5b90600052602060002090600c0201600801604051602001613c979190614f50565b60405160208183030381529060405280519060200120145b15613ce25760008181548110613cc857613cc7614dd6565b5b90600052602060002090600c020160060154915050613d31565b8080613ced90614f96565b915050613b37565b506040517f08c379a0000000000000000000000000000000000000000000000000000000008152600401613d289061502a565b60405180910390fd5b9392505050565b604051806101a0016040528060008152602001600073ffffffffffffffffffffffffffffffffffffffff168152602001600073ffffffffffffffffffffffffffffffffffffffff16815260200160008152602001600081526020016000815260200160008152602001600081526020016060815260200160006002811115613dc357613dc2614237565b5b8152602001606081526020016000151581526020016000151581525090565b828054828255906000526020600020908101928215613e2a579160200282015b82811115613e29578251829081613e1991906156d4565b5091602001919060010190613e02565b5b509050613e379190613ebe565b5090565b6040518061010001604052806000815260200160008152602001600073ffffffffffffffffffffffffffffffffffffffff168152602001600073ffffffffffffffffffffffffffffffffffffffff16815260200160608152602001606081526020016060815260200160006001811115613eb857613eb7614237565b5b81525090565b5b80821115613ede5760008181613ed59190613ee2565b50600101613ebf565b5090565b508054613eee90614e87565b6000825580601f10613f005750613f1f565b601f016020900490600052602060002090810190613f1e9190613f22565b5b50565b5b80821115613f3b576000816000905550600101613f23565b5090565b6000604051905090565b600080fd5b600080fd5b600073ffffffffffffffffffffffffffffffffffffffff82169050919050565b6000613f7e82613f53565b9050919050565b613f8e81613f73565b8114613f9957600080fd5b50565b600081359050613fab81613f85565b92915050565b600080fd5b600080fd5b6000601f19601f8301169050919050565b7f4e487b7100000000000000000000000000000000000000000000000000000000600052604160045260246000fd5b61400482613fbb565b810181811067ffffffffffffffff8211171561402357614022613fcc565b5b80604052505050565b6000614036613f3f565b90506140428282613ffb565b919050565b600067ffffffffffffffff82111561406257614061613fcc565b5b61406b82613fbb565b9050602081019050919050565b82818337600083830152505050565b600061409a61409584614047565b61402c565b9050828152602081018484840111156140b6576140b5613fb6565b5b6140c1848285614078565b509392505050565b600082601f8301126140de576140dd613fb1565b5b81356140ee848260208601614087565b91505092915050565b6000806000606084860312156141105761410f613f49565b5b600061411e86828701613f9c565b935050602061412f86828701613f9c565b925050604084013567ffffffffffffffff8111156141505761414f613f4e565b5b61415c868287016140c9565b9150509250925092565b6000819050919050565b61417981614166565b82525050565b60006020820190506141946000830184614170565b92915050565b6141a381614166565b82525050565b6141b281613f73565b82525050565b600081519050919050565b600082825260208201905092915050565b60005b838110156141f25780820151818401526020810190506141d7565b60008484015250505050565b6000614209826141b8565b61421381856141c3565b93506142238185602086016141d4565b61422c81613fbb565b840191505092915050565b7f4e487b7100000000000000000000000000000000000000000000000000000000600052602160045260246000fd5b6003811061427757614276614237565b5b50565b600081905061428882614266565b919050565b60006142988261427a565b9050919050565b6142a88161428d565b82525050565b600081519050919050565b600082825260208201905092915050565b6000819050602082019050919050565b60006142e683836141fe565b905092915050565b6000602082019050919050565b6000614306826142ae565b61431081856142b9565b935083602082028501614322856142ca565b8060005b8581101561435e578484038952815161433f85826142da565b945061434a836142ee565b925060208a01995050600181019050614326565b50829750879550505050505092915050565b60008115159050919050565b61438581614370565b82525050565b60006101a0830160008301516143a4600086018261419a565b5060208301516143b760208601826141a9565b5060408301516143ca60408601826141a9565b5060608301516143dd606086018261419a565b5060808301516143f0608086018261419a565b5060a083015161440360a086018261419a565b5060c083015161441660c086018261419a565b5060e083015161442960e086018261419a565b5061010083015184820361010086015261444382826141fe565b91505061012083015161445a61012086018261429f565b5061014083015184820361014086015261447482826142fb565b91505061016083015161448b61016086018261437c565b506101808301516144a061018086018261437c565b508091505092915050565b600060208201905081810360008301526144c5818461438b565b905092915050565b600082825260208201905092915050565b60006144e9826141b8565b6144f381856144cd565b93506145038185602086016141d4565b61450c81613fbb565b840191505092915050565b6000602082019050818103600083015261453181846144de565b905092915050565b61454281614166565b811461454d57600080fd5b50565b60008135905061455f81614539565b92915050565b60008060006060848603121561457e5761457d613f49565b5b600061458c86828701614550565b935050602084013567ffffffffffffffff8111156145ad576145ac613f4e565b5b6145b9868287016140c9565b925050604084013567ffffffffffffffff8111156145da576145d9613f4e565b5b6145e6868287016140c9565b9150509250925092565b60006020828403121561460657614605613f49565b5b600061461484828501613f9c565b91505092915050565b600081519050919050565b600082825260208201905092915050565b6000819050602082019050919050565b60006101a083016000830151614662600086018261419a565b50602083015161467560208601826141a9565b50604083015161468860408601826141a9565b50606083015161469b606086018261419a565b5060808301516146ae608086018261419a565b5060a08301516146c160a086018261419a565b5060c08301516146d460c086018261419a565b5060e08301516146e760e086018261419a565b5061010083015184820361010086015261470182826141fe565b91505061012083015161471861012086018261429f565b5061014083015184820361014086015261473282826142fb565b91505061016083015161474961016086018261437c565b5061018083015161475e61018086018261437c565b508091505092915050565b60006147758383614649565b905092915050565b6000602082019050919050565b60006147958261461d565b61479f8185614628565b9350836020820285016147b185614639565b8060005b858110156147ed57848403895281516147ce8582614769565b94506147d98361477d565b925060208a019950506001810190506147b5565b50829750879550505050505092915050565b60006020820190508181036000830152614819818461478a565b905092915050565b60006020828403121561483757614836613f49565b5b600061484584828501614550565b91505092915050565b61485781613f73565b82525050565b6148668161428d565b82525050565b61487581614370565b82525050565b600061018082019050614891600083018f614170565b61489e602083018e61484e565b6148ab604083018d61484e565b6148b8606083018c614170565b6148c5608083018b614170565b6148d260a083018a614170565b6148df60c0830189614170565b6148ec60e0830188614170565b8181036101008301526148ff81876144de565b905061490f61012083018661485d565b61491d61014083018561486c565b61492b61016083018461486c565b9d9c50505050505050505050505050565b600080600080600080600060e0888a03121561495b5761495a613f49565b5b60006149698a828b01613f9c565b975050602061497a8a828b01613f9c565b965050604061498b8a828b01614550565b955050606061499c8a828b01614550565b94505060806149ad8a828b01614550565b93505060a06149be8a828b01614550565b92505060c088013567ffffffffffffffff8111156149df576149de613f4e565b5b6149eb8a828b016140c9565b91505092959891949750929550565b60008060408385031215614a1157614a10613f49565b5b6000614a1f85828601614550565b925050602083013567ffffffffffffffff811115614a4057614a3f613f4e565b5b614a4c858286016140c9565b9150509250929050565b6000819050919050565b6000614a7b614a76614a7184613f53565b614a56565b613f53565b9050919050565b6000614a8d82614a60565b9050919050565b6000614a9f82614a82565b9050919050565b614aaf81614a94565b82525050565b6000602082019050614aca6000830184614aa6565b92915050565b600081519050919050565b600082825260208201905092915050565b6000819050602082019050919050565b60028110614b0d57614b0c614237565b5b50565b6000819050614b1e82614afc565b919050565b6000614b2e82614b10565b9050919050565b614b3e81614b23565b82525050565b600061010083016000830151614b5d600086018261419a565b506020830151614b70602086018261419a565b506040830151614b8360408601826141a9565b506060830151614b9660608601826141a9565b5060808301518482036080860152614bae82826141fe565b91505060a083015184820360a0860152614bc882826141fe565b91505060c083015184820360c0860152614be282826141fe565b91505060e0830151614bf760e0860182614b35565b508091505092915050565b6000614c0e8383614b44565b905092915050565b6000602082019050919050565b6000614c2e82614ad0565b614c388185614adb565b935083602082028501614c4a85614aec565b8060005b85811015614c865784840389528151614c678582614c02565b9450614c7283614c16565b925060208a01995050600181019050614c4e565b50829750879550505050505092915050565b60006020820190508181036000830152614cb28184614c23565b905092915050565b600061010083016000830151614cd3600086018261419a565b506020830151614ce6602086018261419a565b506040830151614cf960408601826141a9565b506060830151614d0c60608601826141a9565b5060808301518482036080860152614d2482826141fe565b91505060a083015184820360a0860152614d3e82826141fe565b91505060c083015184820360c0860152614d5882826141fe565b91505060e0830151614d6d60e0860182614b35565b508091505092915050565b60006020820190508181036000830152614d928184614cba565b905092915050565b6000614da582614a82565b9050919050565b614db581614d9a565b82525050565b6000602082019050614dd06000830184614dac565b92915050565b7f4e487b7100000000000000000000000000000000000000000000000000000000600052603260045260246000fd5b600081905092915050565b6000614e1b826141b8565b614e258185614e05565b9350614e358185602086016141d4565b80840191505092915050565b6000614e4d8284614e10565b915081905092915050565b7f4e487b7100000000000000000000000000000000000000000000000000000000600052602260045260246000fd5b60006002820490506001821680614e9f57607f821691505b602082108103614eb257614eb1614e58565b5b50919050565b60008190508160005260206000209050919050565b60008154614eda81614e87565b614ee48186614e05565b94506001821660008114614eff5760018114614f1457614f47565b60ff1983168652811515820286019350614f47565b614f1d85614eb8565b60005b83811015614f3f57815481890152600182019150602081019050614f20565b838801955050505b50505092915050565b6000614f5c8284614ecd565b915081905092915050565b7f4e487b7100000000000000000000000000000000000000000000000000000000600052601160045260246000fd5b6000614fa182614166565b91507fffffffffffffffffffffffffffffffffffffffffffffffffffffffffffffffff8203614fd357614fd2614f67565b5b600182019050919050565b7f436f6e7472616374206e6f7420666f756e640000000000000000000000000000600082015250565b60006150146012836144cd565b915061501f82614fde565b602082019050919050565b6000602082019050818103600083015261504381615007565b9050919050565b7f496e76616c69642061677265656d656e74204944000000000000000000000000600082015250565b60006150806014836144cd565b915061508b8261504a565b602082019050919050565b600060208201905081810360008301526150af81615073565b9050919050565b7f4f6e6c792074656e616e742063616e2072616973652061206469737075746500600082015250565b60006150ec601f836144cd565b91506150f7826150b6565b602082019050919050565b6000602082019050818103600083015261511b816150df565b9050919050565b600060a0820190506151376000830188614170565b615144602083018761484e565b615151604083018661484e565b818103606083015261516381856144de565b9050818103608083015261517781846144de565b90509695505050505050565b7f41677265656d656e74206973206e6f742070656e64696e670000000000000000600082015250565b60006151b96018836144cd565b91506151c482615183565b602082019050919050565b600060208201905081810360008301526151e8816151ac565b9050919050565b7f54656e616e7420686173206e6f7420417070726f766564207965740000000000600082015250565b6000615225601b836144cd565b9150615230826151ef565b602082019050919050565b6000602082019050818103600083015261525481615218565b9050919050565b7f41677265656d656e74206973207465726d696e61746564000000000000000000600082015250565b60006152916017836144cd565b915061529c8261525b565b602082019050919050565b600060208201905081810360008301526152c081615284565b9050919050565b7f41677265656d656e742068617320616c7265616479206265656e207465726d6960008201527f6e61746564000000000000000000000000000000000000000000000000000000602082015250565b60006153236025836144cd565b915061532e826152c7565b604082019050919050565b6000602082019050818103600083015261535281615316565b9050919050565b7f41677265656d656e74206973206e6f7420416374697665000000000000000000600082015250565b600061538f6017836144cd565b915061539a82615359565b602082019050919050565b600060208201905081810360008301526153be81615382565b9050919050565b7f41677265656d656e7420697320617070726f7665640000000000000000000000600082015250565b60006153fb6015836144cd565b9150615406826153c5565b602082019050919050565b6000602082019050818103600083015261542a816153ee565b9050919050565b7f53696d696c617220636f6e747261637420616c72656164792070656e64696e67600082015250565b60006154676020836144cd565b915061547282615431565b602082019050919050565b600060208201905081810360008301526154968161545a565b9050919050565b60006154a882614166565b91506154b383614166565b92508282026154c181614166565b915082820484148315176154d8576154d7614f67565b5b5092915050565b60006154ea82614166565b91506154f583614166565b925082820190508082111561550d5761550c614f67565b5b92915050565b600061551e82614166565b915061552983614166565b925082820390508181111561554157615540614f67565b5b92915050565b60006020601f8301049050919050565b600082821b905092915050565b6000600883026155947fffffffffffffffffffffffffffffffffffffffffffffffffffffffffffffffff82615557565b61559e8683615557565b95508019841693508086168417925050509392505050565b60006155d16155cc6155c784614166565b614a56565b614166565b9050919050565b6000819050919050565b6155eb836155b6565b6155ff6155f7826155d8565b848454615564565b825550505050565b600090565b615614615607565b61561f8184846155e2565b505050565b5b818110156156435761563860008261560c565b600181019050615625565b5050565b601f8211156156885761565981614eb8565b61566284615547565b81016020851015615671578190505b61568561567d85615547565b830182615624565b50505b505050565b600082821c905092915050565b60006156ab6000198460080261568d565b1980831691505092915050565b60006156c4838361569a565b9150826002028217905092915050565b6156dd826141b8565b67ffffffffffffffff8111156156f6576156f5613fcc565b5b6157008254614e87565b61570b828285615647565b600060209050601f83116001811461573e576000841561572c578287015190505b61573685826156b8565b86555061579e565b601f19841661574c86614eb8565b60005b828110156157745784890151825560018201915060208501945060208101905061574f565b86831015615791578489015161578d601f89168261569a565b8355505b6001600288020188555050505b505050505050565b600067ffffffffffffffff8211156157c1576157c0613fcc565b5b602082029050602081019050919050565b600080fd5b60006157ea6157e584614047565b61402c565b90508281526020810184848401111561580657615805613fb6565b5b6158118482856141d4565b509392505050565b600082601f83011261582e5761582d613fb1565b5b815161583e8482602086016157d7565b91505092915050565b600061585a615855846157a6565b61402c565b9050808382526020820190506020840283018581111561587d5761587c6157d2565b5b835b818110156158c457805167ffffffffffffffff8111156158a2576158a1613fb1565b5b8086016158af8982615819565b8552602085019450505060208101905061587f565b5050509392505050565b600082601f8301126158e3576158e2613fb1565b5b81516158f3848260208601615847565b91505092915050565b60006020828403121561591257615911613f49565b5b600082015167ffffffffffffffff8111156159305761592f613f4e565b5b61593c848285016158ce565b91505092915050565b600060408201905061595a6000830185614170565b818103602083015261596c81846144de565b90509392505050565b600067ffffffffffffffff8211156159905761598f613fcc565b5b602082029050602081019050919050565b600080fd5b600080fd5b6000815190506159ba81614539565b92915050565b6000815190506159cf81613f85565b92915050565b600281106159e257600080fd5b50565b6000815190506159f4816159d5565b92915050565b60006101008284031215615a1157615a106159a1565b5b615a1c61010061402c565b90506000615a2c848285016159ab565b6000830152506020615a40848285016159ab565b6020830152506040615a54848285016159c0565b6040830152506060615a68848285016159c0565b606083015250608082015167ffffffffffffffff811115615a8c57615a8b6159a6565b5b615a9884828501615819565b60808301525060a082015167ffffffffffffffff811115615abc57615abb6159a6565b5b615ac884828501615819565b60a08301525060c082015167ffffffffffffffff811115615aec57615aeb6159a6565b5b615af884828501615819565b60c08301525060e0615b0c848285016159e5565b60e08301525092915050565b6000615b2b615b2684615975565b61402c565b90508083825260208201905060208402830185811115615b4e57615b4d6157d2565b5b835b81811015615b9557805167ffffffffffffffff811115615b7357615b72613fb1565b5b808601615b8089826159fa565b85526020850194505050602081019050615b50565b5050509392505050565b600082601f830112615bb457615bb3613fb1565b5b8151615bc4848260208601615b18565b91505092915050565b600060208284031215615be357615be2613f49565b5b600082015167ffffffffffffffff811115615c0157615c00613f4e565b5b615c0d84828501615b9f565b91505092915050565b600060208284031215615c2c57615c2b613f49565b5b600082015167ffffffffffffffff811115615c4a57615c49613f4e565b5b615c56848285016159fa565b9150509291505056fea2646970667358221220f4148d12035f49de084549a2fe5e8477066079bc475a01f3dc329ccf382d822c64736f6c63430008130033",
  "immutableReferences": {},
  "source": "// SPDX-License-Identifier: MIT\r\npragma solidity ^0.8.19;\r\n\r\nimport \"./DisputeResolution.sol\";\r\nimport \"./DefaultTerms.sol\";\r\n\r\n\r\ncontract AgreementFactory {\r\n\r\n    enum AgreementStatus {\r\n        Pending,\r\n        Active,\r\n        Terminated\r\n    }\r\n\r\n    struct Contract {\r\n        uint256 ID;\r\n        address landlord;\r\n        address tenant;\r\n        uint256 rentAmount;\r\n        uint256 securityDeposit;\r\n        uint256 leaseDuration;\r\n        uint256 startDate;\r\n        uint256 terminationDate;\r\n        string propertyID; // New propertyID field\r\n        AgreementStatus status;\r\n        string[] terms; // Dynamic array of strings for terms\r\n        bool tenantApproved; // Tenant approval status\r\n        bool landlordApproved; // Landlord approval status\r\n    }\r\n\r\n    Contract[] public contractRegistry;\r\n    DisputeResolution public disputeResolutionContract;\r\n    DefaultTerms public defaultTermsContract;\r\n\r\n    constructor(DisputeResolution _disputeResolutionContract, DefaultTerms _defaultTermsContract) {\r\n        disputeResolutionContract = _disputeResolutionContract;\r\n        defaultTermsContract = _defaultTermsContract;\r\n    }\r\n\r\n        // ********************************************** Basic Contract Functions\r\n\r\n    function createRentalAgreement(\r\n        address _landlord,\r\n        address _tenant,\r\n        uint256 _rentAmount,\r\n        uint256 _securityDeposit,\r\n        uint256 _leaseDuration,\r\n        uint256 _startDate,\r\n        string memory _propertyID\r\n    ) external {\r\n        // Check if a similar contract already exists and is in a \"Pending\" status\r\n        for (uint i = 0; i < contractRegistry.length; i++) {\r\n            if (\r\n                contractRegistry[i].landlord == _landlord &&\r\n                contractRegistry[i].tenant == _tenant &&\r\n                keccak256(abi.encodePacked(contractRegistry[i].propertyID)) == keccak256(abi.encodePacked(_propertyID)) &&\r\n                contractRegistry[i].status == AgreementStatus.Pending\r\n            ) {\r\n                revert(\"Similar contract already pending\");\r\n            }\r\n            \r\n            if (contractRegistry[i].status == AgreementStatus.Terminated){\r\n\r\n                contractRegistry[i].rentAmount = _rentAmount;\r\n                contractRegistry[i].securityDeposit = _securityDeposit;\r\n                contractRegistry[i].leaseDuration = _leaseDuration;\r\n                contractRegistry[i].startDate = _startDate;\r\n                contractRegistry[i].terminationDate = _startDate + (_leaseDuration * 30 days);\r\n                contractRegistry[i].status = AgreementStatus.Pending;\r\n                contractRegistry[i].tenantApproved = false;\r\n                contractRegistry[i].landlordApproved = false;                \r\n                return;\r\n            }\r\n        }\r\n\r\n        Contract storage newAgreement = contractRegistry.push(); // Use 'storage' to directly modify state variable\r\n        newAgreement.ID = contractRegistry.length - 1;\r\n        newAgreement.landlord = _landlord;\r\n        newAgreement.tenant = _tenant;\r\n        newAgreement.rentAmount = _rentAmount;\r\n        newAgreement.securityDeposit = _securityDeposit;\r\n        newAgreement.leaseDuration = _leaseDuration;\r\n        newAgreement.startDate = _startDate;\r\n        newAgreement.terminationDate = _startDate + (_leaseDuration * 30 days);\r\n        newAgreement.propertyID = _propertyID; // Set the propertyID\r\n        newAgreement.status = AgreementStatus.Pending;\r\n        newAgreement.tenantApproved = false;\r\n        newAgreement.landlordApproved = false;\r\n        // Get default terms from DefaultTerms contract\r\n        newAgreement.terms = defaultTermsContract.getDefaultTerms();\r\n    }\r\n\r\nfunction approveAgreement(address _tenant, address _landlord, string memory _propertyID) external {\r\n    for (uint i = 0; i < contractRegistry.length; i++) {\r\n        if (\r\n            contractRegistry[i].tenant == _tenant &&\r\n            contractRegistry[i].landlord == _landlord &&\r\n            keccak256(abi.encodePacked(contractRegistry[i].propertyID)) == keccak256(abi.encodePacked(_propertyID))\r\n        ) {\r\n            require(\r\n                contractRegistry[i].status == AgreementStatus.Pending,\r\n                \"Agreement is not pending\"\r\n            );\r\n\r\n            if (msg.sender == _tenant) {\r\n                contractRegistry[i].tenantApproved = true;\r\n            }\r\n\r\n            if (msg.sender == _landlord) {\r\n                require(\r\n                    contractRegistry[i].tenantApproved == true,\r\n                    \"Tenant has not Approved yet\"\r\n                );\r\n                contractRegistry[i].landlordApproved = true;\r\n            }\r\n\r\n            if (contractRegistry[i].landlordApproved && contractRegistry[i].tenantApproved) {\r\n                // Check if the agreement is not terminated\r\n                require(\r\n                    contractRegistry[i].status != AgreementStatus.Terminated,\r\n                    \"Agreement is terminated\"\r\n                );\r\n\r\n                contractRegistry[i].status = AgreementStatus.Active;\r\n            }\r\n            break;\r\n        }\r\n    }\r\n}\r\n\r\n    function disapproveAgreement(address _tenant, address _landlord, string memory _propertyID) external {\r\n        for (uint i = 0; i < contractRegistry.length; i++) {\r\n            if (\r\n                contractRegistry[i].tenant == _tenant &&\r\n                contractRegistry[i].landlord == _landlord &&\r\n                keccak256(abi.encodePacked(contractRegistry[i].propertyID)) == keccak256(abi.encodePacked(_propertyID))\r\n            ) {\r\n                require(\r\n                    contractRegistry[i].status == AgreementStatus.Pending,\r\n                    \"Agreement is not pending\"\r\n                );\r\n                require(\r\n                    contractRegistry[i].status != AgreementStatus.Active,\r\n                    \"Agreement is approved\"\r\n                );\r\n                require(\r\n                    contractRegistry[i].status != AgreementStatus.Terminated,\r\n                    \"Agreement is terminated\"\r\n                );\r\n                contractRegistry[i].status = AgreementStatus.Terminated;\r\n                break;\r\n            }\r\n        }\r\n    }\r\n\r\n    function terminateAgreement(address _tenant, address _landlord, string memory _propertyID) external {\r\n        for (uint i = 0; i < contractRegistry.length; i++) {\r\n            if (\r\n                contractRegistry[i].tenant == _tenant &&\r\n                contractRegistry[i].landlord == _landlord &&\r\n                keccak256(abi.encodePacked(contractRegistry[i].propertyID)) == keccak256(abi.encodePacked(_propertyID)) &&\r\n                contractRegistry[i].status != AgreementStatus.Terminated\r\n       ) {\r\n                require(\r\n                    contractRegistry[i].status != AgreementStatus.Terminated,\r\n                    \"Agreement has already been terminated\"\r\n                );\r\n                require(\r\n                    contractRegistry[i].status == AgreementStatus.Active,\r\n                    \"Agreement is not Active\"\r\n                );\r\n                contractRegistry[i].status = AgreementStatus.Terminated;\r\n                break;\r\n            }\r\n        }\r\n    }\r\n\r\n    // ********************************************** Dispute Resolution Functions\r\n\r\n    function raiseDispute(\r\n        uint256 _agreementID,\r\n        string memory _title,\r\n        string memory _reason\r\n    ) external {\r\n        require(_agreementID < contractRegistry.length, \"Invalid agreement ID\");\r\n        require(\r\n            contractRegistry[_agreementID].tenant == msg.sender,\r\n            \"Only tenant can raise a dispute\"\r\n        );\r\n\r\n        disputeResolutionContract.raiseDispute(\r\n            _agreementID,\r\n            contractRegistry[_agreementID].tenant,\r\n            contractRegistry[_agreementID].landlord,\r\n            _title,\r\n            _reason\r\n        );\r\n    }\r\n\r\n    function resolveDispute(\r\n        uint256 _disputeID,\r\n        string memory _resolution\r\n    ) external {\r\n        disputeResolutionContract.resolveDispute(_disputeID, _resolution);\r\n    }\r\n\r\n    // ********************************************** Getter Functions\r\n\r\n    // Getter function for contractRegistry length\r\n\r\n    function getContractID(\r\n        address _tenant,\r\n        address _landlord,\r\n        string memory _propertyID\r\n    ) external view returns (uint256) {\r\n        for (uint i = 0; i < contractRegistry.length; i++) {\r\n            if (\r\n                contractRegistry[i].tenant == _tenant &&\r\n                contractRegistry[i].landlord == _landlord &&\r\n                keccak256(abi.encodePacked(contractRegistry[i].propertyID)) == keccak256(abi.encodePacked(_propertyID))\r\n            ) {\r\n                return contractRegistry[i].ID;\r\n            }\r\n        }\r\n        revert(\"Contract not found\");\r\n    }\r\n\r\n    function getContractRentAmount(\r\n        address _tenant,\r\n        address _landlord,\r\n        string memory _propertyID\r\n    ) external view returns (uint256) {\r\n        for (uint i = 0; i < contractRegistry.length; i++) {\r\n            if (\r\n                contractRegistry[i].tenant == _tenant &&\r\n                contractRegistry[i].landlord == _landlord &&\r\n                keccak256(abi.encodePacked(contractRegistry[i].propertyID)) == keccak256(abi.encodePacked(_propertyID))\r\n            ) {\r\n                return contractRegistry[i].rentAmount;\r\n            }\r\n        }\r\n        revert(\"Contract not found\");\r\n    }\r\n\r\n    function getContractSecurityDeposit(\r\n        address _tenant,\r\n        address _landlord,\r\n        string memory _propertyID\r\n    ) external view returns (uint256) {\r\n        for (uint i = 0; i < contractRegistry.length; i++) {\r\n            if (\r\n                contractRegistry[i].tenant == _tenant &&\r\n                contractRegistry[i].landlord == _landlord &&\r\n                keccak256(abi.encodePacked(contractRegistry[i].propertyID)) == keccak256(abi.encodePacked(_propertyID))\r\n            ) {\r\n                return contractRegistry[i].securityDeposit;\r\n            }\r\n        }\r\n        revert(\"Contract not found\");\r\n    }\r\n    function getContractLeaseDuration(\r\n        address _tenant,\r\n        address _landlord,\r\n        string memory _propertyID\r\n    ) external view returns (uint256) {\r\n        for (uint i = 0; i < contractRegistry.length; i++) {\r\n            if (\r\n                contractRegistry[i].tenant == _tenant &&\r\n                contractRegistry[i].landlord == _landlord &&\r\n                keccak256(abi.encodePacked(contractRegistry[i].propertyID)) == keccak256(abi.encodePacked(_propertyID))\r\n            ) {\r\n                return contractRegistry[i].leaseDuration;\r\n            }\r\n        }\r\n        revert(\"Contract not found\");\r\n    }\r\n    function getContractStartDate(\r\n        address _tenant,\r\n        address _landlord,\r\n        string memory _propertyID\r\n    ) external view returns (uint256) {\r\n        for (uint i = 0; i < contractRegistry.length; i++) {\r\n            if (\r\n                contractRegistry[i].tenant == _tenant &&\r\n                contractRegistry[i].landlord == _landlord &&\r\n                keccak256(abi.encodePacked(contractRegistry[i].propertyID)) == keccak256(abi.encodePacked(_propertyID))\r\n            ) {\r\n                return contractRegistry[i].startDate;\r\n            }\r\n        }\r\n        revert(\"Contract not found\");\r\n    }\r\n\r\n    function getContractTerminationDate(\r\n        address _tenant,\r\n        address _landlord,\r\n        string memory _propertyID\r\n    ) external view returns (uint256) {\r\n        for (uint i = 0; i < contractRegistry.length; i++) {\r\n            if (\r\n                contractRegistry[i].tenant == _tenant &&\r\n                contractRegistry[i].landlord == _landlord &&\r\n                keccak256(abi.encodePacked(contractRegistry[i].propertyID)) == keccak256(abi.encodePacked(_propertyID))\r\n            ) {\r\n                return contractRegistry[i].terminationDate;\r\n            }\r\n        }\r\n        revert(\"Contract not found\");\r\n    }\r\n    \r\n    function getContractPropertyID(\r\n        address _tenant,\r\n        address _landlord,\r\n        string memory _propertyID\r\n    ) external view returns (string memory) {\r\n        for (uint i = 0; i < contractRegistry.length; i++) {\r\n            if (\r\n                contractRegistry[i].tenant == _tenant &&\r\n                contractRegistry[i].landlord == _landlord &&\r\n                keccak256(abi.encodePacked(contractRegistry[i].propertyID)) == keccak256(abi.encodePacked(_propertyID))\r\n            ) {\r\n                return contractRegistry[i].propertyID;\r\n            }\r\n        }\r\n        revert(\"Contract not found\");\r\n    }\r\n    function getContractStatus(\r\n        address _tenant,\r\n        address _landlord,\r\n        string memory _propertyID\r\n    ) external view returns (string memory) {\r\n        for (uint i = 0; i < contractRegistry.length; i++) {\r\n            if (\r\n                contractRegistry[i].tenant == _tenant &&\r\n                contractRegistry[i].landlord == _landlord &&\r\n                keccak256(abi.encodePacked(contractRegistry[i].propertyID)) == keccak256(abi.encodePacked(_propertyID))\r\n            ) {\r\n                if (contractRegistry[i].status == AgreementStatus.Pending) {\r\n                    return \"Pending\";\r\n                } else if (\r\n                    contractRegistry[i].status == AgreementStatus.Active\r\n                ) {\r\n                    return \"Active\";\r\n                } else if (\r\n                    contractRegistry[i].status == AgreementStatus.Terminated\r\n                ) {\r\n                    return \"Terminated\";\r\n                } else {\r\n                    return \"Error\";\r\n                }\r\n            }\r\n        }\r\n        revert(\"Contract not found\");\r\n    }\r\n\r\n    function getContractDetails(\r\n        address _tenant,\r\n        address _landlord,\r\n        string memory _propertyID\r\n    ) external view returns (Contract memory) {\r\n        for (uint i = 0; i < contractRegistry.length; i++) {\r\n            if (\r\n                contractRegistry[i].tenant == _tenant &&\r\n                contractRegistry[i].landlord == _landlord &&\r\n                keccak256(abi.encodePacked(contractRegistry[i].propertyID)) == keccak256(abi.encodePacked(_propertyID))\r\n            ) {\r\n                return contractRegistry[i];\r\n            }\r\n        }\r\n        revert(\"Contract not found\");\r\n    }\r\n\r\n    function getDisputeDetails(\r\n        uint256 _disputeID\r\n    ) external view returns (DisputeResolution.Dispute memory) {\r\n        return disputeResolutionContract.getDisputeDetails(_disputeID);\r\n    }\r\n\r\n    function getAllDisputes(\r\n        uint256 _agreementID\r\n    ) external view returns (DisputeResolution.Dispute[] memory) {\r\n        return disputeResolutionContract.getDisputesForAgreement(_agreementID);\r\n    }\r\n\r\n    // ********************************************** Registry Functions\r\n\r\n    function getContractRegistryLength() external view returns (uint256) {\r\n        return contractRegistry.length;\r\n    }\r\n\r\nfunction getLandlordsContracts(address _landlordAddress) external view returns (Contract[] memory) {\r\n    Contract[] memory result = new Contract[](contractRegistry.length);\r\n    uint256 counter = 0;\r\n\r\n    for (uint256 i = 0; i < contractRegistry.length; i++) {\r\n        if (contractRegistry[i].landlord == _landlordAddress) {\r\n            result[counter] = contractRegistry[i];\r\n            counter++;\r\n        }\r\n    }\r\n\r\n    // Resize the result array to remove any empty elements\r\n    assembly {\r\n        mstore(result, counter)\r\n    }\r\n\r\n    return result;\r\n}\r\n\r\nfunction getTenantsContracts(address _tenantAddress) external view returns (Contract[] memory) {\r\n    Contract[] memory result = new Contract[](contractRegistry.length);\r\n    uint256 counter = 0;\r\n\r\n    for (uint256 i = 0; i < contractRegistry.length; i++) {\r\n        if (contractRegistry[i].tenant == _tenantAddress) {\r\n            result[counter] = contractRegistry[i];\r\n            counter++;\r\n        }\r\n    }\r\n\r\n    // Resize the result array to remove any empty elements\r\n    assembly {\r\n        mstore(result, counter)\r\n    }\r\n\r\n    return result;\r\n}\r\n\r\n    // function getContractsByAddress(address _address) external view returns (Contract[] memory) {\r\n    //     Contract[] memory result = new Contract[](contractRegistry.length);\r\n    //     uint256 counter = 0;\r\n\r\n    //     for (uint256 i = 0; i < contractRegistry.length; i++) {\r\n    //         if (contractRegistry[i].landlord == _address || contractRegistry[i].tenant == _address) {\r\n    //             result[counter] = contractRegistry[i];\r\n    //             counter++;\r\n    //         }\r\n    //     }\r\n\r\n    //     return result;\r\n    // }\r\n\r\n    //     function getRegistryDetails() external view returns (Contract[] memory) {\r\n    //     Contract[] memory result = new Contract[](contractRegistry.length);\r\n\r\n    //     for (uint256 i = 0; i < contractRegistry.length; i++) {\r\n    //         result[i] = Contract({\r\n    //             ID: contractRegistry[i].ID,\r\n    //             landlord: contractRegistry[i].landlord,\r\n    //             tenant: contractRegistry[i].tenant,\r\n    //             rentAmount: contractRegistry[i].rentAmount,\r\n    //             securityDeposit: contractRegistry[i].securityDeposit,\r\n    //             leaseDuration: contractRegistry[i].leaseDuration,\r\n    //             startDate: contractRegistry[i].startDate,\r\n    //             terminationDate: contractRegistry[i].terminationDate,\r\n    //             propertyID: contractRegistry[i].propertyID,\r\n    //             status: contractRegistry[i].status,\r\n    //             terms: contractRegistry[i].terms,\r\n    //             tenantApproved: contractRegistry[i].tenantApproved,\r\n    //             landlordApproved: contractRegistry[i].landlordApproved\r\n    //         });\r\n    //     }\r\n\r\n    //     return result;\r\n    // }\r\n}\r\n",
  "sourcePath": "C:\\Users\\usman\\OneDrive\\Documents\\FYO\\TranspaRent FYP2\\TranspaRent_v2\\TranspaRent_v2\\Blockchain\\contracts\\AgreementFactory.sol",
  "compiler": {
    "name": "solc",
    "version": "0.8.19+commit.7dd6d404.Emscripten.clang"
  },
  "schemaVersion": "3.4.16",
  "updatedAt": "2024-03-29T02:47:44.848Z",
  "networkType": "ethereum",
  "devdoc": {
    "kind": "dev",
    "methods": {},
    "version": 1
  },
  "userdoc": {
    "kind": "user",
    "methods": {},
    "version": 1
  }
}