{
  "contractName": "AgreementFactory",
  "abi": [
    {
      "inputs": [
        {
          "internalType": "contract DisputeResolution",
          "name": "_disputeResolutionContract",
          "type": "address"
        },
        {
          "internalType": "contract DefaultTerms",
          "name": "_defaultTermsContract",
          "type": "address"
        }
      ],
      "stateMutability": "nonpayable",
      "type": "constructor"
    },
    {
      "inputs": [
        {
          "internalType": "uint256",
          "name": "",
          "type": "uint256"
        }
      ],
      "name": "contractRegistry",
      "outputs": [
        {
          "internalType": "uint256",
          "name": "ID",
          "type": "uint256"
        },
        {
          "internalType": "address",
          "name": "landlord",
          "type": "address"
        },
        {
          "internalType": "address",
          "name": "tenant",
          "type": "address"
        },
        {
          "internalType": "string",
          "name": "landlordUsername",
          "type": "string"
        },
        {
          "internalType": "string",
          "name": "tenantUsername",
          "type": "string"
        },
        {
          "internalType": "uint256",
          "name": "rentAmount",
          "type": "uint256"
        },
        {
          "internalType": "uint256",
          "name": "securityDeposit",
          "type": "uint256"
        },
        {
          "internalType": "uint256",
          "name": "leaseDuration",
          "type": "uint256"
        },
        {
          "internalType": "uint256",
          "name": "startDate",
          "type": "uint256"
        },
        {
          "internalType": "uint256",
          "name": "terminationDate",
          "type": "uint256"
        },
        {
          "internalType": "string",
          "name": "propertyID",
          "type": "string"
        },
        {
          "internalType": "enum AgreementFactory.AgreementStatus",
          "name": "status",
          "type": "uint8"
        },
        {
          "internalType": "bool",
          "name": "tenantApproved",
          "type": "bool"
        },
        {
          "internalType": "bool",
          "name": "landlordApproved",
          "type": "bool"
        }
      ],
      "stateMutability": "view",
      "type": "function",
      "constant": true
    },
    {
      "inputs": [],
      "name": "defaultTermsContract",
      "outputs": [
        {
          "internalType": "contract DefaultTerms",
          "name": "",
          "type": "address"
        }
      ],
      "stateMutability": "view",
      "type": "function",
      "constant": true
    },
    {
      "inputs": [],
      "name": "disputeResolutionContract",
      "outputs": [
        {
          "internalType": "contract DisputeResolution",
          "name": "",
          "type": "address"
        }
      ],
      "stateMutability": "view",
      "type": "function",
      "constant": true
    },
    {
      "inputs": [
        {
          "internalType": "address",
          "name": "_landlord",
          "type": "address"
        },
        {
          "internalType": "address",
          "name": "_tenant",
          "type": "address"
        },
        {
          "internalType": "string",
          "name": "_landlordUsername",
          "type": "string"
        },
        {
          "internalType": "string",
          "name": "_tenantUsername",
          "type": "string"
        },
        {
          "internalType": "uint256",
          "name": "_rentAmount",
          "type": "uint256"
        },
        {
          "internalType": "uint256",
          "name": "_securityDeposit",
          "type": "uint256"
        },
        {
          "internalType": "uint256",
          "name": "_leaseDuration",
          "type": "uint256"
        },
        {
          "internalType": "uint256",
          "name": "_startDate",
          "type": "uint256"
        },
        {
          "internalType": "string",
          "name": "_propertyID",
          "type": "string"
        }
      ],
      "name": "createRentalAgreement",
      "outputs": [],
      "stateMutability": "nonpayable",
      "type": "function"
    },
    {
      "inputs": [
        {
          "internalType": "address",
          "name": "_tenant",
          "type": "address"
        },
        {
          "internalType": "address",
          "name": "_landlord",
          "type": "address"
        },
        {
          "internalType": "string",
          "name": "_propertyID",
          "type": "string"
        }
      ],
      "name": "approveAgreement",
      "outputs": [],
      "stateMutability": "nonpayable",
      "type": "function"
    },
    {
      "inputs": [
        {
          "internalType": "address",
          "name": "_tenant",
          "type": "address"
        },
        {
          "internalType": "address",
          "name": "_landlord",
          "type": "address"
        },
        {
          "internalType": "string",
          "name": "_propertyID",
          "type": "string"
        }
      ],
      "name": "disapproveAgreement",
      "outputs": [],
      "stateMutability": "nonpayable",
      "type": "function"
    },
    {
      "inputs": [
        {
          "internalType": "address",
          "name": "_tenant",
          "type": "address"
        },
        {
          "internalType": "address",
          "name": "_landlord",
          "type": "address"
        },
        {
          "internalType": "string",
          "name": "_propertyID",
          "type": "string"
        }
      ],
      "name": "terminateAgreement",
      "outputs": [],
      "stateMutability": "nonpayable",
      "type": "function"
    },
    {
      "inputs": [
        {
          "internalType": "uint256",
          "name": "_agreementID",
          "type": "uint256"
        },
        {
          "internalType": "string",
          "name": "_title",
          "type": "string"
        },
        {
          "internalType": "string",
          "name": "_reason",
          "type": "string"
        }
      ],
      "name": "raiseDispute",
      "outputs": [],
      "stateMutability": "nonpayable",
      "type": "function"
    },
    {
      "inputs": [
        {
          "internalType": "uint256",
          "name": "_disputeID",
          "type": "uint256"
        },
        {
          "internalType": "string",
          "name": "_resolution",
          "type": "string"
        }
      ],
      "name": "resolveDispute",
      "outputs": [],
      "stateMutability": "nonpayable",
      "type": "function"
    },
    {
      "inputs": [
        {
          "internalType": "address",
          "name": "_tenant",
          "type": "address"
        },
        {
          "internalType": "address",
          "name": "_landlord",
          "type": "address"
        },
        {
          "internalType": "string",
          "name": "_propertyID",
          "type": "string"
        }
      ],
      "name": "getContractID",
      "outputs": [
        {
          "internalType": "uint256",
          "name": "",
          "type": "uint256"
        }
      ],
      "stateMutability": "view",
      "type": "function",
      "constant": true
    },
    {
      "inputs": [
        {
          "internalType": "address",
          "name": "_tenant",
          "type": "address"
        },
        {
          "internalType": "address",
          "name": "_landlord",
          "type": "address"
        },
        {
          "internalType": "string",
          "name": "_propertyID",
          "type": "string"
        }
      ],
      "name": "getContractDetails",
      "outputs": [
        {
          "components": [
            {
              "internalType": "uint256",
              "name": "ID",
              "type": "uint256"
            },
            {
              "internalType": "address",
              "name": "landlord",
              "type": "address"
            },
            {
              "internalType": "address",
              "name": "tenant",
              "type": "address"
            },
            {
              "internalType": "string",
              "name": "landlordUsername",
              "type": "string"
            },
            {
              "internalType": "string",
              "name": "tenantUsername",
              "type": "string"
            },
            {
              "internalType": "uint256",
              "name": "rentAmount",
              "type": "uint256"
            },
            {
              "internalType": "uint256",
              "name": "securityDeposit",
              "type": "uint256"
            },
            {
              "internalType": "uint256",
              "name": "leaseDuration",
              "type": "uint256"
            },
            {
              "internalType": "uint256",
              "name": "startDate",
              "type": "uint256"
            },
            {
              "internalType": "uint256",
              "name": "terminationDate",
              "type": "uint256"
            },
            {
              "internalType": "string",
              "name": "propertyID",
              "type": "string"
            },
            {
              "internalType": "enum AgreementFactory.AgreementStatus",
              "name": "status",
              "type": "uint8"
            },
            {
              "internalType": "string[]",
              "name": "terms",
              "type": "string[]"
            },
            {
              "internalType": "bool",
              "name": "tenantApproved",
              "type": "bool"
            },
            {
              "internalType": "bool",
              "name": "landlordApproved",
              "type": "bool"
            }
          ],
          "internalType": "struct AgreementFactory.Contract",
          "name": "",
          "type": "tuple"
        }
      ],
      "stateMutability": "view",
      "type": "function",
      "constant": true
    },
    {
      "inputs": [
        {
          "internalType": "uint256",
          "name": "_disputeID",
          "type": "uint256"
        }
      ],
      "name": "getDisputeDetails",
      "outputs": [
        {
          "components": [
            {
              "internalType": "uint256",
              "name": "ID",
              "type": "uint256"
            },
            {
              "internalType": "uint256",
              "name": "agreementID",
              "type": "uint256"
            },
            {
              "internalType": "address",
              "name": "tenant",
              "type": "address"
            },
            {
              "internalType": "address",
              "name": "landlord",
              "type": "address"
            },
            {
              "internalType": "string",
              "name": "title",
              "type": "string"
            },
            {
              "internalType": "string",
              "name": "reason",
              "type": "string"
            },
            {
              "internalType": "string",
              "name": "resolution",
              "type": "string"
            },
            {
              "internalType": "enum DisputeResolution.DisputeStatus",
              "name": "status",
              "type": "uint8"
            }
          ],
          "internalType": "struct DisputeResolution.Dispute",
          "name": "",
          "type": "tuple"
        }
      ],
      "stateMutability": "view",
      "type": "function",
      "constant": true
    },
    {
      "inputs": [
        {
          "internalType": "uint256",
          "name": "_agreementID",
          "type": "uint256"
        }
      ],
      "name": "getAllDisputes",
      "outputs": [
        {
          "components": [
            {
              "internalType": "uint256",
              "name": "ID",
              "type": "uint256"
            },
            {
              "internalType": "uint256",
              "name": "agreementID",
              "type": "uint256"
            },
            {
              "internalType": "address",
              "name": "tenant",
              "type": "address"
            },
            {
              "internalType": "address",
              "name": "landlord",
              "type": "address"
            },
            {
              "internalType": "string",
              "name": "title",
              "type": "string"
            },
            {
              "internalType": "string",
              "name": "reason",
              "type": "string"
            },
            {
              "internalType": "string",
              "name": "resolution",
              "type": "string"
            },
            {
              "internalType": "enum DisputeResolution.DisputeStatus",
              "name": "status",
              "type": "uint8"
            }
          ],
          "internalType": "struct DisputeResolution.Dispute[]",
          "name": "",
          "type": "tuple[]"
        }
      ],
      "stateMutability": "view",
      "type": "function",
      "constant": true
    },
    {
      "inputs": [
        {
          "internalType": "address",
          "name": "_landlordAddress",
          "type": "address"
        }
      ],
      "name": "getLandlordsContracts",
      "outputs": [
        {
          "components": [
            {
              "internalType": "uint256",
              "name": "ID",
              "type": "uint256"
            },
            {
              "internalType": "address",
              "name": "landlord",
              "type": "address"
            },
            {
              "internalType": "address",
              "name": "tenant",
              "type": "address"
            },
            {
              "internalType": "string",
              "name": "landlordUsername",
              "type": "string"
            },
            {
              "internalType": "string",
              "name": "tenantUsername",
              "type": "string"
            },
            {
              "internalType": "uint256",
              "name": "rentAmount",
              "type": "uint256"
            },
            {
              "internalType": "uint256",
              "name": "securityDeposit",
              "type": "uint256"
            },
            {
              "internalType": "uint256",
              "name": "leaseDuration",
              "type": "uint256"
            },
            {
              "internalType": "uint256",
              "name": "startDate",
              "type": "uint256"
            },
            {
              "internalType": "uint256",
              "name": "terminationDate",
              "type": "uint256"
            },
            {
              "internalType": "string",
              "name": "propertyID",
              "type": "string"
            },
            {
              "internalType": "enum AgreementFactory.AgreementStatus",
              "name": "status",
              "type": "uint8"
            },
            {
              "internalType": "string[]",
              "name": "terms",
              "type": "string[]"
            },
            {
              "internalType": "bool",
              "name": "tenantApproved",
              "type": "bool"
            },
            {
              "internalType": "bool",
              "name": "landlordApproved",
              "type": "bool"
            }
          ],
          "internalType": "struct AgreementFactory.Contract[]",
          "name": "",
          "type": "tuple[]"
        }
      ],
      "stateMutability": "view",
      "type": "function",
      "constant": true
    },
    {
      "inputs": [
        {
          "internalType": "address",
          "name": "_tenantAddress",
          "type": "address"
        }
      ],
      "name": "getTenantsContracts",
      "outputs": [
        {
          "components": [
            {
              "internalType": "uint256",
              "name": "ID",
              "type": "uint256"
            },
            {
              "internalType": "address",
              "name": "landlord",
              "type": "address"
            },
            {
              "internalType": "address",
              "name": "tenant",
              "type": "address"
            },
            {
              "internalType": "string",
              "name": "landlordUsername",
              "type": "string"
            },
            {
              "internalType": "string",
              "name": "tenantUsername",
              "type": "string"
            },
            {
              "internalType": "uint256",
              "name": "rentAmount",
              "type": "uint256"
            },
            {
              "internalType": "uint256",
              "name": "securityDeposit",
              "type": "uint256"
            },
            {
              "internalType": "uint256",
              "name": "leaseDuration",
              "type": "uint256"
            },
            {
              "internalType": "uint256",
              "name": "startDate",
              "type": "uint256"
            },
            {
              "internalType": "uint256",
              "name": "terminationDate",
              "type": "uint256"
            },
            {
              "internalType": "string",
              "name": "propertyID",
              "type": "string"
            },
            {
              "internalType": "enum AgreementFactory.AgreementStatus",
              "name": "status",
              "type": "uint8"
            },
            {
              "internalType": "string[]",
              "name": "terms",
              "type": "string[]"
            },
            {
              "internalType": "bool",
              "name": "tenantApproved",
              "type": "bool"
            },
            {
              "internalType": "bool",
              "name": "landlordApproved",
              "type": "bool"
            }
          ],
          "internalType": "struct AgreementFactory.Contract[]",
          "name": "",
          "type": "tuple[]"
        }
      ],
      "stateMutability": "view",
      "type": "function",
      "constant": true
    }
  ],
  "bytecode": "0x60803461008a57601f6123d838819003918201601f19168301916001600160401b0383118484101761008f57808492604094855283398101031261008a5780516001600160a01b03918282169182900361008a576020015191821680920361008a5760018060a01b031990816001541617600155600254161760025560405161233290816100a68239f35b600080fd5b634e487b7160e01b600052604160045260246000fdfe6080604052600436101561001257600080fd5b60003560e01c80632b0b9d99146101075780635b982d2f1461010257806369bf9753146100fd5780636d9a5acc146100f85780638a46c9d8146100f3578063951113a9146100ee578063a10b29b7146100e9578063a84b8162146100e4578063b110205a146100df578063cf51b45d146100da578063da997b27146100d5578063e2bc6cca146100d0578063ea89735d146100cb578063f3279e82146100c65763f46f96b2146100c157600080fd5b6112e7565b611256565b61118e565b611063565b610f42565b610e99565b610dda565b610b59565b610a4a565b610994565b610911565b6107a6565b610599565b610475565b610443565b6001600160a01b0381160361011d57565b600080fd5b6004359061012f8261010c565b565b6024359061012f8261010c565b634e487b7160e01b600052604160045260246000fd5b6001600160401b03811161016757604052565b61013e565b61010081019081106001600160401b0382111761016757604052565b90601f801991011681019081106001600160401b0382111761016757604052565b604051906101e082018281106001600160401b0382111761016757604052565b6040519061012f8261016c565b6001600160401b03811161016757601f01601f191660200190565b81601f8201121561011d57803590610208826101d6565b926102166040519485610188565b8284526020838301011161011d57816000926020809301838601378301015290565b606060031982011261011d576004356102508161010c565b9160243561025d8161010c565b91604435906001600160401b03821161011d5761027c916004016101f1565b90565b60005b8381106102925750506000910152565b8181015183820152602001610282565b906020916102bb8151809281855285808601910161027f565b601f01601f1916010190565b634e487b7160e01b600052602160045260246000fd5b600311156102e757565b6102c7565b9060038210156102e75752565b908082519081815260208091019281808460051b8301019501936000915b8483106103275750505050505090565b9091929394958480610345600193601f198682030187528a516102a2565b9801930193019194939290610317565b805182526020808201516001600160a01b0316908301529061027c906040838101516001600160a01b0316908201526104276104006103b86103a660608701516101e08060608801528601906102a2565b608087015185820360808701526102a2565b60a086015160a085015260c086015160c085015260e086015160e0850152610100808701519085015261012080870151908501526101408087015190858303908601526102a2565b61041361016080870151908501906102ec565b6101808086015190848303908501526102f9565b6101a080850151151590830152926101c0908101511515910152565b3461011d5761047161045d61045736610238565b916120b1565b604051918291602083526020830190610355565b0390f35b3461011d57606036600319011261011d576004356001600160401b0360243581811161011d576104a99036906004016101f1565b9060443590811161011d576104c29036906004016101f1565b60009283916104d383548310611d00565b6105036104f360026104e485610c04565b5001546001600160a01b031690565b6001600160a01b03163314611d43565b600154610520906001600160a01b03165b6001600160a01b031690565b9061052f60026104e485610c04565b9061053e60016104e486610c04565b93833b15610595576105688692604051988997889687956395fdbdfb60e01b875260048701611d8f565b03925af180156105905761057a575080f35b8061058761058d92610154565b80610f37565b80f35b61166e565b8580fd5b3461011d576105a736610238565b60009291835b845481101561079f576105bf81610c04565b506002908101546001600160a01b0386811692918116831480610785575b8061071f575b6105f8575050506105f390611326565b6105ad565b9295509093509161060885610c04565b509361062b61061c600b8097015460ff1690565b610625816102dd565b15611b32565b331461070c575b1633146106c4575b61064383610c04565b50600d9081015460081c60ff1690816106b0575b50610663575b50505080f35b82610694610699926106848561067b6106a898610c04565b50015460ff1690565b61068d816102dd565b1415611bca565b610c04565b5001805460ff19166001179055565b38808061065d565b6106be915061067b85610c04565b38610657565b6107076106d084610c04565b506106ed60016106e5600d8094015460ff1690565b151514611b7e565b6106f685610c04565b5001805461ff001916610100179055565b61063a565b61071a600d61069987610c04565b610632565b5061072984610c04565b5060409081519061077c600a836107486020948583019384910161133a565b039361075c601f1995868101835282610188565b51902093519182019282610770858d6113bd565b03908101835282610188565b519020146105e3565b5061079460016104e486610c04565b8116858216146105dd565b5050505080f35b3461011d576107b436610238565b90600092835b845481101561079f576107cc81610c04565b506002908101546001600160a01b03166001600160a01b039081168482161490816108f5575b508061089b575b8061087b575b610812575061080d90611326565b6107ba565b925061058d935061086c915061084b61082a82610c04565b509361083b600b8096015460ff1690565b610844816102dd565b1415611c5a565b610694600161085d8561067b85610c04565b610866816102dd565b14611cb4565b5001805460ff19166002179055565b508061088b600b61067b85610c04565b610894816102dd565b14156107ff565b506108a582610c04565b506040908151906108ec600a836108c46020948583019384910161133a565b03936108d8601f1995868101835282610188565b51902093519182019282610770858c6113bd565b519020146107f9565b905061090560016104e485610c04565b811690851614386107f2565b3461011d57602061092a61092436610238565b91611dd2565b604051908152f35b602080820190808352835180925260408301928160408460051b8301019501936000915b8483106109665750505050505090565b9091929394958480610984600193603f198682030187528a51610355565b9801930193019194939290610956565b3461011d57602036600319011261011d576004356109b18161010c565b600054906109be82612298565b906000906001600160a01b0390811690825b8581106109e857838552604051806104718782610932565b828260026109f584610c04565b5001541614610a0d575b610a0890611326565b6109d0565b92610a42610a0891610a27610a2187610c04565b50611fc6565b610a3182896122e8565b52610a3c81886122e8565b50611326565b9390506109ff565b3461011d57610a5836610238565b90600092835b845481101561079f57610a7081610c04565b506002908101546001600160a01b03166001600160a01b03908116848216149081610b3d575b5080610b0b575b610ab05750610aab90611326565b610a5e565b925061058d935061086c9150610694610ac882610c04565b5093610adc61061c600b8097015460ff1690565b610afe6001610aee8761067b87610c04565b610af7816102dd565b1415611c16565b6106848561067b85610c04565b50610b1582610c04565b50604090815190610b34600a836108c46020948583019384910161133a565b51902014610a9d565b9050610b4d60016104e485610c04565b81169085161438610a96565b3461011d57602036600319011261011d57600435610b768161010c565b60005490610b8382612298565b906000906001600160a01b0390811690825b858110610bad57838552604051806104718782610932565b82826001610bba84610c04565b5001541614610bd2575b610bcd90611326565b610b95565b92610be6610bcd91610a27610a2187610c04565b939050610bc4565b634e487b7160e01b600052603260045260246000fd5b600054811015610c3e57600e9060008052027f290decd9548b62a8d60345a988386fc84ba6bc95484008f6362f93160ef3e5630190600090565b610bee565b90600182811c92168015610c73575b6020831014610c5d57565b634e487b7160e01b600052602260045260246000fd5b91607f1691610c52565b9060405191826000825492610c9184610c43565b908184526001948581169081600014610cfe5750600114610cbb575b505061012f92500383610188565b9093915060005260209081600020936000915b818310610ce657505061012f93508201013880610cad565b85548884018501529485019487945091830191610cce565b91505061012f94506020925060ff191682840152151560051b8201013880610cad565b9992969b9e9d9b610d92610dbc979661012f9f9a936101a09e978e610d73610dd29f989d610d63610dc89f610d84968552602085019060018060a01b03169052565b6001600160a01b03166040830152565b6101c09081606082015201906102a2565b8d810360808f0152906102a2565b9560a08c015260c08b015260e08a01526101008901526101208801528682036101408801526102a2565b986101608501906102ec565b1515610180830152565b019015159052565b3461011d57602036600319011261011d5760043560005481101561011d57610e0190610c04565b50805460018201549091906001600160a01b031660028201546001600160a01b031691610e3060038201610c7d565b93610e3d60048301610c7d565b91600581015460068201546007830154600884015490600985015492600a8601610e6690610c7d565b94600b870154610e769060ff1690565b96600d0154986040519c8d9c8d9c8c60081c60ff169c60ff169b6104719e610d21565b3461011d5760006040366003190112610f3457806024356001600160401b038111610f3157610ecc9036906004016101f1565b6001546001600160a01b031690813b15610f2d578291610f129160405194858094819363cf51b45d60e01b835260043560048401526040602484015260448301906102a2565b03925af1801561059057610f24575080f35b61058d90610154565b5050fd5b50fd5b80fd5b600091031261011d57565b3461011d57600036600319011261011d576002546040516001600160a01b039091168152602090f35b9060028210156102e75752565b80518252602080820151908301526040808201516001600160a01b0390811691840191909152606080830151909116908301529061027c9060e080610ff6610fe4610fd260808801516101008060808901528701906102a2565b60a088015186820360a08801526102a2565b60c087015185820360c08701526102a2565b940151910190610f6b565b602080820190808352835180925260408301928160408460051b8301019501936000915b8483106110355750505050505090565b9091929394958480611053600193603f198682030187528a51610f78565b9801930193019194939290611025565b3461011d5760208060031936011261011d57600154604051632cde9bef60e01b815260048035908201526000918290829060249082906001600160a01b03165afa9182156105905780926110c0575b604051806104718582611001565b9091503d8082843e6110d28184610188565b82019183818403126111795780516001600160401b039182821161117557019280601f850112156111715783519161110983611580565b946111176040519687610188565b838652868087019460051b82010194838611610f3457878201945b86861061114c5750505050505050610471915038806110b2565b8551848111611171578991611166878480948801016121b9565b815201950194611132565b8280fd5b8380fd5b5080fd5b90602061027c928181520190610f78565b3461011d57602036600319011261011d5760e06040516111ad8161016c565b600091818380935282602082015282604082015282606082015260606080820152606060a0820152606060c082015201526111f261051460015460018060a01b031690565b60405163ea89735d60e01b81526004803590820152908290829060249082905afa90811561059057826104719392611233575b50506040519182918261117d565b61124f92503d8091833e6112478183610188565b810190612273565b3880611225565b3461011d5761012036600319011261011d57611270610122565b611278610131565b6001600160401b03919060443583811161011d5761129a9036906004016101f1565b60643584811161011d576112b29036906004016101f1565b916101043594851161011d576112cf6112e59536906004016101f1565b9360e4359360c4359360a435936084359361175c565b005b3461011d57600036600319011261011d576001546040516001600160a01b039091168152602090f35b634e487b7160e01b600052601160045260246000fd5b60001981146113355760010190565b611310565b60009291815461134981610c43565b926001918083169081156113a25750600114611366575b50505050565b90919293945060005260209081600020906000915b8583106113915750505050019038808080611360565b80548584015291830191810161137b565b60ff1916845250505081151590910201915038808080611360565b906113d06020928281519485920161027f565b0190565b9062278d009182810292818404149015171561133557565b9190820180921161133557565b600054600160401b811015610167576001810180600055811015610c3e57600e9060008052027f290decd9548b62a8d60345a988386fc84ba6bc95484008f6362f93160ef3e5630190600090565b60001981019190821161133557565b818110611461575050565b60008155600101611456565b9190601f811161147c57505050565b61012f926000526020600020906020601f840160051c830193106114a8575b601f0160051c0190611456565b909150819061149b565b91909182516001600160401b038111610167576114d9816114d38454610c43565b8461146d565b602080601f831160011461151557508192939460009261150a575b50508160011b916000199060031b1c1916179055565b0151905038806114f4565b90601f1983169561152b85600052602060002090565b926000905b8882106115685750508360019596971061154f575b505050811b019055565b015160001960f88460031b161c19169055388080611545565b80600185968294968601518155019501930190611530565b6001600160401b0381116101675760051b60200190565b81601f8201121561011d5780516115ad816101d6565b926115bb6040519485610188565b8184526020828401011161011d5761027c916020808501910161027f565b90602090818382031261011d5782516001600160401b039384821161011d570181601f8201121561011d57805161160f81611580565b9461161d6040519687610188565b818652848087019260051b8401019380851161011d57858401925b858410611649575050505050505090565b835183811161011d578791611663848480948a0101611597565b815201930192611638565b6040513d6000823e3d90fd5b815191600160401b83116101675781548383558084106116d8575b506116aa602080920192600052602060002090565b6000925b8484106116bc575050505050565b600183826116cc839451866114b2565b019201930192906116ae565b6000838152846020822092830192015b8281106116f6575050611695565b8061170360019254610c43565b80611710575b50016116e8565b601f9081811184146117285750508281555b38611709565b8361174a9261173c85600052602060002090565b920160051c82019101611456565b60008181526020812081835555611722565b9297919760005b6000548110156119f85761177681610c04565b506001908101546001600160a01b03918783169183168214806119de575b80611983575b80611965575b611920576105146117b4916104e486610c04565b149081611904575b50806118aa575b8061188a575b6117db576117d690611326565b611763565b97959250505061012f965061183594915061182f9260056117fb88610c04565b500155600661180987610c04565b50015580600761181887610c04565b50015582600861182787610c04565b5001556113d4565b906113ec565b600961184083610c04565b50015561185d600b61185183610c04565b5001805460ff19169055565b61187d61186982610c04565b50600d908101805460ff1916905591610c04565b5001805461ff0019169055565b50600261189b600b61067b84610c04565b6118a4816102dd565b146117c9565b506118b481610c04565b506040908151906118fb600a836118d36020948583019384910161133a565b03936118e7601f1995868101835282610188565b51902093519182019282610770858b6113bd565b519020146117c3565b905061191460026104e484610c04565b811690841614386117bc565b60405162461bcd60e51b815260206004820181905260248201527f53696d696c617220636f6e747261637420616c72656164792070656e64696e676044820152606490fd5b50611974600b61067b86610c04565b61197d816102dd565b156117a0565b5061198d84610c04565b50876107706119d5604093845190600a826119b06020938483019384910161133a565b03926119c4601f1994858101835282610188565b5190209551938491820180966113bd565b5190201461179a565b506119ed60026104e486610c04565b831686841614611794565b509196959493929790611a096113f9565b5098600054611a1790611447565b8a5560018a0180546001600160a01b0319166001600160a01b039092169190911790556002890180546001600160a01b0319166001600160a01b03909216919091179055611a6890600389016114b2565b611a7590600488016114b2565b60058601556006850155806007850155816008850155611a94906113d4565b611a9d916113ec565b6009830155611aaf90600a83016114b2565b600b8101805460ff19169055600d8101805461ffff1916905560025460405163c6418ab960e01b81529190829081906001600160a01b03165a92600491600094fa9081156105905761012f92600092611b0c575b50600c0161167a565b611b2b90600c92933d8091833e611b238183610188565b8101906115d9565b9190611b03565b15611b3957565b60405162461bcd60e51b815260206004820152601860248201527f41677265656d656e74206973206e6f742070656e64696e6700000000000000006044820152606490fd5b15611b8557565b60405162461bcd60e51b815260206004820152601b60248201527f54656e616e7420686173206e6f7420417070726f7665642079657400000000006044820152606490fd5b15611bd157565b60405162461bcd60e51b815260206004820152601760248201527f41677265656d656e74206973207465726d696e617465640000000000000000006044820152606490fd5b15611c1d57565b60405162461bcd60e51b81526020600482015260156024820152741059dc99595b595b9d081a5cc8185c1c1c9bdd9959605a1b6044820152606490fd5b15611c6157565b60405162461bcd60e51b815260206004820152602560248201527f41677265656d656e742068617320616c7265616479206265656e207465726d696044820152641b985d195960da1b6064820152608490fd5b15611cbb57565b60405162461bcd60e51b815260206004820152601760248201527f41677265656d656e74206973206e6f74204163746976650000000000000000006044820152606490fd5b15611d0757565b60405162461bcd60e51b8152602060048201526014602482015273125b9d985b1a59081859dc99595b595b9d08125160621b6044820152606490fd5b15611d4a57565b60405162461bcd60e51b815260206004820152601f60248201527f4f6e6c792074656e616e742063616e20726169736520612064697370757465006044820152606490fd5b9081526001600160a01b0391821660208201529116604082015260a06060820181905261027c939192611dc4918401906102a2565b9160808184039101526102a2565b90916000928354935b848110611e1c5760405162461bcd60e51b815260206004820152601260248201527110dbdb9d1c9858dd081b9bdd08199bdd5b9960721b6044820152606490fd5b611e2a60026104e483610c04565b6001600160a01b03908116858216149081611ec6575b5080611e6c575b611e5957611e5490611326565b611ddb565b92505050611e679150610c04565b505490565b50611e7681610c04565b50604090815190611ebd600a83611e956020948583019384910161133a565b0393611ea9601f1995868101835282610188565b51902093519182019282610770858a6113bd565b51902014611e47565b9050611ed660016104e484610c04565b81169083161438611e40565b604051906101e082018281106001600160401b0382111761016757604052816101c0600091828152826020820152826040820152606080820152606060808201528260a08201528260c08201528260e082015282610100820152826101208201526060610140820152826101608201526060610180820152826101a08201520152565b60038210156102e75752565b908154611f7d81611580565b92611f8b6040519485610188565b818452600090815260208082208186015b848410611faa575050505050565b6001838192611fb885610c7d565b815201920193019290611f9c565b9061012f60ff600d611fd66101a9565b8554815260018601546001600160a01b031660208201529460028101546001600160a01b0316604087015261200d60038201610c7d565b606087015261201e60048201610c7d565b6080870152600581015460a0870152600681015460c0870152600781015460e087015260088101546101008701526009810154610120870152612063600a8201610c7d565b61014087015261208461207a600b83015460ff1690565b6101608801611f65565b612090600c8201611f71565b610180870152015481811615156101a086015260081c1615156101c0840152565b90916120bb611ee2565b506000928354935b8481106121045760405162461bcd60e51b815260206004820152601260248201527110dbdb9d1c9858dd081b9bdd08199bdd5b9960721b6044820152606490fd5b61211260026104e483610c04565b6001600160a01b03908116858216149081612185575b5080612153575b6121415761213c90611326565b6120c3565b91505061027c9250610a219150610c04565b5061215d81610c04565b5060409081519061217c600a83611e956020948583019384910161133a565b5190201461212f565b905061219560016104e484610c04565b81169083161438612128565b519061012f8261010c565b5190600282101561011d57565b9190916101008184031261011d576121cf6101c9565b9281518452602082015160208501526121ea604083016121a1565b60408501526121fb606083016121a1565b60608501526080820151916001600160401b039283811161011d5782612222918301611597565b608086015260a081015183811161011d578261223f918301611597565b60a086015260c081015192831161011d5761226160e09261226c948301611597565b60c0860152016121ac565b60e0830152565b9060208282031261011d5781516001600160401b03811161011d5761027c92016121b9565b906122a282611580565b6122af6040519182610188565b82815280926122c0601f1991611580565b019060005b8281106122d157505050565b6020906122dc611ee2565b828285010152016122c5565b8051821015610c3e5760209160051b01019056fea264697066735822122015e4e8cabfdb10fd75c470307604007b1a25c76ba7618a9b1cdfa58fae25594c64736f6c63430008130033",
  "immutableReferences": {},
  "source": "// SPDX-License-Identifier: MIT\r\npragma solidity ^0.8.19;\r\n\r\nimport \"./DisputeResolution.sol\";\r\nimport \"./DefaultTerms.sol\";\r\n\r\n\r\ncontract AgreementFactory {\r\n\r\n    enum AgreementStatus {\r\n        Pending,\r\n        Active,\r\n        Terminated\r\n    }\r\n\r\nstruct Contract {\r\n    uint256 ID;\r\n    address landlord;\r\n    address tenant;\r\n    string landlordUsername;  // New field for landlord's username\r\n    string tenantUsername;    // New field for tenant's username\r\n    uint256 rentAmount;\r\n    uint256 securityDeposit;\r\n    uint256 leaseDuration;\r\n    uint256 startDate;\r\n    uint256 terminationDate;\r\n    string propertyID;\r\n    AgreementStatus status;\r\n    string[] terms;\r\n    bool tenantApproved;\r\n    bool landlordApproved;\r\n}\r\n\r\n\r\n    Contract[] public contractRegistry;\r\n    DisputeResolution public disputeResolutionContract;\r\n    DefaultTerms public defaultTermsContract;\r\n\r\n    constructor(DisputeResolution _disputeResolutionContract, DefaultTerms _defaultTermsContract) {\r\n        disputeResolutionContract = _disputeResolutionContract;\r\n        defaultTermsContract = _defaultTermsContract;\r\n    }\r\n\r\n        // ********************************************** Basic Contract Functions\r\n\r\n    function createRentalAgreement(\r\n        address _landlord,\r\n        address _tenant,\r\n        string memory _landlordUsername,\r\n        string memory _tenantUsername,\r\n        uint256 _rentAmount,\r\n        uint256 _securityDeposit,\r\n        uint256 _leaseDuration,\r\n        uint256 _startDate,\r\n        string memory _propertyID\r\n    ) external {\r\n        // Check if a similar contract already exists and is in a \"Pending\" status\r\n        for (uint i = 0; i < contractRegistry.length; i++) {\r\n            if (\r\n                contractRegistry[i].landlord == _landlord &&\r\n                contractRegistry[i].tenant == _tenant &&\r\n                keccak256(abi.encodePacked(contractRegistry[i].propertyID)) == keccak256(abi.encodePacked(_propertyID)) &&\r\n                contractRegistry[i].status == AgreementStatus.Pending\r\n            ) {\r\n                revert(\"Similar contract already pending\");\r\n            }\r\n            \r\n            if (contractRegistry[i].landlord == _landlord &&\r\n                contractRegistry[i].tenant == _tenant &&\r\n                keccak256(abi.encodePacked(contractRegistry[i].propertyID)) == keccak256(abi.encodePacked(_propertyID)) &&\r\n                contractRegistry[i].status == AgreementStatus.Terminated){\r\n\r\n                contractRegistry[i].rentAmount = _rentAmount;\r\n                contractRegistry[i].securityDeposit = _securityDeposit;\r\n                contractRegistry[i].leaseDuration = _leaseDuration;\r\n                contractRegistry[i].startDate = _startDate;\r\n                contractRegistry[i].terminationDate = _startDate + (_leaseDuration * 30 days);\r\n                contractRegistry[i].status = AgreementStatus.Pending;\r\n                contractRegistry[i].tenantApproved = false;\r\n                contractRegistry[i].landlordApproved = false;                \r\n                return;\r\n            }\r\n        }\r\n\r\n        Contract storage newAgreement = contractRegistry.push(); // Use 'storage' to directly modify state variable\r\n        newAgreement.ID = contractRegistry.length - 1;\r\n        newAgreement.landlord = _landlord;\r\n        newAgreement.tenant = _tenant;\r\n        newAgreement.landlordUsername = _landlordUsername; // Set landlord's username\r\n        newAgreement.tenantUsername = _tenantUsername;     // Set tenant's username\r\n        newAgreement.rentAmount = _rentAmount;\r\n        newAgreement.securityDeposit = _securityDeposit;\r\n        newAgreement.leaseDuration = _leaseDuration;\r\n        newAgreement.startDate = _startDate;\r\n        newAgreement.terminationDate = _startDate + (_leaseDuration * 30 days);\r\n        newAgreement.propertyID = _propertyID; // Set the propertyID\r\n        newAgreement.status = AgreementStatus.Pending;\r\n        newAgreement.tenantApproved = false;\r\n        newAgreement.landlordApproved = false;\r\n        // Get default terms from DefaultTerms contract\r\n        newAgreement.terms = defaultTermsContract.getDefaultTerms();\r\n    }\r\n\r\nfunction approveAgreement(address _tenant, address _landlord, string memory _propertyID) external {\r\n    for (uint i = 0; i < contractRegistry.length; i++) {\r\n        if (\r\n            contractRegistry[i].tenant == _tenant &&\r\n            contractRegistry[i].landlord == _landlord &&\r\n            keccak256(abi.encodePacked(contractRegistry[i].propertyID)) == keccak256(abi.encodePacked(_propertyID))\r\n        ) {\r\n            require(\r\n                contractRegistry[i].status == AgreementStatus.Pending,\r\n                \"Agreement is not pending\"\r\n            );\r\n\r\n            if (msg.sender == _tenant) {\r\n                contractRegistry[i].tenantApproved = true;\r\n            }\r\n\r\n            if (msg.sender == _landlord) {\r\n                require(\r\n                    contractRegistry[i].tenantApproved == true,\r\n                    \"Tenant has not Approved yet\"\r\n                );\r\n                contractRegistry[i].landlordApproved = true;\r\n            }\r\n\r\n            if (contractRegistry[i].landlordApproved && contractRegistry[i].tenantApproved) {\r\n                // Check if the agreement is not terminated\r\n                require(\r\n                    contractRegistry[i].status != AgreementStatus.Terminated,\r\n                    \"Agreement is terminated\"\r\n                );\r\n\r\n                contractRegistry[i].status = AgreementStatus.Active;\r\n            }\r\n            break;\r\n        }\r\n    }\r\n}\r\n\r\n    function disapproveAgreement(address _tenant, address _landlord, string memory _propertyID) external {\r\n        for (uint i = 0; i < contractRegistry.length; i++) {\r\n            if (\r\n                contractRegistry[i].tenant == _tenant &&\r\n                contractRegistry[i].landlord == _landlord &&\r\n                keccak256(abi.encodePacked(contractRegistry[i].propertyID)) == keccak256(abi.encodePacked(_propertyID))\r\n            ) {\r\n                require(\r\n                    contractRegistry[i].status == AgreementStatus.Pending,\r\n                    \"Agreement is not pending\"\r\n                );\r\n                require(\r\n                    contractRegistry[i].status != AgreementStatus.Active,\r\n                    \"Agreement is approved\"\r\n                );\r\n                require(\r\n                    contractRegistry[i].status != AgreementStatus.Terminated,\r\n                    \"Agreement is terminated\"\r\n                );\r\n                contractRegistry[i].status = AgreementStatus.Terminated;\r\n                break;\r\n            }\r\n        }\r\n    }\r\n\r\n    function terminateAgreement(address _tenant, address _landlord, string memory _propertyID) external {\r\n        for (uint i = 0; i < contractRegistry.length; i++) {\r\n            if (\r\n                contractRegistry[i].tenant == _tenant &&\r\n                contractRegistry[i].landlord == _landlord &&\r\n                keccak256(abi.encodePacked(contractRegistry[i].propertyID)) == keccak256(abi.encodePacked(_propertyID)) &&\r\n                contractRegistry[i].status != AgreementStatus.Terminated\r\n       ) {\r\n                require(\r\n                    contractRegistry[i].status != AgreementStatus.Terminated,\r\n                    \"Agreement has already been terminated\"\r\n                );\r\n                require(\r\n                    contractRegistry[i].status == AgreementStatus.Active,\r\n                    \"Agreement is not Active\"\r\n                );\r\n                contractRegistry[i].status = AgreementStatus.Terminated;\r\n                break;\r\n            }\r\n        }\r\n    }\r\n\r\n    // ********************************************** Dispute Resolution Functions\r\n\r\n    function raiseDispute(\r\n        uint256 _agreementID,\r\n        string memory _title,\r\n        string memory _reason\r\n    ) external {\r\n        require(_agreementID < contractRegistry.length, \"Invalid agreement ID\");\r\n        require(\r\n            contractRegistry[_agreementID].tenant == msg.sender,\r\n            \"Only tenant can raise a dispute\"\r\n        );\r\n\r\n        disputeResolutionContract.raiseDispute(\r\n            _agreementID,\r\n            contractRegistry[_agreementID].tenant,\r\n            contractRegistry[_agreementID].landlord,\r\n            _title,\r\n            _reason\r\n        );\r\n    }\r\n\r\n    function resolveDispute(\r\n        uint256 _disputeID,\r\n        string memory _resolution\r\n    ) external {\r\n        disputeResolutionContract.resolveDispute(_disputeID, _resolution);\r\n    }\r\n\r\n    // ********************************************** Getter Functions\r\n\r\n    // Getter function for contractRegistry length\r\n\r\n    function getContractID(\r\n        address _tenant,\r\n        address _landlord,\r\n        string memory _propertyID\r\n    ) external view returns (uint256) {\r\n        for (uint i = 0; i < contractRegistry.length; i++) {\r\n            if (\r\n                contractRegistry[i].tenant == _tenant &&\r\n                contractRegistry[i].landlord == _landlord &&\r\n                keccak256(abi.encodePacked(contractRegistry[i].propertyID)) == keccak256(abi.encodePacked(_propertyID))\r\n            ) {\r\n                return contractRegistry[i].ID;\r\n            }\r\n        }\r\n        revert(\"Contract not found\");\r\n    }\r\n\r\n    function getContractDetails(\r\n        address _tenant,\r\n        address _landlord,\r\n        string memory _propertyID\r\n    ) external view returns (Contract memory) {\r\n        for (uint i = 0; i < contractRegistry.length; i++) {\r\n            if (\r\n                contractRegistry[i].tenant == _tenant &&\r\n                contractRegistry[i].landlord == _landlord &&\r\n                keccak256(abi.encodePacked(contractRegistry[i].propertyID)) == keccak256(abi.encodePacked(_propertyID))\r\n            ) {\r\n                return contractRegistry[i];\r\n            }\r\n        }\r\n        revert(\"Contract not found\");\r\n    }\r\n\r\n    function getDisputeDetails(\r\n        uint256 _disputeID\r\n    ) external view returns (DisputeResolution.Dispute memory) {\r\n        return disputeResolutionContract.getDisputeDetails(_disputeID);\r\n    }\r\n\r\n    function getAllDisputes(\r\n        uint256 _agreementID\r\n    ) external view returns (DisputeResolution.Dispute[] memory) {\r\n        return disputeResolutionContract.getDisputesForAgreement(_agreementID);\r\n    }\r\n\r\n\r\nfunction getLandlordsContracts(address _landlordAddress) external view returns (Contract[] memory) {\r\n    Contract[] memory result = new Contract[](contractRegistry.length);\r\n    uint256 counter = 0;\r\n\r\n    for (uint256 i = 0; i < contractRegistry.length; i++) {\r\n        if (contractRegistry[i].landlord == _landlordAddress) {\r\n            result[counter] = contractRegistry[i];\r\n            counter++;\r\n        }\r\n    }\r\n\r\n    // Resize the result array to remove any empty elements\r\n    assembly {\r\n        mstore(result, counter)\r\n    }\r\n\r\n    return result;\r\n}\r\n\r\nfunction getTenantsContracts(address _tenantAddress) external view returns (Contract[] memory) {\r\n    Contract[] memory result = new Contract[](contractRegistry.length);\r\n    uint256 counter = 0;\r\n\r\n    for (uint256 i = 0; i < contractRegistry.length; i++) {\r\n        if (contractRegistry[i].tenant == _tenantAddress) {\r\n            result[counter] = contractRegistry[i];\r\n            counter++;\r\n        }\r\n    }\r\n\r\n    // Resize the result array to remove any empty elements\r\n    assembly {\r\n        mstore(result, counter)\r\n    }\r\n\r\n    return result;\r\n}\r\n\r\n    // function getContractsByAddress(address _address) external view returns (Contract[] memory) {\r\n    //     Contract[] memory result = new Contract[](contractRegistry.length);\r\n    //     uint256 counter = 0;\r\n\r\n    //     for (uint256 i = 0; i < contractRegistry.length; i++) {\r\n    //         if (contractRegistry[i].landlord == _address || contractRegistry[i].tenant == _address) {\r\n    //             result[counter] = contractRegistry[i];\r\n    //             counter++;\r\n    //         }\r\n    //     }\r\n\r\n    //     return result;\r\n    // }\r\n\r\n    //     function getRegistryDetails() external view returns (Contract[] memory) {\r\n    //     Contract[] memory result = new Contract[](contractRegistry.length);\r\n\r\n    //     for (uint256 i = 0; i < contractRegistry.length; i++) {\r\n    //         result[i] = Contract({\r\n    //             ID: contractRegistry[i].ID,\r\n    //             landlord: contractRegistry[i].landlord,\r\n    //             tenant: contractRegistry[i].tenant,\r\n    //             rentAmount: contractRegistry[i].rentAmount,\r\n    //             securityDeposit: contractRegistry[i].securityDeposit,\r\n    //             leaseDuration: contractRegistry[i].leaseDuration,\r\n    //             startDate: contractRegistry[i].startDate,\r\n    //             terminationDate: contractRegistry[i].terminationDate,\r\n    //             propertyID: contractRegistry[i].propertyID,\r\n    //             status: contractRegistry[i].status,\r\n    //             terms: contractRegistry[i].terms,\r\n    //             tenantApproved: contractRegistry[i].tenantApproved,\r\n    //             landlordApproved: contractRegistry[i].landlordApproved\r\n    //         });\r\n    //     }\r\n\r\n    //     return result;\r\n    // }\r\n}\r\n",
  "sourcePath": "D:\\Fast\\Sem 8\\FYP_Final\\TranspaRent\\Blockchain\\contracts\\AgreementFactory.sol",
  "compiler": {
    "name": "solc",
    "version": "0.8.19+commit.7dd6d404.Emscripten.clang"
  },
  "schemaVersion": "3.4.16",
  "updatedAt": "2024-04-23T13:33:18.929Z",
  "networkType": "ethereum",
  "devdoc": {
    "kind": "dev",
    "methods": {},
    "version": 1
  },
  "userdoc": {
    "kind": "user",
    "methods": {},
    "version": 1
  }
}