{
  "contractName": "DefaultTerms",
  "abi": [
    {
      "inputs": [],
      "stateMutability": "nonpayable",
      "type": "constructor"
    },
    {
      "inputs": [
        {
          "internalType": "uint256",
          "name": "",
          "type": "uint256"
        }
      ],
      "name": "defaultTerms",
      "outputs": [
        {
          "internalType": "string",
          "name": "",
          "type": "string"
        }
      ],
      "stateMutability": "view",
      "type": "function",
      "constant": true
    },
    {
      "inputs": [],
      "name": "getDefaultTerms",
      "outputs": [
        {
          "internalType": "string[]",
          "name": "",
          "type": "string[]"
        }
      ],
      "stateMutability": "view",
      "type": "function",
      "constant": true
    }
  ],
  "bytecode": "0x60806040523462001b49576000805468010000000000000000908181101562001b355762000034600191828101855562001b4e565b62001b21576200005062000049825462001b7c565b8262001bb9565b609581558352602091828420927f4c414e444c4f52443a205468652070617274792077686f206f776e732074686584557f2070726f706572747920616e64206973206c656173696e6720697420746f207483850155693432903a32b730b73a1760b11b60028095015584548281101562001add578084620000d49201875562001b4e565b62001ac957620000e5815462001b7c565b601f811162001af1575b50607d815585527f207468652070726f70657274792066726f6d20746865206c6573736f722e0000838287207f54454e414e543a205468652070617274792077686f2069732072656e74696e678155015584548281101562001add5780846200015b9201875562001b4e565b62001ac9576200017062000049825462001b7c565b60ad815585527f7365642028652e672e2c203132206d6f6e746873292e00000000000000000000848287207f4c45415345204455524154494f4e3a20546865206475726174696f6e20666f7281557f207768696368207468652070726f7065727479206973206265696e67206c656186820155015584548281101562001add578084620002009201875562001b4e565b62001ac9576200021562000049825462001b7c565b60a1815585526f3733903a343290383937b832b93a3c9760811b848287207f52454e5420414d4f554e543a2054686520616d6f756e7420706169642062792081557f7468652074656e616e7420746f20746865206c6573736f7220666f722075736986820155015584548281101562001add578084620002989201875562001b4e565b62001ac957620002ad62000049825462001b7c565b60c1815585527f652070616964206f6e2074686520317374206f662065616368206d6f6e74682e848287207f52454e54205041594d454e543a2054686520616d6f756e74207061696420627981557f207468652074656e616e7420746f20746865206c6573736f72206d757374206286820155015584548281101562001add5780846200033d9201875562001b4e565b62001ac9576200035962000352825462001b7c565b8262001bf6565b60e781558552808520917f4c4154452052454e543a2054686572652069732061206772616365207065726983557f6f64206f662031207765656b20666f72206c6174652072656e742c2061667465848401557f7220776869636820612032252066696e65206d75737420626520616464656420858401557f746f207468652072656e7420616d6f756e742e0000000000000000000000000060038094015585548181101562001ab5578085620004129201885562001b4e565b62001aa1576200042762000352825462001b7c565b60c9815586526332b73a1760e11b838388207f5345435552495459204445504f5349543a204120726566756e6461626c65206181557f6d6f756e742070616964206279207468652074656e616e742061732073656375878201557f7269747920616761696e73742064616d61676573206f7220756e70616964207288820155015585548181101562001ab5578085620004c39201885562001b4e565b62001aa157620004d862000049825462001b7c565b60b9815586527f696e636c7564656420696e207468652072656e7420616d6f756e742e00000000858388207f5554494c49544945533a2053657276696365732073756368206173207761746581557f722c20656c6563747269636974792c20616e642067617320617265206e6f742087820155015585548181101562001ab5578085620005689201885562001b4e565b62001aa157908162000581620000498895945462001b7c565b6083815587528187207f5554494c49544945533a20416c6c207574696c6974792073657276696365732081557f62696c6c73206d7573742062652070616964206279207468652074656e616e7486820155601760f91b968791015586548181101562001a8d578086620005f79201895562001b4e565b62001a79576200060c62000352825462001b7c565b60d1815587526732b0b734b733949760c11b848389207f4d41494e54454e414e43453a2054656e616e7420697320726573706f6e73696281557f6c6520666f72206d696e6f72206d61696e74656e616e63652028652e672e2c20888201557f6368616e67696e67206c696768742062756c62732c20726567756c617220636c86820155015586548181101562001a8d578086620006ac9201895562001b4e565b62001a7957620006c162000352825462001b7c565b60e7815587527f74727563747572616c2072657061697273292e00000000000000000000000000848389207f4d41494e54454e414e43453a204c616e646c6f726420697320726573706f6e7381557f69626c6520666f72206d616a6f72207265706169727320616e64206d61696e74888201557f656e616e63652028652e672e2c20706c756d62696e67206973737565732c207386820155015586548181101562001a8d578086620007769201895562001b4e565b62001a79576200078b62000352825462001b7c565b60cf81558752663837b93a30b61760c91b848389207f4d41494e54454e414e43453a204120646973707574652063616e20626520726181557f69736564206279207468652074656e616e7420616e64207265736f6c76656420888201557f627920746865206c616e646c6f7264207468726f7567682072656e74696e672086820155015586548181101562001a8d5780866200082a9201895562001b4e565b62001a79576200083f62000352825462001b7c565b60cf815587526634b9b9b4b7b71760c91b848389207f5355424c454153494e473a2050726f7065727479206d757374206f6e6c79206281557f65207573656420666f72207265736964656e7469616c20707572706f73657320888201557f6f6e6c792c206e6f207375626c656173696e6720776974686f7574207065726d86820155015586548181101562001a8d578086620008de9201895562001b4e565b62001a7957620008fa620008f3825462001b7c565b8262001c33565b61011f81558752818720957f414c5445524154494f4e533a2054656e616e74206d757374206f627461696e2087557f7772697474656e207065726d697373696f6e2066726f6d20746865206c616e64868801557f6c6f7264206265666f7265206d616b696e6720616e7920616c7465726174696f848801557f6e732c20696d70726f76656d656e74732c206f72206164646974696f6e732074858801556e37903a343290383937b832b93a3c9760891b60048098015587548281101562001a66578087620009cb92018a5562001b4e565b62001a5457620009e0620008f3825462001b7c565b61010381558852868389207f4755455354533a2054656e616e742061677265657320746f206265207265737081557f6f6e7369626c6520666f722074686520636f6e64756374206f66207468656972888201557f20677565737473206f6e207468652070726f706572747920616e6420656e7375868201557f726573207468657920636f6d706c792077697468206c65617365207465726d73878201550155865481811015620019f757808662000a9a9201895562001b4e565b620019e55762000aaf62000352825462001b7c565b60ed815587527f6f7220616e20657874656e64656420706572696f642e00000000000000000000848389207f4e4f54494345204f4620414253454e43453a2054656e616e742061677265657381557f20746f206e6f7469667920746865206c616e646c6f7264206966207468657920888201557f77696c6c20626520617761792066726f6d207468652070726f70657274792066868201550155865481811015620019f757808662000b649201895562001b4e565b620019e5578062000b7b620008f389935462001b7c565b6101079081815589528389207f454d455247454e435920434f4e54414354533a2054656e616e74206d7573742081557f70726f7669646520656d657267656e637920636f6e7461637420696e666f726d888201557f6174696f6e2c207375636820617320612064657369676e617465642070657273868201557f6f6e20746f20726561636820696e2063617365206f6620656d657267656e6369878201556232b99760e91b928391015588548381101562001a1c57808862000c4092018b5562001b4e565b62001a0a5762000c5c62000c55825462001b7c565b8262001c6f565b610157908181558a526a31b4103230b6b0b3b2b99760a91b6005868c207f50524f50455254592044414d4147453a2054656e616e7420616772656573207481557f6f207265706f727420616e792064616d616765732063617573656420627920748b8201557f68656d206f72207468656972206775657374732070726f6d70746c7920616e64898201557f20697320726573706f6e7369626c6520666f7220726570616972696e67206f728a8201557f207265696d62757273696e6720746865206c616e646c6f726420666f722073758c820155015589548481101562001a4157808962000d4d92018c5562001b4e565b62001a2f5762000d6262000352825462001b7c565b60e181558a526f3634b7339033bab4b232b634b732b99760811b87868c207f574153544520444953504f53414c3a2054656e616e742061677265657320746f81557f20646973706f7365206f662077617374652070726f7065726c792c20666f6c6c8b8201557f6f77696e67206c6f63616c206f7264696e616e63657320616e6420726563796389820155015589548481101562001a4157808962000e0a92018c5562001b4e565b62001a2f5762000e1f62000c55825462001b7c565b61015981558a526b3c9032b8bab4b836b2b73a1760a11b6005868c207f46495245205341464554593a2054656e616e742061677265657320746f20666f81557f6c6c6f7720666972652073616665747920726567756c6174696f6e732c2073758b8201557f6368206173206e6f7420626c6f636b696e672065786974732c206b656570696e898201557f6720736d6f6b65206465746563746f7273206f7065726174696f6e616c2c20618a8201557f6e64206e6f742074616d706572696e67207769746820666972652073616665748c820155015589548481101562001a4157808962000f0f92018c5562001b4e565b62001a2f5762000f2462000352825462001b7c565b60ed81558a527f636f64657320616e6420726567756c6174696f6e732e0000000000000000000087868c207f484f5553494e4720434f444520434f4d504c49414e43453a204c616e646c6f7281557f64206167726565732074686174207468652070726f706572747920636f6d706c8b8201557f696573207769746820616c6c206170706c696361626c6520686f7573696e672089820155015589548481101562001a4157808962000fd992018c5562001b4e565b62001a2f5762000fee62000352825462001b7c565b60dd81558a526d18903bb2b2b5903737ba34b1b29760911b87868c207f454e5452593a204c616e646c6f7264206861732074686520726967687420746f81557f20656e746572207468652070726f706572747920666f7220696e7370656374698b8201557f6f6e732c20726570616972732c206f722073686f77696e67732c20776974682089820155015589548481101562001a415780896200109492018c5562001b4e565b62001a2f57620010a962000049825462001b7c565b60a181558a526f313c9032b4ba3432b9103830b93a3c9760811b86868c207f5445524d494e4154494f4e3a20436f6e646974696f6e7320756e64657220776881557f69636820746865206c656173652063616e206265207465726d696e61746564208b820155015589548481101562001a415780896200112c92018c5562001b4e565b62001a2f576200114162000c55825462001b7c565b61016b81558a527f6565206265666f7265206d6f76696e67206f75742e00000000000000000000006005868c207f4c414e444c4f5244204541524c59205445524d494e4154494f4e3a204966206c81557f616e646c6f7264207465726d696e61746573207468652061677265656d656e748b8201557f206265666f7265207465726d696e6174696f6e20646174652c20746865207465898201557f6e616e742077696c6c20626520616c6c6f77656420746f2073746179206f6e208a8201557f7468652070726f706572747920666f722031206d6f6e74682072656e742066728c820155015589548481101562001a415780896200124292018c5562001b4e565b91909162001a2f57620012616200125a835462001b7c565b8362001c6f565b815589526a3a3c903232b837b9b4ba1760a91b6005858b207f54454e414e54204541524c59205445524d494e4154494f4e3a2049662074656e81557f616e74207465726d696e61746573207468652061677265656d656e74206265668a8201557f6f7265207465726d696e6174696f6e20646174652c20746865206c616e646c6f888201557f726420697320656e7469746c656420746f2031206d6f6e74682072656e742077898201557f686963682069732064656475637465642066726f6d20746865207365637572698b820155015588548381101562001a1c5780886200134d92018b5562001b4e565b62001a0a576200136262000352825462001b7c565b60c581558952613c9760f11b86858b207f52454e4557414c3a204166746572207465726d696e6174696f6e20646174652081557f6120636f6e7472616374206d61792062652072656e65776564206279207468658a8201557f2074656e616e74206279207265626f6f6b696e67207468652070726f7065727488820155015588548381101562001a1c578088620013fc92018b5562001b4e565b62001a0a5762001411620008f3825462001b7c565b610139815589527f72656520737461792c2066726f6d20746865206c616e646c6f72642e0000000088858b207f50524f504552545920464f522053414c453a2054656e616e742061677265657381557f20746f20616c6c6f77207468652070726f706572747920746f2062652073686f8a8201557f776e20746f20706f74656e7469616c20627579657273206f722072656e746572888201557f7320776974682031206d6f6e7468206e6f7469636520616e642072656e74206689820155015588548381101562001a1c578088620014ec92018b5562001b4e565b62001a0a576200150162000c55825462001b7c565b610165815589527139103330b6b4b634b0b61039ba30ba3ab99760711b6005858b207f4e4f4e2d4449534352494d494e4154494f4e3a20426f7468207061727469657381557f20616772656520746f20636f6d706c792077697468206661697220686f7573698a8201557f6e67206c61777320616e64206e6f74206469736372696d696e61746520626173888201557f6564206f6e20726163652c20636f6c6f722c2072656c6967696f6e2c20736578898201557f2c206e6174696f6e616c206f726967696e2c206469736162696c6974792c206f8b820155015588548381101562001a1c578088620015f792018b5562001b4e565b62001a0a576200160c62000352825462001b7c565b60ff815589527f6f6e2c206279206d61696c2c206f7220656c656374726f6e6963616c6c792e0086858b207f4e4f544943452044454c49564552593a204e6f746963657320616e6420636f6d81557f6d756e69636174696f6e73206265747765656e206c616e646c6f726420616e648a8201557f2074656e616e742063616e2062652064656c69766572656420696e207065727388820155015588548381101562001a1c578088620016c192018b5562001b4e565b62001a0a57620016d662000352825462001b7c565b60e5815589527137323637b9321030b732103a32b730b73a1760711b86858b207f4e4f5449434520504552494f443a2041206e6f7469636520706572696f64206f81557f662031206d6f6e7468206d75737420626520697373756564206265666f7265208a8201557f7465726d696e6174696e6720746865206c6561736520627920626f7468206c6188820155015588548381101562001a1c5780886200178092018b5562001b4e565b91909162001a0a576200179f62001798835462001b7c565b8362001c33565b81558852868389207f4e4f54494345204f462053414c453a2054656e616e74206d757374206265206e81557f6f74696669656420696e20616476616e6365206966207468652070726f706572888201557f7479206973206265696e6720736f6c642c20776974682064657461696c73206f868201557f6e20746865206e6577206f776e6572277320726573706f6e736962696c697469878201550155865481811015620019f7578086620018569201895562001b4e565b620019e5576200186b62000049825462001b7c565b609f815587526e32b3b0b6363c903134b73234b7339760891b838389207f5349474e4154555245533a20426f74682070617274696573206d75737420617081557f70726f7665207468652061677265656d656e7420746f206d616b65206974206c888201550155865490811015620019d2578085620018ed9201885562001b4e565b620019c057917f636f6e73746974757465732074686520656e746972652061677265656d656e747f206265747765656e20746865207061727469657320616e642073757065727365926a3939ba30b73234b733b99760a91b988562001979620008f37f64657320616e79207072696f722061677265656d656e7473206f7220756e646599985462001b7c565b6101178155815220957f454e544952452041475245454d454e543a205468697320636f6e74726163742087558601558401558201550155604051610322908162001cad8239f35b634e487b7160e01b8752868652602487fd5b634e487b7160e01b875260418652602487fd5b634e487b7160e01b8852878752602488fd5b634e487b7160e01b885260418752602488fd5b634e487b7160e01b8a5289895260248afd5b634e487b7160e01b8a526041895260248afd5b634e487b7160e01b8b528a8a5260248bfd5b634e487b7160e01b8b5260418a5260248bfd5b634e487b7160e01b8952888852602489fd5b634e487b7160e01b895260418852602489fd5b634e487b7160e01b88526004889052602488fd5b634e487b7160e01b88526041600452602488fd5b634e487b7160e01b87526004879052602487fd5b634e487b7160e01b87526041600452602487fd5b634e487b7160e01b86526004869052602486fd5b634e487b7160e01b86526041600452602486fd5b8187528486601f858a20930160051c830192015b82811062001b15575050620000ef565b88815501859062001b05565b634e487b7160e01b84526004849052602484fd5b634e487b7160e01b83526041600452602483fd5b600080fd5b90600091825481101562001b685782805260208320019190565b634e487b7160e01b83526032600452602483fd5b90600182811c9216801562001bae575b602083101462001b9857565b634e487b7160e01b600052602260045260246000fd5b91607f169162001b8c565b601f821162001bc6575050565b60009081526003601f60208320930160051c830192015b82811062001bea57505050565b81815560010162001bdd565b601f821162001c03575050565b60009081526004601f60208320930160051c830192015b82811062001c2757505050565b81815560010162001c1a565b601f821162001c40575050565b60009081526005601f602083209301811c830192015b82811062001c6357505050565b81815560010162001c56565b601f821162001c7c575050565b60009081526006601f60208320930160051c830192015b82811062001ca057505050565b81815560010162001c9356fe604060808152600436101561001357600080fd5b6000803560e01c80633c0cf8b4146101345763c6418ab91461003457600080fd5b34610131578060031936011261013157805467ffffffffffffffff811161011d5782519160209261006a848460051b01826101a3565b82815281805283810192827f290decd9548b62a8d60345a988386fc84ba6bc95484008f6362f93160ef3e563855b8383106100f957505050508451938085019181865251809252858501958260051b8601019392955b8287106100cd5785850386f35b9091929382806100e9600193603f198a820301865288516102ac565b96019201960195929190926100c0565b600188819261010b859b98999b6101db565b81520192019201919096949396610098565b634e487b7160e01b82526041600452602482fd5b80fd5b50903461019f57602036600319011261019f57600435825481101561019b57610184908361019794527f290decd9548b62a8d60345a988386fc84ba6bc95484008f6362f93160ef3e563016101db565b90519182916020835260208301906102ac565b0390f35b8280fd5b5080fd5b90601f8019910116810190811067ffffffffffffffff8211176101c557604052565b634e487b7160e01b600052604160045260246000fd5b90604051906000835490600182811c908084169687156102a2575b602094858410891461028e578798848997989952908160001461026c575060011461022d575b50505061022b925003836101a3565b565b600090815285812095935091905b81831061025457505061022b935082010138808061021c565b8554888401850152948501948794509183019161023b565b9250505061022b94925060ff191682840152151560051b82010138808061021c565b634e487b7160e01b85526022600452602485fd5b91607f16916101f6565b919082519283825260005b8481106102d8575050826000602080949584010152601f8019910116010190565b6020818301810151848301820152016102b756fea264697066735822122075706ac1b174b7ba6b4f6f7914887d78dbef494a52211682631df684aa91863d64736f6c63430008130033",
  "immutableReferences": {},
  "source": "// SPDX-License-Identifier: MIT\r\npragma solidity ^0.8.19;\r\n\r\ncontract DefaultTerms {\r\n    string[] public defaultTerms;\r\n\r\n    constructor() {\r\n        // Initialize default terms in the constructor\r\n        defaultTerms.push(\r\n            \"LANDLORD: The party who owns the property and is leasing it to the tenant.\"\r\n        );\r\n\r\n        defaultTerms.push(\r\n            \"TENANT: The party who is renting the property from the lessor.\"\r\n        );\r\n\r\n        defaultTerms.push(\r\n            \"LEASE DURATION: The duration for which the property is being leased (e.g., 12 months).\"\r\n        );\r\n\r\n        defaultTerms.push(\r\n            \"RENT AMOUNT: The amount paid by the tenant to the lessor for using the property.\"\r\n        );\r\n\r\n        defaultTerms.push(\r\n            \"RENT PAYMENT: The amount paid by the tenant to the lessor must be paid on the 1st of each month.\"\r\n        );\r\n\r\n        defaultTerms.push(\r\n            \"LATE RENT: There is a grace period of 1 week for late rent, after which a 2% fine must be added to the rent amount.\"\r\n        );\r\n\r\n        defaultTerms.push(\r\n            \"SECURITY DEPOSIT: A refundable amount paid by the tenant as security against damages or unpaid rent.\"\r\n        );\r\n\r\n        defaultTerms.push(\r\n            \"UTILITIES: Services such as water, electricity, and gas are not included in the rent amount.\"\r\n        );\r\n\r\n        defaultTerms.push(\r\n            \"UTILITIES: All utility services bills must be paid by the tenant.\"\r\n        );\r\n\r\n        defaultTerms.push(\r\n            \"MAINTENANCE: Tenant is responsible for minor maintenance (e.g., changing light bulbs, regular cleaning).\"\r\n        );\r\n\r\n        defaultTerms.push(\r\n            \"MAINTENANCE: Landlord is responsible for major repairs and maintenance (e.g., plumbing issues, structural repairs).\"\r\n        );\r\n\r\n        defaultTerms.push(\r\n            \"MAINTENANCE: A dispute can be raised by the tenant and resolved by the landlord through renting portal.\"\r\n        );\r\n\r\n        defaultTerms.push(\r\n            \"SUBLEASING: Property must only be used for residential purposes only, no subleasing without permission.\"\r\n        );\r\n\r\n        defaultTerms.push(\r\n            \"ALTERATIONS: Tenant must obtain written permission from the landlord before making any alterations, improvements, or additions to the property.\"\r\n        );\r\n\r\n        defaultTerms.push(\r\n            \"GUESTS: Tenant agrees to be responsible for the conduct of their guests on the property and ensures they comply with lease terms.\"\r\n        );\r\n\r\n        defaultTerms.push(\r\n            \"NOTICE OF ABSENCE: Tenant agrees to notify the landlord if they will be away from the property for an extended period.\"\r\n        );\r\n\r\n        defaultTerms.push(\r\n            \"EMERGENCY CONTACTS: Tenant must provide emergency contact information, such as a designated person to reach in case of emergencies.\"\r\n        );\r\n\r\n        defaultTerms.push(\r\n            \"PROPERTY DAMAGE: Tenant agrees to report any damages caused by them or their guests promptly and is responsible for repairing or reimbursing the landlord for such damages.\"\r\n        );\r\n\r\n        defaultTerms.push(\r\n            \"WASTE DISPOSAL: Tenant agrees to dispose of waste properly, following local ordinances and recycling guidelines.\"\r\n        );\r\n\r\n        defaultTerms.push(\r\n            \"FIRE SAFETY: Tenant agrees to follow fire safety regulations, such as not blocking exits, keeping smoke detectors operational, and not tampering with fire safety equipment.\"\r\n        );\r\n\r\n        defaultTerms.push(\r\n            \"HOUSING CODE COMPLIANCE: Landlord agrees that the property complies with all applicable housing codes and regulations.\"\r\n        );\r\n\r\n        defaultTerms.push(\r\n            \"ENTRY: Landlord has the right to enter the property for inspections, repairs, or showings, with 1 week notice.\"\r\n        );\r\n\r\n        defaultTerms.push(\r\n            \"TERMINATION: Conditions under which the lease can be terminated by either party.\"\r\n        );\r\n\r\n        defaultTerms.push(\r\n            \"LANDLORD EARLY TERMINATION: If landlord terminates the agreement before termination date, the tenant will be allowed to stay on the property for 1 month rent free before moving out.\"\r\n        );\r\n\r\n        defaultTerms.push(\r\n            \"TENANT EARLY TERMINATION: If tenant terminates the agreement before termination date, the landlord is entitled to 1 month rent which is deducted from the security deposit.\"\r\n        );\r\n\r\n        defaultTerms.push(\r\n            \"RENEWAL: After termination date a contract may be renewed by the tenant by rebooking the property.\"\r\n        );\r\n\r\n        defaultTerms.push(\r\n            \"PROPERTY FOR SALE: Tenant agrees to allow the property to be shown to potential buyers or renters with 1 month notice and rent free stay, from the landlord.\"\r\n        );\r\n\r\n        defaultTerms.push(\r\n            \"NON-DISCRIMINATION: Both parties agree to comply with fair housing laws and not discriminate based on race, color, religion, sex, national origin, disability, or familial status.\"\r\n        );\r\n\r\n        defaultTerms.push(\r\n            \"NOTICE DELIVERY: Notices and communications between landlord and tenant can be delivered in person, by mail, or electronically.\"\r\n        );\r\n\r\n        defaultTerms.push(\r\n            \"NOTICE PERIOD: A notice period of 1 month must be issued before terminating the lease by both landlord and tenant.\"\r\n        );\r\n\r\n        defaultTerms.push(\r\n            \"NOTICE OF SALE: Tenant must be notified in advance if the property is being sold, with details on the new owner's responsibilities.\"\r\n        );\r\n\r\n        defaultTerms.push(\r\n            \"SIGNATURES: Both parties must approve the agreement to make it legally binding.\"\r\n        );\r\n\r\n        defaultTerms.push(\r\n            \"ENTIRE AGREEMENT: This contract constitutes the entire agreement between the parties and supersedes any prior agreements or understandings.\"\r\n        );\r\n    }\r\n\r\n    function getDefaultTerms() external view returns (string[] memory) {\r\n        return defaultTerms;\r\n    }\r\n}\r\n",
  "sourcePath": "D:\\Fast\\Sem 8\\FYP_Final\\TranspaRent\\Blockchain\\contracts\\DefaultTerms.sol",
  "compiler": {
    "name": "solc",
    "version": "0.8.19+commit.7dd6d404.Emscripten.clang"
  },
  "schemaVersion": "3.4.16",
  "updatedAt": "2024-04-23T13:33:18.944Z",
  "networkType": "ethereum",
  "devdoc": {
    "kind": "dev",
    "methods": {},
    "version": 1
  },
  "userdoc": {
    "kind": "user",
    "methods": {},
    "version": 1
  }
}