{
  "contractName": "DefaultTerms",
  "abi": [
    {
      "inputs": [],
      "stateMutability": "nonpayable",
      "type": "constructor"
    },
    {
      "inputs": [
        {
          "internalType": "uint256",
          "name": "",
          "type": "uint256"
        }
      ],
      "name": "defaultTerms",
      "outputs": [
        {
          "internalType": "string",
          "name": "",
          "type": "string"
        }
      ],
      "stateMutability": "view",
      "type": "function",
      "constant": true
    },
    {
      "inputs": [],
      "name": "getDefaultTerms",
      "outputs": [
        {
          "internalType": "string[]",
          "name": "",
          "type": "string[]"
        }
      ],
      "stateMutability": "view",
      "type": "function",
      "constant": true
    }
  ],
  "bytecode": "0x60806040523480156200001157600080fd5b50600080600181540180825580915050600190039060005260206000200160006040518060800160405280604a815260200162001750604a9139909190915090816200005e919062000c7f565b50600080600181540180825580915050600190039060005260206000200160006040518060600160405280603e815260200162001464603e913990919091509081620000ab919062000c7f565b506000806001815401808255809150506001900390600052602060002001600060405180608001604052806056815260200162001f056056913990919091509081620000f8919062000c7f565b506000806001815401808255809150506001900390600052602060002001600060405180608001604052806050815260200162001675605091399091909150908162000145919062000c7f565b506000806001815401808255809150506001900390600052602060002001600060405180608001604052806060815260200162001a6e606091399091909150908162000192919062000c7f565b50600080600181540180825580915050600190039060005260206000200160006040518060a001604052806073815260200162001e2a6073913990919091509081620001df919062000c7f565b50600080600181540180825580915050600190039060005260206000200160006040518060a0016040528060648152602001620014a260649139909190915090816200022c919062000c7f565b50600080600181540180825580915050600190039060005260206000200160006040518060800160405280605c815260200162001506605c91399091909150908162000279919062000c7f565b5060008060018154018082558091505060019003906000526020600020016000604051806080016040528060418152602001620015626041913990919091509081620002c6919062000c7f565b50600080600181540180825580915050600190039060005260206000200160006040518060a001604052806068815260200162001e9d606891399091909150908162000313919062000c7f565b50600080600181540180825580915050600190039060005260206000200160006040518060a00160405280607381526020016200207d607391399091909150908162000360919062000c7f565b50600080600181540180825580915050600190039060005260206000200160006040518060a001604052806067815260200162001d4d6067913990919091509081620003ad919062000c7f565b50600080600181540180825580915050600190039060005260206000200160006040518060a001604052806067815260200162001ce66067913990919091509081620003fa919062000c7f565b50600080600181540180825580915050600190039060005260206000200160006040518060c00160405280608f815260200162001b83608f91399091909150908162000447919062000c7f565b50600080600181540180825580915050600190039060005260206000200160006040518060c001604052806081815260200162001860608191399091909150908162000494919062000c7f565b50600080600181540180825580915050600190039060005260206000200160006040518060a0016040528060768152602001620017ea6076913990919091509081620004e1919062000c7f565b50600080600181540180825580915050600190039060005260206000200160006040518060c0016040528060838152602001620019eb60839139909190915090816200052e919062000c7f565b50600080600181540180825580915050600190039060005260206000200160006040518060e0016040528060ab81526020016200126260ab9139909190915090816200057b919062000c7f565b50600080600181540180825580915050600190039060005260206000200160006040518060a001604052806070815260200162001f5b6070913990919091509081620005c8919062000c7f565b50600080600181540180825580915050600190039060005260206000200160006040518060e0016040528060ac81526020016200130d60ac91399091909150908162000615919062000c7f565b50600080600181540180825580915050600190039060005260206000200160006040518060a001604052806076815260200162001db4607691399091909150908162000662919062000c7f565b50600080600181540180825580915050600190039060005260206000200160006040518060a00160405280606e8152602001620018e1606e913990919091509081620006af919062000c7f565b50600080600181540180825580915050600190039060005260206000200160006040518060800160405280605081526020016200179a6050913990919091509081620006fc919062000c7f565b50600080600181540180825580915050600190039060005260206000200160006040518060e0016040528060b5815260200162001ace60b591399091909150908162000749919062000c7f565b50600080600181540180825580915050600190039060005260206000200160006040518060e0016040528060ab8152602001620013b960ab91399091909150908162000796919062000c7f565b50600080600181540180825580915050600190039060005260206000200160006040518060a001604052806062815260200162001c126062913990919091509081620007e3919062000c7f565b50600080600181540180825580915050600190039060005260206000200160006040518060c00160405280609c81526020016200194f609c91399091909150908162000830919062000c7f565b50600080600181540180825580915050600190039060005260206000200160006040518060e0016040528060b2815260200162001fcb60b29139909190915090816200087d919062000c7f565b50600080600181540180825580915050600190039060005260206000200160006040518060a00160405280607f8152602001620020f0607f913990919091509081620008ca919062000c7f565b50600080600181540180825580915050600190039060005260206000200160006040518060a001604052806072815260200162001c74607291399091909150908162000917919062000c7f565b50600080600181540180825580915050600190039060005260206000200160006040518060c0016040528060838152602001620015f2608391399091909150908162000964919062000c7f565b50600080600181540180825580915050600190039060005260206000200160006040518060800160405280604f8152602001620015a3604f913990919091509081620009b1919062000c7f565b50600080600181540180825580915050600190039060005260206000200160006040518060c00160405280608b8152602001620016c5608b913990919091509081620009fe919062000c7f565b5062000d66565b600081519050919050565b7f4e487b7100000000000000000000000000000000000000000000000000000000600052604160045260246000fd5b7f4e487b7100000000000000000000000000000000000000000000000000000000600052602260045260246000fd5b6000600282049050600182168062000a8757607f821691505b60208210810362000a9d5762000a9c62000a3f565b5b50919050565b60008190508160005260206000209050919050565b60006020601f8301049050919050565b600082821b905092915050565b60006008830262000b077fffffffffffffffffffffffffffffffffffffffffffffffffffffffffffffffff8262000ac8565b62000b13868362000ac8565b95508019841693508086168417925050509392505050565b6000819050919050565b6000819050919050565b600062000b6062000b5a62000b548462000b2b565b62000b35565b62000b2b565b9050919050565b6000819050919050565b62000b7c8362000b3f565b62000b9462000b8b8262000b67565b84845462000ad5565b825550505050565b600090565b62000bab62000b9c565b62000bb881848462000b71565b505050565b5b8181101562000be05762000bd460008262000ba1565b60018101905062000bbe565b5050565b601f82111562000c2f5762000bf98162000aa3565b62000c048462000ab8565b8101602085101562000c14578190505b62000c2c62000c238562000ab8565b83018262000bbd565b50505b505050565b600082821c905092915050565b600062000c546000198460080262000c34565b1980831691505092915050565b600062000c6f838362000c41565b9150826002028217905092915050565b62000c8a8262000a05565b67ffffffffffffffff81111562000ca65762000ca562000a10565b5b62000cb2825462000a6e565b62000cbf82828562000be4565b600060209050601f83116001811462000cf7576000841562000ce2578287015190505b62000cee858262000c61565b86555062000d5e565b601f19841662000d078662000aa3565b60005b8281101562000d315784890151825560018201915060208501945060208101905062000d0a565b8683101562000d51578489015162000d4d601f89168262000c41565b8355505b6001600288020188555050505b505050505050565b6104ec8062000d766000396000f3fe608060405234801561001057600080fd5b50600436106100365760003560e01c80633c0cf8b41461003b578063c6418ab91461006b575b600080fd5b61005560048036038101906100509190610249565b610089565b6040516100629190610306565b60405180910390f35b610073610135565b6040516100809190610434565b60405180910390f35b6000818154811061009957600080fd5b9060005260206000200160009150905080546100b490610485565b80601f01602080910402602001604051908101604052809291908181526020018280546100e090610485565b801561012d5780601f106101025761010080835404028352916020019161012d565b820191906000526020600020905b81548152906001019060200180831161011057829003601f168201915b505050505081565b60606000805480602002602001604051908101604052809291908181526020016000905b8282101561020557838290600052602060002001805461017890610485565b80601f01602080910402602001604051908101604052809291908181526020018280546101a490610485565b80156101f15780601f106101c6576101008083540402835291602001916101f1565b820191906000526020600020905b8154815290600101906020018083116101d457829003601f168201915b505050505081526020019060010190610159565b50505050905090565b600080fd5b6000819050919050565b61022681610213565b811461023157600080fd5b50565b6000813590506102438161021d565b92915050565b60006020828403121561025f5761025e61020e565b5b600061026d84828501610234565b91505092915050565b600081519050919050565b600082825260208201905092915050565b60005b838110156102b0578082015181840152602081019050610295565b60008484015250505050565b6000601f19601f8301169050919050565b60006102d882610276565b6102e28185610281565b93506102f2818560208601610292565b6102fb816102bc565b840191505092915050565b6000602082019050818103600083015261032081846102cd565b905092915050565b600081519050919050565b600082825260208201905092915050565b6000819050602082019050919050565b600082825260208201905092915050565b600061037082610276565b61037a8185610354565b935061038a818560208601610292565b610393816102bc565b840191505092915050565b60006103aa8383610365565b905092915050565b6000602082019050919050565b60006103ca82610328565b6103d48185610333565b9350836020820285016103e685610344565b8060005b858110156104225784840389528151610403858261039e565b945061040e836103b2565b925060208a019950506001810190506103ea565b50829750879550505050505092915050565b6000602082019050818103600083015261044e81846103bf565b905092915050565b7f4e487b7100000000000000000000000000000000000000000000000000000000600052602260045260246000fd5b6000600282049050600182168061049d57607f821691505b6020821081036104b0576104af610456565b5b5091905056fea26469706673582212205956598e2f3c1c132fbda437496888de4bc9a8505dfef7b8ba8b34a878a75c1064736f6c6343000813003350524f50455254592044414d4147453a2054656e616e742061677265657320746f207265706f727420616e792064616d6167657320636175736564206279207468656d206f72207468656972206775657374732070726f6d70746c7920616e6420697320726573706f6e7369626c6520666f7220726570616972696e67206f72207265696d62757273696e6720746865206c616e646c6f726420666f7220737563682064616d616765732e46495245205341464554593a2054656e616e742061677265657320746f20666f6c6c6f7720666972652073616665747920726567756c6174696f6e732c2073756368206173206e6f7420626c6f636b696e672065786974732c206b656570696e6720736d6f6b65206465746563746f7273206f7065726174696f6e616c2c20616e64206e6f742074616d706572696e6720776974682066697265207361666574792065717569706d656e742e54454e414e54204541524c59205445524d494e4154494f4e3a2049662074656e616e74207465726d696e61746573207468652061677265656d656e74206265666f7265207465726d696e6174696f6e20646174652c20746865206c616e646c6f726420697320656e7469746c656420746f2031206d6f6e74682072656e742077686963682069732064656475637465642066726f6d20746865207365637572697479206465706f7369742e54454e414e543a205468652070617274792077686f2069732072656e74696e67207468652070726f70657274792066726f6d20746865206c6573736f722e5345435552495459204445504f5349543a204120726566756e6461626c6520616d6f756e742070616964206279207468652074656e616e7420617320736563757269747920616761696e73742064616d61676573206f7220756e706169642072656e742e5554494c49544945533a20536572766963657320737563682061732077617465722c20656c6563747269636974792c20616e642067617320617265206e6f7420696e636c7564656420696e207468652072656e7420616d6f756e742e5554494c49544945533a20416c6c207574696c6974792073657276696365732062696c6c73206d7573742062652070616964206279207468652074656e616e742e5349474e4154555245533a20426f74682070617274696573206d75737420617070726f7665207468652061677265656d656e7420746f206d616b65206974206c6567616c6c792062696e64696e672e4e4f54494345204f462053414c453a2054656e616e74206d757374206265206e6f74696669656420696e20616476616e6365206966207468652070726f7065727479206973206265696e6720736f6c642c20776974682064657461696c73206f6e20746865206e6577206f776e6572277320726573706f6e736962696c69746965732e52454e5420414d4f554e543a2054686520616d6f756e742070616964206279207468652074656e616e7420746f20746865206c6573736f7220666f72207573696e67207468652070726f70657274792e454e544952452041475245454d454e543a205468697320636f6e747261637420636f6e73746974757465732074686520656e746972652061677265656d656e74206265747765656e20746865207061727469657320616e64207375706572736564657320616e79207072696f722061677265656d656e7473206f7220756e6465727374616e64696e67732e4c414e444c4f52443a205468652070617274792077686f206f776e73207468652070726f706572747920616e64206973206c656173696e6720697420746f207468652074656e616e742e5445524d494e4154494f4e3a20436f6e646974696f6e7320756e64657220776869636820746865206c656173652063616e206265207465726d696e61746564206279206569746865722070617274792e4e4f54494345204f4620414253454e43453a2054656e616e742061677265657320746f206e6f7469667920746865206c616e646c6f726420696620746865792077696c6c20626520617761792066726f6d207468652070726f706572747920666f7220616e20657874656e64656420706572696f642e4755455354533a2054656e616e742061677265657320746f20626520726573706f6e7369626c6520666f722074686520636f6e64756374206f6620746865697220677565737473206f6e207468652070726f706572747920616e6420656e7375726573207468657920636f6d706c792077697468206c65617365207465726d732e454e5452593a204c616e646c6f7264206861732074686520726967687420746f20656e746572207468652070726f706572747920666f7220696e7370656374696f6e732c20726570616972732c206f722073686f77696e67732c20776974682031207765656b206e6f746963652e50524f504552545920464f522053414c453a2054656e616e742061677265657320746f20616c6c6f77207468652070726f706572747920746f2062652073686f776e20746f20706f74656e7469616c20627579657273206f722072656e7465727320776974682031206d6f6e7468206e6f7469636520616e642072656e74206672656520737461792c2066726f6d20746865206c616e646c6f72642e454d455247454e435920434f4e54414354533a2054656e616e74206d7573742070726f7669646520656d657267656e637920636f6e7461637420696e666f726d6174696f6e2c207375636820617320612064657369676e6174656420706572736f6e20746f20726561636820696e2063617365206f6620656d657267656e636965732e52454e54205041594d454e543a2054686520616d6f756e742070616964206279207468652074656e616e7420746f20746865206c6573736f72206d7573742062652070616964206f6e2074686520317374206f662065616368206d6f6e74682e4c414e444c4f5244204541524c59205445524d494e4154494f4e3a204966206c616e646c6f7264207465726d696e61746573207468652061677265656d656e74206265666f7265207465726d696e6174696f6e20646174652c207468652074656e616e742077696c6c20626520616c6c6f77656420746f2073746179206f6e207468652070726f706572747920666f722031206d6f6e74682072656e742066726565206265666f7265206d6f76696e67206f75742e414c5445524154494f4e533a2054656e616e74206d757374206f627461696e207772697474656e207065726d697373696f6e2066726f6d20746865206c616e646c6f7264206265666f7265206d616b696e6720616e7920616c7465726174696f6e732c20696d70726f76656d656e74732c206f72206164646974696f6e7320746f207468652070726f70657274792e52454e4557414c3a204166746572207465726d696e6174696f6e2064617465206120636f6e7472616374206d61792062652072656e65776564206279207468652074656e616e74206279207265626f6f6b696e67207468652070726f70657274792e4e4f5449434520504552494f443a2041206e6f7469636520706572696f64206f662031206d6f6e7468206d75737420626520697373756564206265666f7265207465726d696e6174696e6720746865206c6561736520627920626f7468206c616e646c6f726420616e642074656e616e742e5355424c454153494e473a2050726f7065727479206d757374206f6e6c79206265207573656420666f72207265736964656e7469616c20707572706f736573206f6e6c792c206e6f207375626c656173696e6720776974686f7574207065726d697373696f6e2e4d41494e54454e414e43453a204120646973707574652063616e20626520726169736564206279207468652074656e616e7420616e64207265736f6c76656420627920746865206c616e646c6f7264207468726f7567682072656e74696e6720706f7274616c2e484f5553494e4720434f444520434f4d504c49414e43453a204c616e646c6f7264206167726565732074686174207468652070726f706572747920636f6d706c696573207769746820616c6c206170706c696361626c6520686f7573696e6720636f64657320616e6420726567756c6174696f6e732e4c4154452052454e543a205468657265206973206120677261636520706572696f64206f662031207765656b20666f72206c6174652072656e742c20616674657220776869636820612032252066696e65206d75737420626520616464656420746f207468652072656e7420616d6f756e742e4d41494e54454e414e43453a2054656e616e7420697320726573706f6e7369626c6520666f72206d696e6f72206d61696e74656e616e63652028652e672e2c206368616e67696e67206c696768742062756c62732c20726567756c617220636c65616e696e67292e4c45415345204455524154494f4e3a20546865206475726174696f6e20666f72207768696368207468652070726f7065727479206973206265696e67206c65617365642028652e672e2c203132206d6f6e746873292e574153544520444953504f53414c3a2054656e616e742061677265657320746f20646973706f7365206f662077617374652070726f7065726c792c20666f6c6c6f77696e67206c6f63616c206f7264696e616e63657320616e642072656379636c696e672067756964656c696e65732e4e4f4e2d4449534352494d494e4154494f4e3a20426f7468207061727469657320616772656520746f20636f6d706c792077697468206661697220686f7573696e67206c61777320616e64206e6f74206469736372696d696e617465206261736564206f6e20726163652c20636f6c6f722c2072656c6967696f6e2c207365782c206e6174696f6e616c206f726967696e2c206469736162696c6974792c206f722066616d696c69616c207374617475732e4d41494e54454e414e43453a204c616e646c6f726420697320726573706f6e7369626c6520666f72206d616a6f72207265706169727320616e64206d61696e74656e616e63652028652e672e2c20706c756d62696e67206973737565732c207374727563747572616c2072657061697273292e4e4f544943452044454c49564552593a204e6f746963657320616e6420636f6d6d756e69636174696f6e73206265747765656e206c616e646c6f726420616e642074656e616e742063616e2062652064656c69766572656420696e20706572736f6e2c206279206d61696c2c206f7220656c656374726f6e6963616c6c792e",
  "immutableReferences": {},
  "source": "// SPDX-License-Identifier: MIT\r\npragma solidity ^0.8.19;\r\n\r\ncontract DefaultTerms {\r\n    string[] public defaultTerms;\r\n\r\n    constructor() {\r\n        // Initialize default terms in the constructor\r\n        defaultTerms.push(\r\n            \"LANDLORD: The party who owns the property and is leasing it to the tenant.\"\r\n        );\r\n\r\n        defaultTerms.push(\r\n            \"TENANT: The party who is renting the property from the lessor.\"\r\n        );\r\n\r\n        defaultTerms.push(\r\n            \"LEASE DURATION: The duration for which the property is being leased (e.g., 12 months).\"\r\n        );\r\n\r\n        defaultTerms.push(\r\n            \"RENT AMOUNT: The amount paid by the tenant to the lessor for using the property.\"\r\n        );\r\n\r\n        defaultTerms.push(\r\n            \"RENT PAYMENT: The amount paid by the tenant to the lessor must be paid on the 1st of each month.\"\r\n        );\r\n\r\n        defaultTerms.push(\r\n            \"LATE RENT: There is a grace period of 1 week for late rent, after which a 2% fine must be added to the rent amount.\"\r\n        );\r\n\r\n        defaultTerms.push(\r\n            \"SECURITY DEPOSIT: A refundable amount paid by the tenant as security against damages or unpaid rent.\"\r\n        );\r\n\r\n        defaultTerms.push(\r\n            \"UTILITIES: Services such as water, electricity, and gas are not included in the rent amount.\"\r\n        );\r\n\r\n        defaultTerms.push(\r\n            \"UTILITIES: All utility services bills must be paid by the tenant.\"\r\n        );\r\n\r\n        defaultTerms.push(\r\n            \"MAINTENANCE: Tenant is responsible for minor maintenance (e.g., changing light bulbs, regular cleaning).\"\r\n        );\r\n\r\n        defaultTerms.push(\r\n            \"MAINTENANCE: Landlord is responsible for major repairs and maintenance (e.g., plumbing issues, structural repairs).\"\r\n        );\r\n\r\n        defaultTerms.push(\r\n            \"MAINTENANCE: A dispute can be raised by the tenant and resolved by the landlord through renting portal.\"\r\n        );\r\n\r\n        defaultTerms.push(\r\n            \"SUBLEASING: Property must only be used for residential purposes only, no subleasing without permission.\"\r\n        );\r\n\r\n        defaultTerms.push(\r\n            \"ALTERATIONS: Tenant must obtain written permission from the landlord before making any alterations, improvements, or additions to the property.\"\r\n        );\r\n\r\n        defaultTerms.push(\r\n            \"GUESTS: Tenant agrees to be responsible for the conduct of their guests on the property and ensures they comply with lease terms.\"\r\n        );\r\n\r\n        defaultTerms.push(\r\n            \"NOTICE OF ABSENCE: Tenant agrees to notify the landlord if they will be away from the property for an extended period.\"\r\n        );\r\n\r\n        defaultTerms.push(\r\n            \"EMERGENCY CONTACTS: Tenant must provide emergency contact information, such as a designated person to reach in case of emergencies.\"\r\n        );\r\n\r\n        defaultTerms.push(\r\n            \"PROPERTY DAMAGE: Tenant agrees to report any damages caused by them or their guests promptly and is responsible for repairing or reimbursing the landlord for such damages.\"\r\n        );\r\n\r\n        defaultTerms.push(\r\n            \"WASTE DISPOSAL: Tenant agrees to dispose of waste properly, following local ordinances and recycling guidelines.\"\r\n        );\r\n\r\n        defaultTerms.push(\r\n            \"FIRE SAFETY: Tenant agrees to follow fire safety regulations, such as not blocking exits, keeping smoke detectors operational, and not tampering with fire safety equipment.\"\r\n        );\r\n\r\n        defaultTerms.push(\r\n            \"HOUSING CODE COMPLIANCE: Landlord agrees that the property complies with all applicable housing codes and regulations.\"\r\n        );\r\n\r\n        defaultTerms.push(\r\n            \"ENTRY: Landlord has the right to enter the property for inspections, repairs, or showings, with 1 week notice.\"\r\n        );\r\n\r\n        defaultTerms.push(\r\n            \"TERMINATION: Conditions under which the lease can be terminated by either party.\"\r\n        );\r\n\r\n        defaultTerms.push(\r\n            \"LANDLORD EARLY TERMINATION: If landlord terminates the agreement before termination date, the tenant will be allowed to stay on the property for 1 month rent free before moving out.\"\r\n        );\r\n\r\n        defaultTerms.push(\r\n            \"TENANT EARLY TERMINATION: If tenant terminates the agreement before termination date, the landlord is entitled to 1 month rent which is deducted from the security deposit.\"\r\n        );\r\n\r\n        defaultTerms.push(\r\n            \"RENEWAL: After termination date a contract may be renewed by the tenant by rebooking the property.\"\r\n        );\r\n\r\n        defaultTerms.push(\r\n            \"PROPERTY FOR SALE: Tenant agrees to allow the property to be shown to potential buyers or renters with 1 month notice and rent free stay, from the landlord.\"\r\n        );\r\n\r\n        defaultTerms.push(\r\n            \"NON-DISCRIMINATION: Both parties agree to comply with fair housing laws and not discriminate based on race, color, religion, sex, national origin, disability, or familial status.\"\r\n        );\r\n\r\n        defaultTerms.push(\r\n            \"NOTICE DELIVERY: Notices and communications between landlord and tenant can be delivered in person, by mail, or electronically.\"\r\n        );\r\n\r\n        defaultTerms.push(\r\n            \"NOTICE PERIOD: A notice period of 1 month must be issued before terminating the lease by both landlord and tenant.\"\r\n        );\r\n\r\n        defaultTerms.push(\r\n            \"NOTICE OF SALE: Tenant must be notified in advance if the property is being sold, with details on the new owner's responsibilities.\"\r\n        );\r\n\r\n        defaultTerms.push(\r\n            \"SIGNATURES: Both parties must approve the agreement to make it legally binding.\"\r\n        );\r\n\r\n        defaultTerms.push(\r\n            \"ENTIRE AGREEMENT: This contract constitutes the entire agreement between the parties and supersedes any prior agreements or understandings.\"\r\n        );\r\n    }\r\n\r\n    function getDefaultTerms() external view returns (string[] memory) {\r\n        return defaultTerms;\r\n    }\r\n}\r\n",
  "sourcePath": "C:\\Users\\usman\\OneDrive\\Documents\\FYO\\TranspaRent FYP2\\TranspaRent_v2\\TranspaRent_v2\\Blockchain\\contracts\\DefaultTerms.sol",
  "compiler": {
    "name": "solc",
    "version": "0.8.19+commit.7dd6d404.Emscripten.clang"
  },
  "schemaVersion": "3.4.16",
  "updatedAt": "2024-03-29T02:47:45.066Z",
  "networkType": "ethereum",
  "devdoc": {
    "kind": "dev",
    "methods": {},
    "version": 1
  },
  "userdoc": {
    "kind": "user",
    "methods": {},
    "version": 1
  }
}