{
  "contractName": "DisputeResolution",
  "abi": [
    {
      "inputs": [
        {
          "internalType": "uint256",
          "name": "",
          "type": "uint256"
        }
      ],
      "name": "disputes",
      "outputs": [
        {
          "internalType": "uint256",
          "name": "ID",
          "type": "uint256"
        },
        {
          "internalType": "uint256",
          "name": "agreementID",
          "type": "uint256"
        },
        {
          "internalType": "address",
          "name": "tenant",
          "type": "address"
        },
        {
          "internalType": "address",
          "name": "landlord",
          "type": "address"
        },
        {
          "internalType": "string",
          "name": "title",
          "type": "string"
        },
        {
          "internalType": "string",
          "name": "reason",
          "type": "string"
        },
        {
          "internalType": "string",
          "name": "resolution",
          "type": "string"
        },
        {
          "internalType": "enum DisputeResolution.DisputeStatus",
          "name": "status",
          "type": "uint8"
        }
      ],
      "stateMutability": "view",
      "type": "function",
      "constant": true
    },
    {
      "inputs": [
        {
          "internalType": "uint256",
          "name": "_agreementID",
          "type": "uint256"
        },
        {
          "internalType": "address",
          "name": "_tenant",
          "type": "address"
        },
        {
          "internalType": "address",
          "name": "_landlord",
          "type": "address"
        },
        {
          "internalType": "string",
          "name": "_title",
          "type": "string"
        },
        {
          "internalType": "string",
          "name": "_reason",
          "type": "string"
        }
      ],
      "name": "raiseDispute",
      "outputs": [],
      "stateMutability": "nonpayable",
      "type": "function"
    },
    {
      "inputs": [
        {
          "internalType": "uint256",
          "name": "_disputeID",
          "type": "uint256"
        },
        {
          "internalType": "string",
          "name": "_resolution",
          "type": "string"
        }
      ],
      "name": "resolveDispute",
      "outputs": [],
      "stateMutability": "nonpayable",
      "type": "function"
    },
    {
      "inputs": [
        {
          "internalType": "uint256",
          "name": "_disputeID",
          "type": "uint256"
        }
      ],
      "name": "getDisputeDetails",
      "outputs": [
        {
          "components": [
            {
              "internalType": "uint256",
              "name": "ID",
              "type": "uint256"
            },
            {
              "internalType": "uint256",
              "name": "agreementID",
              "type": "uint256"
            },
            {
              "internalType": "address",
              "name": "tenant",
              "type": "address"
            },
            {
              "internalType": "address",
              "name": "landlord",
              "type": "address"
            },
            {
              "internalType": "string",
              "name": "title",
              "type": "string"
            },
            {
              "internalType": "string",
              "name": "reason",
              "type": "string"
            },
            {
              "internalType": "string",
              "name": "resolution",
              "type": "string"
            },
            {
              "internalType": "enum DisputeResolution.DisputeStatus",
              "name": "status",
              "type": "uint8"
            }
          ],
          "internalType": "struct DisputeResolution.Dispute",
          "name": "",
          "type": "tuple"
        }
      ],
      "stateMutability": "view",
      "type": "function",
      "constant": true
    },
    {
      "inputs": [
        {
          "internalType": "uint256",
          "name": "_agreementID",
          "type": "uint256"
        }
      ],
      "name": "getDisputesForAgreement",
      "outputs": [
        {
          "components": [
            {
              "internalType": "uint256",
              "name": "ID",
              "type": "uint256"
            },
            {
              "internalType": "uint256",
              "name": "agreementID",
              "type": "uint256"
            },
            {
              "internalType": "address",
              "name": "tenant",
              "type": "address"
            },
            {
              "internalType": "address",
              "name": "landlord",
              "type": "address"
            },
            {
              "internalType": "string",
              "name": "title",
              "type": "string"
            },
            {
              "internalType": "string",
              "name": "reason",
              "type": "string"
            },
            {
              "internalType": "string",
              "name": "resolution",
              "type": "string"
            },
            {
              "internalType": "enum DisputeResolution.DisputeStatus",
              "name": "status",
              "type": "uint8"
            }
          ],
          "internalType": "struct DisputeResolution.Dispute[]",
          "name": "",
          "type": "tuple[]"
        }
      ],
      "stateMutability": "view",
      "type": "function",
      "constant": true
    }
  ],
  "bytecode": "0x6080806040523461001657610dfa908161001c8239f35b600080fdfe604060808152600436101561001357600080fd5b60003560e01c80632cde9bef14610857578063564a565d1461078857806395fdbdfb146102ba578063cf51b45d146100af5763ea89735d1461005457600080fd5b346100aa5760203660031901126100aa576100a69061009361008d60043561007a610c98565b506100886000548210610c57565b610a94565b50610cd8565b9051918291602083526020830190610a0f565b0390f35b600080fd5b50346100aa57806003193601126100aa576004359067ffffffffffffffff6024358181116100aa576100e5903690600401610c00565b916100f36000548510610c57565b60ff600761010086610a94565b5001541660028110156102a4576102615750600661011d84610a94565b500191805191821161024b576101338354610ae1565b601f8111610203575b5060209081601f841160011461019357509180610179949260079694600092610188575b50508160011b916000199060031b1c1916179055610a94565b5001805460ff19166001179055005b015190503880610160565b9190601f1984168560005283600020936000905b8282106101eb575050926001928592600798966101799896106101d2575b505050811b019055610a94565b015160001960f88460031b161c191690553880806101c5565b806001869782949787015181550196019401906101a7565b836000526020600020601f840160051c81019160208510610241575b601f0160051c01905b818110610235575061013c565b60008155600101610228565b909150819061021f565b634e487b7160e01b600052604160045260246000fd5b5162461bcd60e51b815260206004820152601860248201527f4469737075746520616c7265616479207265736f6c76656400000000000000006044820152606490fd5b634e487b7160e01b600052602160045260246000fd5b50346100aa5760a03660031901126100aa576001600160a01b0390602435828116908190036100aa576044358381168091036100aa5760643567ffffffffffffffff81116100aa57610310903690600401610c00565b9160843567ffffffffffffffff81116100aa57610331903690600401610c00565b9460005485519561034187610b1b565b81875260208701976004358952818801948552606088019586526080880196875260a0880152805190602082019082821067ffffffffffffffff83111761024b57526000815260c0870152600060e08701526801000000000000000081101561024b578060016103b49201600055610a94565b96909661077257855187555160018701558060028701925116916bffffffffffffffffffffffff60a01b928382541617905560038601925116908254161790555191825167ffffffffffffffff811161024b576104146004830154610ae1565b601f811161072b575b506020601f82116001146106bf57819293946000926106b4575b50508160011b916000199060031b1c19161760048201555b60a082015191825167ffffffffffffffff811161024b576104736005840154610ae1565b601f8111610669575b506020601f82116001146105fd57819293946000926105f2575b50508160011b916000199060031b1c19161760058301555b600682019160c082015192835167ffffffffffffffff811161024b576104d48254610ae1565b601f81116105aa575b506020601f821160011461053c579080600794939260e09697600092610531575b50508160011b916000199060031b1c19161790555b0191015160028110156102a45760ff80198354169116179055600080f35b0151905038806104fe565b601f198216958360005260206000209660005b8181106105925750966001928492600797969560e0999a10610579575b505050811b019055610513565b015160001960f88460031b161c1916905538808061056c565b8383015189556001909801976020938401930161054f565b826000526020600020601f830160051c810191602084106105e8575b601f0160051c01905b8181106105dc57506104dd565b600081556001016105cf565b90915081906105c6565b015190503880610496565b601f198216906005850160005260206000209160005b81811061065157509583600195969710610638575b505050811b0160058301556104ae565b015160001960f88460031b161c19169055388080610628565b9192602060018192868b015181550194019201610613565b600584016000526020600020601f830160051c810191602084106106aa575b601f0160051c01905b81811061069e575061047c565b60008155600101610691565b9091508190610688565b015190503880610437565b601f198216906004840160005260206000209160005b818110610713575095836001959697106106fa575b505050811b01600482015561044f565b015160001960f88460031b161c191690553880806106ea565b9192602060018192868b0151815501940192016106d5565b600483016000526020600020601f830160051c81016020841061076b575b601f830160051c8201811061075f57505061041d565b60008155600101610749565b5080610749565b634e487b7160e01b600052600060045260246000fd5b50346100aa5760203660031901126100aa576004356000548110156100aa576107b090610a94565b50908154906100a661084c60018501549461083e60018060a01b0361083081600285015416916003850154166107e860048601610b5a565b906107f560058701610b5a565b9360ff600761080660068a01610b5a565b980154169980519c8d9c8d5260208d01528b015260608a01526101008060808b01528901906109c2565b9087820360a08901526109c2565b9085820360c08701526109c2565b9160e0840190610a02565b50346100aa576020806003193601126100aa5760008054600435825b82811061098a575061088483610d82565b9261089186519485610b38565b8084526108a0601f1991610d82565b018460005b8281106109745750505060009060005b83811061091a5750505050825191808301818452825180915281858501958260051b8601019301916000955b8287106108ee5785850386f35b90919293828061090a600193603f198a82030186528851610a0f565b96019201960195929190926108e1565b81600161092683610a94565b5001541461093d575b61093890610d5d565b6108b5565b9161096c6109389161095161008d86610a94565b61095b8289610d9a565b526109668188610d9a565b50610d5d565b92905061092f565b61097c610c98565b8282880101520185906108a5565b81600161099683610a94565b500154146109ad575b6109a890610d5d565b610873565b926109ba6109a891610d5d565b93905061099f565b919082519283825260005b8481106109ee575050826000602080949584010152601f8019910116010190565b6020818301810151848301820152016109cd565b9060028210156102a45752565b90610a9190825181526020830151602082015260018060a01b03806040850151166040830152606084015116606082015260e080610a86610a74610a6260808801516101008060808901528701906109c2565b60a088015186820360a08801526109c2565b60c087015185820360c08701526109c2565b940151910190610a02565b90565b906000918254811015610acd5782805260031b7f290decd9548b62a8d60345a988386fc84ba6bc95484008f6362f93160ef3e563019190565b634e487b7160e01b83526032600452602483fd5b90600182811c92168015610b11575b6020831014610afb57565b634e487b7160e01b600052602260045260246000fd5b91607f1691610af0565b610100810190811067ffffffffffffffff82111761024b57604052565b90601f8019910116810190811067ffffffffffffffff82111761024b57604052565b9060405191826000825492610b6e84610ae1565b908184526001948581169081600014610bdd5750600114610b9a575b5050610b9892500383610b38565b565b9093915060005260209081600020936000915b818310610bc5575050610b9893508201013880610b8a565b85548884018501529485019487945091830191610bad565b915050610b9894506020925060ff191682840152151560051b8201013880610b8a565b81601f820112156100aa5780359067ffffffffffffffff821161024b5760405192610c35601f8401601f191660200185610b38565b828452602083830101116100aa57816000926020809301838601378301015290565b15610c5e57565b60405162461bcd60e51b8152602060048201526012602482015271125b9d985b1a5908191a5cdc1d5d1948125160721b6044820152606490fd5b60405190610ca582610b1b565b600060e08382815282602082015282604082015282606082015260606080820152606060a0820152606060c08201520152565b90604051610ce581610b1b565b60ff60078294805484526001810154602085015260018060a01b038060028301541660408601526003820154166060850152610d2360048201610b5a565b6080850152610d3460058201610b5a565b60a0850152610d4560068201610b5a565b60c08501520154169060028210156102a45760e00152565b6000198114610d6c5760010190565b634e487b7160e01b600052601160045260246000fd5b67ffffffffffffffff811161024b5760051b60200190565b8051821015610dae5760209160051b010190565b634e487b7160e01b600052603260045260246000fdfea2646970667358221220aa466d481943e3a4dca40f605e6525cef414c95391559f0a26ff9c67afe77ccc64736f6c63430008130033",
  "immutableReferences": {},
  "source": "// SPDX-License-Identifier: MIT\r\npragma solidity ^0.8.19;\r\n\r\ncontract DisputeResolution {\r\n    enum DisputeStatus { Pending, Solved }\r\n\r\n    struct Dispute {\r\n        uint256 ID;\r\n        uint256 agreementID;  // Reference to the agreement\r\n        address tenant;\r\n        address landlord;\r\n        string title;\r\n        string reason;\r\n        string resolution;\r\n        DisputeStatus status;\r\n    }\r\n\r\n    Dispute[] public disputes;\r\n\r\n    function raiseDispute(\r\n        uint256 _agreementID,\r\n        address _tenant,\r\n        address _landlord,\r\n        string memory _title,\r\n        string memory _reason\r\n    ) external {\r\n\r\n        Dispute memory newDispute = Dispute({\r\n            ID: disputes.length,\r\n            agreementID: _agreementID,\r\n            tenant: _tenant,\r\n            landlord: _landlord,\r\n            title: _title,\r\n            reason: _reason,\r\n            resolution: \"\",\r\n            status: DisputeStatus.Pending\r\n        });\r\n\r\n        disputes.push(newDispute);\r\n    }\r\n\r\n    function resolveDispute(uint256 _disputeID, string memory _resolution) external {\r\n        require(_disputeID < disputes.length, \"Invalid dispute ID\");\r\n        //require(disputes[_disputeID].landlord == msg.sender, \"Only landlord can resolve dispute\");\r\n        require(disputes[_disputeID].status == DisputeStatus.Pending, \"Dispute already resolved\");\r\n\r\n        disputes[_disputeID].resolution = _resolution;\r\n        disputes[_disputeID].status = DisputeStatus.Solved;\r\n    }\r\n\r\n    function getDisputeDetails(uint256 _disputeID) external view returns (Dispute memory) {\r\n        require(_disputeID < disputes.length, \"Invalid dispute ID\");\r\n        return disputes[_disputeID];\r\n    }\r\n\r\n    function getDisputesForAgreement(uint256 _agreementID) external view returns (Dispute[] memory) {\r\n        uint256 count = 0;\r\n        for (uint256 i = 0; i < disputes.length; i++) {\r\n            if (disputes[i].agreementID == _agreementID) {\r\n                count++;\r\n            }\r\n        }\r\n\r\n        Dispute[] memory result = new Dispute[](count);\r\n        uint256 index = 0;\r\n        for (uint256 i = 0; i < disputes.length; i++) {\r\n            if (disputes[i].agreementID == _agreementID) {\r\n                result[index] = disputes[i];\r\n                index++;\r\n            }\r\n        }\r\n\r\n        return result;\r\n    }\r\n\r\n    \r\n}\r\n",
  "sourcePath": "C:\\Users\\usman\\OneDrive\\Documents\\FYO\\TranspaRent FYP2\\TranspaRent_v2\\TranspaRent_v2\\Blockchain\\contracts\\DisputeResolution.sol",
  "compiler": {
    "name": "solc",
    "version": "0.8.19+commit.7dd6d404.Emscripten.clang"
  },
  "schemaVersion": "3.4.16",
  "updatedAt": "2024-04-23T14:30:13.220Z",
  "networkType": "ethereum",
  "devdoc": {
    "kind": "dev",
    "methods": {},
    "version": 1
  },
  "userdoc": {
    "kind": "user",
    "methods": {},
    "version": 1
  }
}