{
  "contractName": "DisputeResolution",
  "abi": [
    {
      "inputs": [
        {
          "internalType": "uint256",
          "name": "",
          "type": "uint256"
        }
      ],
      "name": "disputes",
      "outputs": [
        {
          "internalType": "uint256",
          "name": "ID",
          "type": "uint256"
        },
        {
          "internalType": "uint256",
          "name": "agreementID",
          "type": "uint256"
        },
        {
          "internalType": "address",
          "name": "tenant",
          "type": "address"
        },
        {
          "internalType": "address",
          "name": "landlord",
          "type": "address"
        },
        {
          "internalType": "string",
          "name": "title",
          "type": "string"
        },
        {
          "internalType": "string",
          "name": "reason",
          "type": "string"
        },
        {
          "internalType": "string",
          "name": "resolution",
          "type": "string"
        },
        {
          "internalType": "enum DisputeResolution.DisputeStatus",
          "name": "status",
          "type": "uint8"
        }
      ],
      "stateMutability": "view",
      "type": "function",
      "constant": true
    },
    {
      "inputs": [
        {
          "internalType": "uint256",
          "name": "_agreementID",
          "type": "uint256"
        },
        {
          "internalType": "address",
          "name": "_tenant",
          "type": "address"
        },
        {
          "internalType": "address",
          "name": "_landlord",
          "type": "address"
        },
        {
          "internalType": "string",
          "name": "_title",
          "type": "string"
        },
        {
          "internalType": "string",
          "name": "_reason",
          "type": "string"
        }
      ],
      "name": "raiseDispute",
      "outputs": [],
      "stateMutability": "nonpayable",
      "type": "function"
    },
    {
      "inputs": [
        {
          "internalType": "uint256",
          "name": "_disputeID",
          "type": "uint256"
        },
        {
          "internalType": "string",
          "name": "_resolution",
          "type": "string"
        }
      ],
      "name": "resolveDispute",
      "outputs": [],
      "stateMutability": "nonpayable",
      "type": "function"
    },
    {
      "inputs": [
        {
          "internalType": "uint256",
          "name": "_disputeID",
          "type": "uint256"
        }
      ],
      "name": "getDisputeDetails",
      "outputs": [
        {
          "components": [
            {
              "internalType": "uint256",
              "name": "ID",
              "type": "uint256"
            },
            {
              "internalType": "uint256",
              "name": "agreementID",
              "type": "uint256"
            },
            {
              "internalType": "address",
              "name": "tenant",
              "type": "address"
            },
            {
              "internalType": "address",
              "name": "landlord",
              "type": "address"
            },
            {
              "internalType": "string",
              "name": "title",
              "type": "string"
            },
            {
              "internalType": "string",
              "name": "reason",
              "type": "string"
            },
            {
              "internalType": "string",
              "name": "resolution",
              "type": "string"
            },
            {
              "internalType": "enum DisputeResolution.DisputeStatus",
              "name": "status",
              "type": "uint8"
            }
          ],
          "internalType": "struct DisputeResolution.Dispute",
          "name": "",
          "type": "tuple"
        }
      ],
      "stateMutability": "view",
      "type": "function",
      "constant": true
    },
    {
      "inputs": [
        {
          "internalType": "uint256",
          "name": "_agreementID",
          "type": "uint256"
        }
      ],
      "name": "getDisputesForAgreement",
      "outputs": [
        {
          "components": [
            {
              "internalType": "uint256",
              "name": "ID",
              "type": "uint256"
            },
            {
              "internalType": "uint256",
              "name": "agreementID",
              "type": "uint256"
            },
            {
              "internalType": "address",
              "name": "tenant",
              "type": "address"
            },
            {
              "internalType": "address",
              "name": "landlord",
              "type": "address"
            },
            {
              "internalType": "string",
              "name": "title",
              "type": "string"
            },
            {
              "internalType": "string",
              "name": "reason",
              "type": "string"
            },
            {
              "internalType": "string",
              "name": "resolution",
              "type": "string"
            },
            {
              "internalType": "enum DisputeResolution.DisputeStatus",
              "name": "status",
              "type": "uint8"
            }
          ],
          "internalType": "struct DisputeResolution.Dispute[]",
          "name": "",
          "type": "tuple[]"
        }
      ],
      "stateMutability": "view",
      "type": "function",
      "constant": true
    }
  ],
  "bytecode": "0x608060405234801561001057600080fd5b50611ade806100206000396000f3fe608060405234801561001057600080fd5b50600436106100575760003560e01c80632cde9bef1461005c578063564a565d1461008c57806395fdbdfb146100c3578063cf51b45d146100df578063ea89735d146100fb575b600080fd5b61007660048036038101906100719190610ecc565b61012b565b60405161008391906111d0565b60405180910390f35b6100a660048036038101906100a19190610ecc565b61054d565b6040516100ba989796959493929190611269565b60405180910390f35b6100dd60048036038101906100d8919061145d565b61078a565b005b6100f960048036038101906100f49190611510565b610965565b005b61011560048036038101906101109190610ecc565b610aca565b604051610122919061162a565b60405180910390f35b60606000805b60008054905081101561018c5783600082815481106101535761015261164c565b5b90600052602060002090600802016001015403610179578180610175906116aa565b9250505b8080610184906116aa565b915050610131565b5060008167ffffffffffffffff8111156101a9576101a8611332565b5b6040519080825280602002602001820160405280156101e257816020015b6101cf610dff565b8152602001906001900390816101c75790505b5090506000805b60008054905081101561054157856000828154811061020b5761020a61164c565b5b9060005260206000209060080201600101540361052e57600081815481106102365761023561164c565b5b90600052602060002090600802016040518061010001604052908160008201548152602001600182015481526020016002820160009054906101000a900473ffffffffffffffffffffffffffffffffffffffff1673ffffffffffffffffffffffffffffffffffffffff1673ffffffffffffffffffffffffffffffffffffffff1681526020016003820160009054906101000a900473ffffffffffffffffffffffffffffffffffffffff1673ffffffffffffffffffffffffffffffffffffffff1673ffffffffffffffffffffffffffffffffffffffff16815260200160048201805461032090611721565b80601f016020809104026020016040519081016040528092919081815260200182805461034c90611721565b80156103995780601f1061036e57610100808354040283529160200191610399565b820191906000526020600020905b81548152906001019060200180831161037c57829003601f168201915b505050505081526020016005820180546103b290611721565b80601f01602080910402602001604051908101604052809291908181526020018280546103de90611721565b801561042b5780601f106104005761010080835404028352916020019161042b565b820191906000526020600020905b81548152906001019060200180831161040e57829003601f168201915b5050505050815260200160068201805461044490611721565b80601f016020809104026020016040519081016040528092919081815260200182805461047090611721565b80156104bd5780601f10610492576101008083540402835291602001916104bd565b820191906000526020600020905b8154815290600101906020018083116104a057829003601f168201915b505050505081526020016007820160009054906101000a900460ff1660018111156104eb576104ea611005565b5b60018111156104fd576104fc611005565b5b815250508383815181106105145761051361164c565b5b6020026020010181905250818061052a906116aa565b9250505b8080610539906116aa565b9150506101e9565b50819350505050919050565b6000818154811061055d57600080fd5b90600052602060002090600802016000915090508060000154908060010154908060020160009054906101000a900473ffffffffffffffffffffffffffffffffffffffff16908060030160009054906101000a900473ffffffffffffffffffffffffffffffffffffffff16908060040180546105d890611721565b80601f016020809104026020016040519081016040528092919081815260200182805461060490611721565b80156106515780601f1061062657610100808354040283529160200191610651565b820191906000526020600020905b81548152906001019060200180831161063457829003601f168201915b50505050509080600501805461066690611721565b80601f016020809104026020016040519081016040528092919081815260200182805461069290611721565b80156106df5780601f106106b4576101008083540402835291602001916106df565b820191906000526020600020905b8154815290600101906020018083116106c257829003601f168201915b5050505050908060060180546106f490611721565b80601f016020809104026020016040519081016040528092919081815260200182805461072090611721565b801561076d5780601f106107425761010080835404028352916020019161076d565b820191906000526020600020905b81548152906001019060200180831161075057829003601f168201915b5050505050908060070160009054906101000a900460ff16905088565b600060405180610100016040528060008054905081526020018781526020018673ffffffffffffffffffffffffffffffffffffffff1681526020018573ffffffffffffffffffffffffffffffffffffffff1681526020018481526020018381526020016040518060200160405280600081525081526020016000600181111561081657610815611005565b5b81525090506000819080600181540180825580915050600190039060005260206000209060080201600090919091909150600082015181600001556020820151816001015560408201518160020160006101000a81548173ffffffffffffffffffffffffffffffffffffffff021916908373ffffffffffffffffffffffffffffffffffffffff16021790555060608201518160030160006101000a81548173ffffffffffffffffffffffffffffffffffffffff021916908373ffffffffffffffffffffffffffffffffffffffff16021790555060808201518160040190816108fe91906118fe565b5060a082015181600501908161091491906118fe565b5060c082015181600601908161092a91906118fe565b5060e08201518160070160006101000a81548160ff0219169083600181111561095657610955611005565b5b02179055505050505050505050565b60008054905082106109ac576040517f08c379a00000000000000000000000000000000000000000000000000000000081526004016109a390611a1c565b60405180910390fd5b600060018111156109c0576109bf611005565b5b600083815481106109d4576109d361164c565b5b906000526020600020906008020160070160009054906101000a900460ff166001811115610a0557610a04611005565b5b14610a45576040517f08c379a0000000000000000000000000000000000000000000000000000000008152600401610a3c90611a88565b60405180910390fd5b8060008381548110610a5a57610a5961164c565b5b90600052602060002090600802016006019081610a7791906118fe565b50600160008381548110610a8e57610a8d61164c565b5b906000526020600020906008020160070160006101000a81548160ff02191690836001811115610ac157610ac0611005565b5b02179055505050565b610ad2610dff565b6000805490508210610b19576040517f08c379a0000000000000000000000000000000000000000000000000000000008152600401610b1090611a1c565b60405180910390fd5b60008281548110610b2d57610b2c61164c565b5b90600052602060002090600802016040518061010001604052908160008201548152602001600182015481526020016002820160009054906101000a900473ffffffffffffffffffffffffffffffffffffffff1673ffffffffffffffffffffffffffffffffffffffff1673ffffffffffffffffffffffffffffffffffffffff1681526020016003820160009054906101000a900473ffffffffffffffffffffffffffffffffffffffff1673ffffffffffffffffffffffffffffffffffffffff1673ffffffffffffffffffffffffffffffffffffffff168152602001600482018054610c1790611721565b80601f0160208091040260200160405190810160405280929190818152602001828054610c4390611721565b8015610c905780601f10610c6557610100808354040283529160200191610c90565b820191906000526020600020905b815481529060010190602001808311610c7357829003601f168201915b50505050508152602001600582018054610ca990611721565b80601f0160208091040260200160405190810160405280929190818152602001828054610cd590611721565b8015610d225780601f10610cf757610100808354040283529160200191610d22565b820191906000526020600020905b815481529060010190602001808311610d0557829003601f168201915b50505050508152602001600682018054610d3b90611721565b80601f0160208091040260200160405190810160405280929190818152602001828054610d6790611721565b8015610db45780601f10610d8957610100808354040283529160200191610db4565b820191906000526020600020905b815481529060010190602001808311610d9757829003601f168201915b505050505081526020016007820160009054906101000a900460ff166001811115610de257610de1611005565b5b6001811115610df457610df3611005565b5b815250509050919050565b6040518061010001604052806000815260200160008152602001600073ffffffffffffffffffffffffffffffffffffffff168152602001600073ffffffffffffffffffffffffffffffffffffffff16815260200160608152602001606081526020016060815260200160006001811115610e7c57610e7b611005565b5b81525090565b6000604051905090565b600080fd5b600080fd5b6000819050919050565b610ea981610e96565b8114610eb457600080fd5b50565b600081359050610ec681610ea0565b92915050565b600060208284031215610ee257610ee1610e8c565b5b6000610ef084828501610eb7565b91505092915050565b600081519050919050565b600082825260208201905092915050565b6000819050602082019050919050565b610f2e81610e96565b82525050565b600073ffffffffffffffffffffffffffffffffffffffff82169050919050565b6000610f5f82610f34565b9050919050565b610f6f81610f54565b82525050565b600081519050919050565b600082825260208201905092915050565b60005b83811015610faf578082015181840152602081019050610f94565b60008484015250505050565b6000601f19601f8301169050919050565b6000610fd782610f75565b610fe18185610f80565b9350610ff1818560208601610f91565b610ffa81610fbb565b840191505092915050565b7f4e487b7100000000000000000000000000000000000000000000000000000000600052602160045260246000fd5b6002811061104557611044611005565b5b50565b600081905061105682611034565b919050565b600061106682611048565b9050919050565b6110768161105b565b82525050565b6000610100830160008301516110956000860182610f25565b5060208301516110a86020860182610f25565b5060408301516110bb6040860182610f66565b5060608301516110ce6060860182610f66565b50608083015184820360808601526110e68282610fcc565b91505060a083015184820360a08601526111008282610fcc565b91505060c083015184820360c086015261111a8282610fcc565b91505060e083015161112f60e086018261106d565b508091505092915050565b6000611146838361107c565b905092915050565b6000602082019050919050565b600061116682610ef9565b6111708185610f04565b93508360208202850161118285610f15565b8060005b858110156111be578484038952815161119f858261113a565b94506111aa8361114e565b925060208a01995050600181019050611186565b50829750879550505050505092915050565b600060208201905081810360008301526111ea818461115b565b905092915050565b6111fb81610e96565b82525050565b61120a81610f54565b82525050565b600082825260208201905092915050565b600061122c82610f75565b6112368185611210565b9350611246818560208601610f91565b61124f81610fbb565b840191505092915050565b6112638161105b565b82525050565b60006101008201905061127f600083018b6111f2565b61128c602083018a6111f2565b6112996040830189611201565b6112a66060830188611201565b81810360808301526112b88187611221565b905081810360a08301526112cc8186611221565b905081810360c08301526112e08185611221565b90506112ef60e083018461125a565b9998505050505050505050565b61130581610f54565b811461131057600080fd5b50565b600081359050611322816112fc565b92915050565b600080fd5b600080fd5b7f4e487b7100000000000000000000000000000000000000000000000000000000600052604160045260246000fd5b61136a82610fbb565b810181811067ffffffffffffffff8211171561138957611388611332565b5b80604052505050565b600061139c610e82565b90506113a88282611361565b919050565b600067ffffffffffffffff8211156113c8576113c7611332565b5b6113d182610fbb565b9050602081019050919050565b82818337600083830152505050565b60006114006113fb846113ad565b611392565b90508281526020810184848401111561141c5761141b61132d565b5b6114278482856113de565b509392505050565b600082601f83011261144457611443611328565b5b81356114548482602086016113ed565b91505092915050565b600080600080600060a0868803121561147957611478610e8c565b5b600061148788828901610eb7565b955050602061149888828901611313565b94505060406114a988828901611313565b935050606086013567ffffffffffffffff8111156114ca576114c9610e91565b5b6114d68882890161142f565b925050608086013567ffffffffffffffff8111156114f7576114f6610e91565b5b6115038882890161142f565b9150509295509295909350565b6000806040838503121561152757611526610e8c565b5b600061153585828601610eb7565b925050602083013567ffffffffffffffff81111561155657611555610e91565b5b6115628582860161142f565b9150509250929050565b6000610100830160008301516115856000860182610f25565b5060208301516115986020860182610f25565b5060408301516115ab6040860182610f66565b5060608301516115be6060860182610f66565b50608083015184820360808601526115d68282610fcc565b91505060a083015184820360a08601526115f08282610fcc565b91505060c083015184820360c086015261160a8282610fcc565b91505060e083015161161f60e086018261106d565b508091505092915050565b60006020820190508181036000830152611644818461156c565b905092915050565b7f4e487b7100000000000000000000000000000000000000000000000000000000600052603260045260246000fd5b7f4e487b7100000000000000000000000000000000000000000000000000000000600052601160045260246000fd5b60006116b582610e96565b91507fffffffffffffffffffffffffffffffffffffffffffffffffffffffffffffffff82036116e7576116e661167b565b5b600182019050919050565b7f4e487b7100000000000000000000000000000000000000000000000000000000600052602260045260246000fd5b6000600282049050600182168061173957607f821691505b60208210810361174c5761174b6116f2565b5b50919050565b60008190508160005260206000209050919050565b60006020601f8301049050919050565b600082821b905092915050565b6000600883026117b47fffffffffffffffffffffffffffffffffffffffffffffffffffffffffffffffff82611777565b6117be8683611777565b95508019841693508086168417925050509392505050565b6000819050919050565b60006117fb6117f66117f184610e96565b6117d6565b610e96565b9050919050565b6000819050919050565b611815836117e0565b61182961182182611802565b848454611784565b825550505050565b600090565b61183e611831565b61184981848461180c565b505050565b5b8181101561186d57611862600082611836565b60018101905061184f565b5050565b601f8211156118b25761188381611752565b61188c84611767565b8101602085101561189b578190505b6118af6118a785611767565b83018261184e565b50505b505050565b600082821c905092915050565b60006118d5600019846008026118b7565b1980831691505092915050565b60006118ee83836118c4565b9150826002028217905092915050565b61190782610f75565b67ffffffffffffffff8111156119205761191f611332565b5b61192a8254611721565b611935828285611871565b600060209050601f8311600181146119685760008415611956578287015190505b61196085826118e2565b8655506119c8565b601f19841661197686611752565b60005b8281101561199e57848901518255600182019150602085019450602081019050611979565b868310156119bb57848901516119b7601f8916826118c4565b8355505b6001600288020188555050505b505050505050565b7f496e76616c696420646973707574652049440000000000000000000000000000600082015250565b6000611a06601283611210565b9150611a11826119d0565b602082019050919050565b60006020820190508181036000830152611a35816119f9565b9050919050565b7f4469737075746520616c7265616479207265736f6c7665640000000000000000600082015250565b6000611a72601883611210565b9150611a7d82611a3c565b602082019050919050565b60006020820190508181036000830152611aa181611a65565b905091905056fea264697066735822122032a1f82a9285f35d46081b01992eea807b989c87306caf4405bc3bb1723c595c64736f6c63430008130033",
  "immutableReferences": {},
  "source": "// SPDX-License-Identifier: MIT\r\npragma solidity ^0.8.19;\r\n\r\ncontract DisputeResolution {\r\n    enum DisputeStatus { Pending, Solved }\r\n\r\n    struct Dispute {\r\n        uint256 ID;\r\n        uint256 agreementID;  // Reference to the agreement\r\n        address tenant;\r\n        address landlord;\r\n        string title;\r\n        string reason;\r\n        string resolution;\r\n        DisputeStatus status;\r\n    }\r\n\r\n    Dispute[] public disputes;\r\n\r\n    function raiseDispute(\r\n        uint256 _agreementID,\r\n        address _tenant,\r\n        address _landlord,\r\n        string memory _title,\r\n        string memory _reason\r\n    ) external {\r\n\r\n        Dispute memory newDispute = Dispute({\r\n            ID: disputes.length,\r\n            agreementID: _agreementID,\r\n            tenant: _tenant,\r\n            landlord: _landlord,\r\n            title: _title,\r\n            reason: _reason,\r\n            resolution: \"\",\r\n            status: DisputeStatus.Pending\r\n        });\r\n\r\n        disputes.push(newDispute);\r\n    }\r\n\r\n    function resolveDispute(uint256 _disputeID, string memory _resolution) external {\r\n        require(_disputeID < disputes.length, \"Invalid dispute ID\");\r\n        //require(disputes[_disputeID].landlord == msg.sender, \"Only landlord can resolve dispute\");\r\n        require(disputes[_disputeID].status == DisputeStatus.Pending, \"Dispute already resolved\");\r\n\r\n        disputes[_disputeID].resolution = _resolution;\r\n        disputes[_disputeID].status = DisputeStatus.Solved;\r\n    }\r\n\r\n    function getDisputeDetails(uint256 _disputeID) external view returns (Dispute memory) {\r\n        require(_disputeID < disputes.length, \"Invalid dispute ID\");\r\n        return disputes[_disputeID];\r\n    }\r\n\r\n    function getDisputesForAgreement(uint256 _agreementID) external view returns (Dispute[] memory) {\r\n        uint256 count = 0;\r\n        for (uint256 i = 0; i < disputes.length; i++) {\r\n            if (disputes[i].agreementID == _agreementID) {\r\n                count++;\r\n            }\r\n        }\r\n\r\n        Dispute[] memory result = new Dispute[](count);\r\n        uint256 index = 0;\r\n        for (uint256 i = 0; i < disputes.length; i++) {\r\n            if (disputes[i].agreementID == _agreementID) {\r\n                result[index] = disputes[i];\r\n                index++;\r\n            }\r\n        }\r\n\r\n        return result;\r\n    }\r\n\r\n    \r\n}\r\n",
  "sourcePath": "C:\\Users\\usman\\OneDrive\\Documents\\FYO\\TranspaRent FYP2\\TranspaRent_v2\\TranspaRent_v2\\Blockchain\\contracts\\DisputeResolution.sol",
  "compiler": {
    "name": "solc",
    "version": "0.8.19+commit.7dd6d404.Emscripten.clang"
  },
  "schemaVersion": "3.4.16",
  "updatedAt": "2024-03-29T02:47:44.980Z",
  "networkType": "ethereum",
  "devdoc": {
    "kind": "dev",
    "methods": {},
    "version": 1
  },
  "userdoc": {
    "kind": "user",
    "methods": {},
    "version": 1
  }
}