{
  "contractName": "Payment",
  "abi": [
    {
      "anonymous": false,
      "inputs": [
        {
          "indexed": true,
          "internalType": "address",
          "name": "approver",
          "type": "address"
        },
        {
          "indexed": false,
          "internalType": "string",
          "name": "propertyID",
          "type": "string"
        },
        {
          "indexed": false,
          "internalType": "enum Payment.PaymentStatus",
          "name": "status",
          "type": "uint8"
        }
      ],
      "name": "PaymentApproved",
      "type": "event"
    },
    {
      "anonymous": false,
      "inputs": [
        {
          "indexed": true,
          "internalType": "address",
          "name": "tenant",
          "type": "address"
        },
        {
          "indexed": true,
          "internalType": "address",
          "name": "landlord",
          "type": "address"
        },
        {
          "indexed": false,
          "internalType": "string",
          "name": "propertyID",
          "type": "string"
        },
        {
          "indexed": false,
          "internalType": "uint256",
          "name": "amount",
          "type": "uint256"
        }
      ],
      "name": "PaymentCreated",
      "type": "event"
    },
    {
      "anonymous": false,
      "inputs": [
        {
          "indexed": false,
          "internalType": "string",
          "name": "propertyID",
          "type": "string"
        },
        {
          "indexed": false,
          "internalType": "enum Payment.PaymentStatus",
          "name": "newStatus",
          "type": "uint8"
        }
      ],
      "name": "PaymentStatusChanged",
      "type": "event"
    },
    {
      "inputs": [
        {
          "internalType": "uint256",
          "name": "",
          "type": "uint256"
        }
      ],
      "name": "paymentsRegistry",
      "outputs": [
        {
          "internalType": "address",
          "name": "landlord",
          "type": "address"
        },
        {
          "internalType": "address",
          "name": "tenant",
          "type": "address"
        },
        {
          "internalType": "string",
          "name": "propertyID",
          "type": "string"
        },
        {
          "internalType": "uint256",
          "name": "escrowAmount",
          "type": "uint256"
        },
        {
          "internalType": "bool",
          "name": "tenantApproved",
          "type": "bool"
        },
        {
          "internalType": "bool",
          "name": "landlordApproved",
          "type": "bool"
        },
        {
          "internalType": "enum Payment.PaymentStatus",
          "name": "status",
          "type": "uint8"
        }
      ],
      "stateMutability": "view",
      "type": "function",
      "constant": true
    },
    {
      "inputs": [
        {
          "internalType": "address",
          "name": "_tenant",
          "type": "address"
        },
        {
          "internalType": "address",
          "name": "_landlord",
          "type": "address"
        },
        {
          "internalType": "string",
          "name": "_propertyID",
          "type": "string"
        },
        {
          "internalType": "uint256",
          "name": "_amount",
          "type": "uint256"
        }
      ],
      "name": "createPayment",
      "outputs": [],
      "stateMutability": "nonpayable",
      "type": "function"
    },
    {
      "inputs": [
        {
          "internalType": "address",
          "name": "_tenant",
          "type": "address"
        },
        {
          "internalType": "address",
          "name": "_landlord",
          "type": "address"
        },
        {
          "internalType": "string",
          "name": "_propertyID",
          "type": "string"
        }
      ],
      "name": "makePayment",
      "outputs": [],
      "stateMutability": "nonpayable",
      "type": "function"
    },
    {
      "inputs": [
        {
          "internalType": "address",
          "name": "_tenant",
          "type": "address"
        },
        {
          "internalType": "address",
          "name": "_landlord",
          "type": "address"
        },
        {
          "internalType": "string",
          "name": "_propertyID",
          "type": "string"
        }
      ],
      "name": "disapprovePayment",
      "outputs": [],
      "stateMutability": "nonpayable",
      "type": "function"
    },
    {
      "inputs": [
        {
          "internalType": "address",
          "name": "_tenant",
          "type": "address"
        },
        {
          "internalType": "address",
          "name": "_landlord",
          "type": "address"
        },
        {
          "internalType": "string",
          "name": "_propertyID",
          "type": "string"
        }
      ],
      "name": "getPaymentDetails",
      "outputs": [
        {
          "components": [
            {
              "internalType": "address",
              "name": "landlord",
              "type": "address"
            },
            {
              "internalType": "address",
              "name": "tenant",
              "type": "address"
            },
            {
              "internalType": "string",
              "name": "propertyID",
              "type": "string"
            },
            {
              "internalType": "uint256",
              "name": "escrowAmount",
              "type": "uint256"
            },
            {
              "internalType": "bool",
              "name": "tenantApproved",
              "type": "bool"
            },
            {
              "internalType": "bool",
              "name": "landlordApproved",
              "type": "bool"
            },
            {
              "internalType": "enum Payment.PaymentStatus",
              "name": "status",
              "type": "uint8"
            }
          ],
          "internalType": "struct Payment.PaymentInfo",
          "name": "",
          "type": "tuple"
        }
      ],
      "stateMutability": "view",
      "type": "function",
      "constant": true
    },
    {
      "inputs": [],
      "name": "registryLength",
      "outputs": [
        {
          "internalType": "uint256",
          "name": "",
          "type": "uint256"
        }
      ],
      "stateMutability": "view",
      "type": "function",
      "constant": true
    }
  ],
  "bytecode": "0x6080806040523461001657611064908161001c8239f35b600080fdfe6080604090808252600436101561001557600080fd5b600091823560e01c91826318e7c3c01461023c5750816328c935cb14610193578163321b93c51461012b5781634e0bbbfc1461009b57508063646d992b14610083576379e76d411461006657600080fd5b346100805761007d6100773661049f565b916109d7565b80f35b80fd5b50346100805761007d6100953661049f565b91610cc1565b905034610127576100f5906100b86100b23661049f565b91610e67565b61012360c083519485946020865260018060a01b038086511660208801526020860151168187015284015160e060608701526101008601906103fb565b92606081015160808601526080810151151560a086015260a0810151151582860152015160e0840190610420565b0390f35b5080fd5b8234610080576080366003190112610080576001600160a01b03600435818116810361018f57602435918216820361018f576044359167ffffffffffffffff831161018b5761018161007d933690600401610443565b9060643592610598565b8380fd5b8280fd5b82346100805760203660031901126100805760043590805482101561008057506101bc90610256565b50805460018201546001600160a01b0390811693911691906101239061020d6101e760028501610332565b60e0600460038701549601549380519889988952602089015287015260e08601906103fb565b92606085015260ff81161515608085015260ff8160081c16151560a085015260ff60c085019160101c16610420565b839034610127578160031936011261012757602091548152f35b90600091825481101561029057600590838052027f290decd9548b62a8d60345a988386fc84ba6bc95484008f6362f93160ef3e563019190565b634e487b7160e01b83526032600452602483fd5b90600182811c921680156102d4575b60208310146102be57565b634e487b7160e01b600052602260045260246000fd5b91607f16916102b3565b60e0810190811067ffffffffffffffff8211176102fa57604052565b634e487b7160e01b600052604160045260246000fd5b90601f8019910116810190811067ffffffffffffffff8211176102fa57604052565b9060405191826000825492610346846102a4565b9081845260019485811690816000146103b55750600114610372575b505061037092500383610310565b565b9093915060005260209081600020936000915b81831061039d57505061037093508201013880610362565b85548884018501529485019487945091830191610385565b91505061037094506020925060ff191682840152151560051b8201013880610362565b60005b8381106103eb5750506000910152565b81810151838201526020016103db565b90602091610414815180928185528580860191016103d8565b601f01601f1916010190565b90600382101561042d5752565b634e487b7160e01b600052602160045260246000fd5b81601f8201121561049a5780359067ffffffffffffffff82116102fa5760405192610478601f8401601f191660200185610310565b8284526020838301011161049a57816000926020809301838601378301015290565b600080fd5b606060031982011261049a576001600160a01b0391600435838116810361049a5792602435908116810361049a57916044359067ffffffffffffffff821161049a576104ed91600401610443565b90565b60001981146104ff5760010190565b634e487b7160e01b600052601160045260246000fd5b600092918154610524816102a4565b9260019180831690811561057d5750600114610541575b50505050565b90919293945060005260209081600020906000915b85831061056c575050505001903880808061053b565b805485840152918301918101610556565b60ff191684525050508115159091020191503880808061053b565b929060005b6000548110156107e8576105b081610256565b50546001600160a01b039081168382161490816107cc575b5080610762575b6105e2575b6105dd906104f0565b61059d565b6105eb81610256565b5060ff60048092015481601091821c169160039283811015610709571561071e57808461061787610256565b500154831c1683811015610709576001149182156106cf575b505061063d5750506105d4565b7f8063c139343efeded19e00dae810cbde66e41b70537c989d31da297311aad11896506106a3935061067183959295610256565b5001558261067e82610256565b5001805462ff0000191690558261069482610256565b5001805460ff19169055610256565b500161ff0019815416905560406106c381519282849384528301906103fb565b600060208301520390a1565b909150836106dc86610256565b500154901c16818110156106f4576002143880610630565b602183634e487b7160e01b6000525260246000fd5b602185634e487b7160e01b6000525260246000fd5b60405162461bcd60e51b8152602081860152601f60248201527f53696d696c6172205061796d656e7420616c72656164792070656e64696e67006044820152606490fd5b5061076c81610256565b50604090600282516107988161078a60209586830195869101610515565b03601f198101835282610310565b51902091516107c38282019282816107b68b878151938492016103d8565b8101038084520182610310565b519020146105cf565b80915060016107da84610256565b5001541690861614386105c8565b509190600054680100000000000000008110156102fa57610810600191828101600055610256565b509060018060a01b03809516956bffffffffffffffffffffffff60a01b95878785541617845582840191168096825416179055600282019084519067ffffffffffffffff82116102fa5761086483546102a4565b601f811161098c575b506020601f83116001146108fe579282806004947f3cdce59d32dc0f6077fec74a4f87b9c148286f1c5e4aa00d16ea667acba21f879997946108e899976000936108f3575b501b916000199060031b1c19161790555b8260038201550162ffffff1981541690556040519283926040845260408401906103fb565b9060208301520390a3565b8901519250386108b2565b601f9291921982169084600052806000209160005b8181106109765750926108e897959260049592827f3cdce59d32dc0f6077fec74a4f87b9c148286f1c5e4aa00d16ea667acba21f879b99961061095d575b5050811b0190556108c3565b88015160001960f88460031b161c191690553880610951565b8983015184559285019260209283019201610913565b836000526020600020601f840160051c810191602085106109cd575b601f0160051c019082905b8281106109c157505061086d565b600081550182906109b3565b90915081906109a8565b90916000805b8154811015610cba576109ef81610256565b506001908101546001600160a01b0386811692918116831480610ca3575b80610c54575b610a2857505050610a23906104f0565b6109dd565b92610a399195965096939196610256565b509160048093019384549760ff986010948a82871c16906003821015610c415750610c04578888833314610ba6575b505050501691823314610af5575b505050805493808560081c169081610aeb575b50610a945750505050565b620100007f8063c139343efeded19e00dae810cbde66e41b70537c989d31da297311aad1189462ff00001916179055604090610ad982519383859485528401906103fb565b9060208301520390a13880808061053b565b9050841638610a89565b83549087821615610b6257507f31cc8eda806220772e2cff8a835de0d317d4593dc12df03131d34c61a6dae5ba91610100610b4a9261ff00191617808655610b576040928a845195858796875286018c6103fb565b9360208601921c16610420565b0390a2388080610a76565b60649060206040519162461bcd60e51b8352820152601b60248201527f54656e616e7420686173206e6f7420417070726f7665642079657400000000006044820152fd5b7f31cc8eda806220772e2cff8a835de0d317d4593dc12df03131d34c61a6dae5ba9260ff1916178089558b610bf8604092610bea84519585879687528601906103fb565b9260208501918b1c16610420565b0390a238808888610a68565b60405162461bcd60e51b815260208188015260166024820152755061796d656e74206973206e6f742050656e64696e6760501b6044820152606490fd5b634e487b7160e01b815260218852602490fd5b50610c5e84610256565b5060409060028251610c7c8161078a60209586830195869101610515565b5190209151610c9a8282019282816107b68d878151938492016103d8565b51902014610a13565b5080610cae85610256565b50541681891614610a0d565b5050505050565b91929092600093845b8554811015610e5f576001610cde82610256565b50818060a01b03918291015416818716149081610e46575b5080610df9575b610d0f57610d0a906104f0565b610cca565b9050610d1d91929350610256565b5060048091019081549460ff8660101c16906003821015610de65750610d8f5750620200007f8063c139343efeded19e00dae810cbde66e41b70537c989d31da297311aad118939462ff000019161790556040610d8381519282849384528301906103fb565b600260208301520390a1565b60849060206040519162461bcd60e51b8352820152602a60248201527f5061796d656e74206973206e6f742050656e64696e67206f7220616c726561646044820152691e4814995d1d5c9b995960b21b6064820152fd5b634e487b7160e01b815260218352602490fd5b50610e0381610256565b5060409060028251610e218161078a60209586830195869101610515565b5190209151610e3d828201928288516107b68187858d016103d8565b51902014610cfd565b809150610e5283610256565b5054169083161438610cf6565b505050915050565b91604091825193610e77856102de565b6000948581526020958087830152606092838784015281848401526080828185015260a0838186015260c09484868201525083978454985b898110610eee578a5162461bcd60e51b8152600481018d9052601160248201527014185e5b595b9d081b9bdd08199bdd5b99607a1b6044820152606490fd5b610ef781610256565b506001908101546001600160a01b03908116878216148d8f82611014575b82610fc5575b5050610f31575050610f2c906104f0565b610eaf565b989b95509b939699509050610f4891949750610256565b5094825199610f568b6102de565b818754168b528601541690890152610f7060028501610332565b9088015260039586840154908801526004809301549060ff92838316151590890152828260081c1615159088015260101c1693841015610fb257505082015290565b634e487b7160e01b825260219052602490fd5b909150600261078a610feb610fd988610256565b50855192839186830195869101610515565b51902091516110098282019282816107b68b878151938492016103d8565b519020148d8f610f1b565b91508c838061102288610256565b50541691161491610f1556fea2646970667358221220000f52267c23a3e179b8596e525a6e72b9ba4be890cdb03b89354a36869c575464736f6c63430008130033",
  "immutableReferences": {},
  "source": "// SPDX-License-Identifier: MIT\r\npragma solidity ^0.8.19;\r\n\r\ncontract Payment {\r\n    enum PaymentStatus {\r\n        Pending,\r\n        Paid,\r\n        Returned\r\n    }\r\n\r\n    struct PaymentInfo {\r\n        address landlord;\r\n        address tenant;\r\n        string propertyID;\r\n        uint256 escrowAmount;\r\n        bool tenantApproved;\r\n        bool landlordApproved;\r\n        PaymentStatus status;\r\n    }\r\n\r\n    PaymentInfo[] public paymentsRegistry;\r\n\r\n    // Event definitions for debugging\r\n    event PaymentCreated(address indexed tenant, address indexed landlord, string propertyID, uint256 amount);\r\n    event PaymentApproved(address indexed approver, string propertyID, PaymentStatus status);\r\n    event PaymentStatusChanged(string propertyID, PaymentStatus newStatus);\r\n\r\n    // Basic Contract Functions\r\n    function createPayment(\r\n        address _tenant,\r\n        address _landlord,\r\n        string memory _propertyID,\r\n        uint256 _amount\r\n    ) external {\r\n        for (uint i = 0; i < paymentsRegistry.length; i++) {\r\n            if (\r\n                paymentsRegistry[i].landlord == _landlord &&\r\n                paymentsRegistry[i].tenant == _tenant &&\r\n                keccak256(abi.encodePacked(paymentsRegistry[i].propertyID)) == keccak256(abi.encodePacked(_propertyID))\r\n            ) {\r\n                if (paymentsRegistry[i].status == PaymentStatus.Pending) {\r\n                    revert(\"Similar Payment already pending\");\r\n                }\r\n\r\n                if (\r\n                    paymentsRegistry[i].status == PaymentStatus.Paid ||\r\n                    paymentsRegistry[i].status == PaymentStatus.Returned\r\n                ) {\r\n                    paymentsRegistry[i].escrowAmount = _amount;\r\n                    paymentsRegistry[i].status = PaymentStatus.Pending;\r\n                    paymentsRegistry[i].tenantApproved = false;\r\n                    paymentsRegistry[i].landlordApproved = false;\r\n                    emit PaymentStatusChanged(_propertyID, PaymentStatus.Pending);\r\n                    return;\r\n                }\r\n            }\r\n        }\r\n\r\n        PaymentInfo storage newPayment = paymentsRegistry.push();\r\n        newPayment.landlord = _landlord;\r\n        newPayment.tenant = _tenant;\r\n        newPayment.propertyID = _propertyID;\r\n        newPayment.escrowAmount = _amount;\r\n        newPayment.status = PaymentStatus.Pending;\r\n        newPayment.tenantApproved = false;\r\n        newPayment.landlordApproved = false;\r\n        emit PaymentCreated(_tenant, _landlord, _propertyID, _amount);\r\n    }\r\n\r\n    function makePayment(\r\n        address _tenant,\r\n        address _landlord,\r\n        string memory _propertyID\r\n    ) external {\r\n        for (uint256 i = 0; i < paymentsRegistry.length; i++) {\r\n            if (\r\n                paymentsRegistry[i].tenant == _tenant &&\r\n                paymentsRegistry[i].landlord == _landlord &&\r\n                keccak256(abi.encodePacked(paymentsRegistry[i].propertyID)) == keccak256(abi.encodePacked(_propertyID))\r\n            ) {\r\n                PaymentInfo storage payment = paymentsRegistry[i];\r\n                require(payment.status == PaymentStatus.Pending, \"Payment is not Pending\");\r\n\r\n                if (msg.sender == _tenant) {\r\n                    payment.tenantApproved = true;\r\n                    emit PaymentApproved(_tenant, _propertyID, payment.status);\r\n                }\r\n\r\n                if (msg.sender == _landlord) {\r\n                    require(payment.tenantApproved, \"Tenant has not Approved yet\");\r\n                    payment.landlordApproved = true;\r\n                    emit PaymentApproved(_landlord, _propertyID, payment.status);\r\n                }\r\n\r\n                if (payment.landlordApproved && payment.tenantApproved) {\r\n                    payment.status = PaymentStatus.Paid;\r\n                    emit PaymentStatusChanged(_propertyID, PaymentStatus.Paid);\r\n                }\r\n                return;\r\n            }\r\n        }\r\n    }\r\n\r\n    function disapprovePayment(\r\n        address _tenant,\r\n        address _landlord,\r\n        string memory _propertyID\r\n    ) external {\r\n        for (uint256 i = 0; i < paymentsRegistry.length; i++) {\r\n            if (\r\n                paymentsRegistry[i].tenant == _tenant &&\r\n                paymentsRegistry[i].landlord == _landlord &&\r\n                keccak256(abi.encodePacked(paymentsRegistry[i].propertyID)) == keccak256(abi.encodePacked(_propertyID))\r\n            ) {\r\n                PaymentInfo storage payment = paymentsRegistry[i];\r\n                require(payment.status == PaymentStatus.Pending, \"Payment is not Pending or already Returned\");\r\n                payment.status = PaymentStatus.Returned;\r\n                emit PaymentStatusChanged(_propertyID, PaymentStatus.Returned);\r\n                return;\r\n            }\r\n        }\r\n    }\r\n\r\n    function getPaymentDetails(\r\n        address _tenant,\r\n        address _landlord,\r\n        string memory _propertyID\r\n    ) external view returns (PaymentInfo memory) {\r\n        for (uint i = 0; i < paymentsRegistry.length; i++) {\r\n            if (\r\n                paymentsRegistry[i].tenant == _tenant &&\r\n                paymentsRegistry[i].landlord == _landlord &&\r\n                keccak256(abi.encodePacked(paymentsRegistry[i].propertyID)) == keccak256(abi.encodePacked(_propertyID))\r\n            ) {\r\n                return paymentsRegistry[i];\r\n            }\r\n        }\r\n        revert(\"Payment not found\");\r\n    }\r\n\r\n    function registryLength() external view returns (uint256) {\r\n        return paymentsRegistry.length;\r\n    }\r\n}\r\n",
  "sourcePath": "D:\\Fast\\Sem 8\\FYP_Final\\TranspaRent\\blockchain\\contracts\\Payment.sol",
  "compiler": {
    "name": "solc",
    "version": "0.8.19+commit.7dd6d404.Emscripten.clang"
  },
  "schemaVersion": "3.4.16",
  "updatedAt": "2024-04-19T13:49:17.418Z",
  "networkType": "ethereum",
  "devdoc": {
    "kind": "dev",
    "methods": {},
    "version": 1
  },
  "userdoc": {
    "kind": "user",
    "methods": {},
    "version": 1
  }
}