{
  "contractName": "RentalContract",
  "abi": [
    {
      "inputs": [],
      "stateMutability": "nonpayable",
      "type": "constructor"
    },
    {
      "anonymous": false,
      "inputs": [
        {
          "indexed": true,
          "internalType": "address",
          "name": "_tenant",
          "type": "address"
        },
        {
          "indexed": false,
          "internalType": "string",
          "name": "_issue",
          "type": "string"
        }
      ],
      "name": "MaintenanceDisputeRaised",
      "type": "event"
    },
    {
      "anonymous": false,
      "inputs": [
        {
          "indexed": true,
          "internalType": "address",
          "name": "_tenant",
          "type": "address"
        },
        {
          "indexed": false,
          "internalType": "string",
          "name": "_issue",
          "type": "string"
        },
        {
          "indexed": false,
          "internalType": "string",
          "name": "_resolution",
          "type": "string"
        }
      ],
      "name": "MaintenanceDisputeResolved",
      "type": "event"
    },
    {
      "anonymous": false,
      "inputs": [
        {
          "indexed": true,
          "internalType": "address",
          "name": "_tenant",
          "type": "address"
        },
        {
          "indexed": false,
          "internalType": "string",
          "name": "_month",
          "type": "string"
        }
      ],
      "name": "RentPaymentDisputeRaised",
      "type": "event"
    },
    {
      "anonymous": false,
      "inputs": [
        {
          "indexed": true,
          "internalType": "address",
          "name": "_tenant",
          "type": "address"
        },
        {
          "indexed": false,
          "internalType": "string",
          "name": "_month",
          "type": "string"
        },
        {
          "indexed": false,
          "internalType": "string",
          "name": "_resolution",
          "type": "string"
        }
      ],
      "name": "RentPaymentDisputeResolved",
      "type": "event"
    },
    {
      "anonymous": false,
      "inputs": [
        {
          "indexed": true,
          "internalType": "address",
          "name": "_tenant",
          "type": "address"
        },
        {
          "indexed": false,
          "internalType": "string",
          "name": "_reason",
          "type": "string"
        }
      ],
      "name": "SecurityDepositDisputeRaised",
      "type": "event"
    },
    {
      "anonymous": false,
      "inputs": [
        {
          "indexed": true,
          "internalType": "address",
          "name": "_tenant",
          "type": "address"
        },
        {
          "indexed": false,
          "internalType": "string",
          "name": "_resolution",
          "type": "string"
        }
      ],
      "name": "SecurityDepositDisputeResolved",
      "type": "event"
    },
    {
      "inputs": [],
      "name": "landlord",
      "outputs": [
        {
          "internalType": "address",
          "name": "",
          "type": "address"
        }
      ],
      "stateMutability": "view",
      "type": "function"
    },
    {
      "inputs": [],
      "name": "leaseDuration",
      "outputs": [
        {
          "internalType": "uint256",
          "name": "",
          "type": "uint256"
        }
      ],
      "stateMutability": "view",
      "type": "function"
    },
    {
      "inputs": [
        {
          "internalType": "address",
          "name": "",
          "type": "address"
        }
      ],
      "name": "maintenanceDisputes",
      "outputs": [
        {
          "internalType": "string",
          "name": "issue",
          "type": "string"
        },
        {
          "internalType": "string",
          "name": "resolution",
          "type": "string"
        },
        {
          "internalType": "bool",
          "name": "resolved",
          "type": "bool"
        }
      ],
      "stateMutability": "view",
      "type": "function"
    },
    {
      "inputs": [],
      "name": "rentAmount",
      "outputs": [
        {
          "internalType": "uint256",
          "name": "",
          "type": "uint256"
        }
      ],
      "stateMutability": "view",
      "type": "function"
    },
    {
      "inputs": [
        {
          "internalType": "address",
          "name": "",
          "type": "address"
        }
      ],
      "name": "rentPaymentDisputes",
      "outputs": [
        {
          "internalType": "string",
          "name": "month",
          "type": "string"
        },
        {
          "internalType": "string",
          "name": "resolution",
          "type": "string"
        },
        {
          "internalType": "bool",
          "name": "resolved",
          "type": "bool"
        }
      ],
      "stateMutability": "view",
      "type": "function"
    },
    {
      "inputs": [
        {
          "internalType": "uint256",
          "name": "",
          "type": "uint256"
        }
      ],
      "name": "sampleContractTerms",
      "outputs": [
        {
          "internalType": "string",
          "name": "termName",
          "type": "string"
        },
        {
          "internalType": "string",
          "name": "description",
          "type": "string"
        }
      ],
      "stateMutability": "view",
      "type": "function"
    },
    {
      "inputs": [],
      "name": "securityDeposit",
      "outputs": [
        {
          "internalType": "uint256",
          "name": "",
          "type": "uint256"
        }
      ],
      "stateMutability": "view",
      "type": "function"
    },
    {
      "inputs": [
        {
          "internalType": "address",
          "name": "",
          "type": "address"
        }
      ],
      "name": "securityDepositDisputes",
      "outputs": [
        {
          "internalType": "string",
          "name": "reason",
          "type": "string"
        },
        {
          "internalType": "string",
          "name": "resolution",
          "type": "string"
        },
        {
          "internalType": "bool",
          "name": "resolved",
          "type": "bool"
        }
      ],
      "stateMutability": "view",
      "type": "function"
    },
    {
      "inputs": [],
      "name": "startDate",
      "outputs": [
        {
          "internalType": "uint256",
          "name": "",
          "type": "uint256"
        }
      ],
      "stateMutability": "view",
      "type": "function"
    },
    {
      "inputs": [],
      "name": "status",
      "outputs": [
        {
          "internalType": "enum RentalContract.AgreementStatus",
          "name": "",
          "type": "uint8"
        }
      ],
      "stateMutability": "view",
      "type": "function"
    },
    {
      "inputs": [],
      "name": "tenant",
      "outputs": [
        {
          "internalType": "address",
          "name": "",
          "type": "address"
        }
      ],
      "stateMutability": "view",
      "type": "function"
    },
    {
      "inputs": [],
      "name": "terminationDate",
      "outputs": [
        {
          "internalType": "uint256",
          "name": "",
          "type": "uint256"
        }
      ],
      "stateMutability": "view",
      "type": "function"
    },
    {
      "inputs": [
        {
          "internalType": "address",
          "name": "_tenant",
          "type": "address"
        },
        {
          "internalType": "uint256",
          "name": "_rentAmount",
          "type": "uint256"
        },
        {
          "internalType": "uint256",
          "name": "_securityDeposit",
          "type": "uint256"
        },
        {
          "internalType": "uint256",
          "name": "_leaseDuration",
          "type": "uint256"
        },
        {
          "internalType": "uint256",
          "name": "_startDate",
          "type": "uint256"
        }
      ],
      "name": "initiateAgreement",
      "outputs": [],
      "stateMutability": "nonpayable",
      "type": "function"
    },
    {
      "inputs": [],
      "name": "approveAgreement",
      "outputs": [],
      "stateMutability": "nonpayable",
      "type": "function"
    },
    {
      "inputs": [],
      "name": "disapproveAgreement",
      "outputs": [],
      "stateMutability": "nonpayable",
      "type": "function"
    },
    {
      "inputs": [],
      "name": "terminateAgreement",
      "outputs": [],
      "stateMutability": "nonpayable",
      "type": "function"
    },
    {
      "inputs": [
        {
          "internalType": "uint256",
          "name": "_newLeaseDuration",
          "type": "uint256"
        },
        {
          "internalType": "uint256",
          "name": "_newStartDate",
          "type": "uint256"
        },
        {
          "internalType": "uint256",
          "name": "_newRentAmount",
          "type": "uint256"
        }
      ],
      "name": "renewContract",
      "outputs": [],
      "stateMutability": "nonpayable",
      "type": "function"
    },
    {
      "inputs": [],
      "name": "getLandlord",
      "outputs": [
        {
          "internalType": "address",
          "name": "",
          "type": "address"
        }
      ],
      "stateMutability": "view",
      "type": "function"
    },
    {
      "inputs": [],
      "name": "getTenant",
      "outputs": [
        {
          "internalType": "address",
          "name": "",
          "type": "address"
        }
      ],
      "stateMutability": "view",
      "type": "function"
    },
    {
      "inputs": [],
      "name": "getRentAmount",
      "outputs": [
        {
          "internalType": "uint256",
          "name": "",
          "type": "uint256"
        }
      ],
      "stateMutability": "view",
      "type": "function"
    },
    {
      "inputs": [],
      "name": "getSecurityDeposit",
      "outputs": [
        {
          "internalType": "uint256",
          "name": "",
          "type": "uint256"
        }
      ],
      "stateMutability": "view",
      "type": "function"
    },
    {
      "inputs": [],
      "name": "getLeaseDuration",
      "outputs": [
        {
          "internalType": "uint256",
          "name": "",
          "type": "uint256"
        }
      ],
      "stateMutability": "view",
      "type": "function"
    },
    {
      "inputs": [],
      "name": "getStartDate",
      "outputs": [
        {
          "internalType": "uint256",
          "name": "",
          "type": "uint256"
        }
      ],
      "stateMutability": "view",
      "type": "function"
    },
    {
      "inputs": [],
      "name": "getTerminationDate",
      "outputs": [
        {
          "internalType": "uint256",
          "name": "",
          "type": "uint256"
        }
      ],
      "stateMutability": "view",
      "type": "function"
    },
    {
      "inputs": [],
      "name": "getStatus",
      "outputs": [
        {
          "internalType": "string",
          "name": "",
          "type": "string"
        }
      ],
      "stateMutability": "view",
      "type": "function"
    },
    {
      "inputs": [],
      "name": "getContractTerms",
      "outputs": [
        {
          "components": [
            {
              "internalType": "string",
              "name": "termName",
              "type": "string"
            },
            {
              "internalType": "string",
              "name": "description",
              "type": "string"
            }
          ],
          "internalType": "struct RentalContract.ContractTerms[]",
          "name": "",
          "type": "tuple[]"
        }
      ],
      "stateMutability": "view",
      "type": "function"
    },
    {
      "inputs": [],
      "name": "getContractDetails",
      "outputs": [
        {
          "internalType": "address",
          "name": "_landlord",
          "type": "address"
        },
        {
          "internalType": "address",
          "name": "_tenant",
          "type": "address"
        },
        {
          "internalType": "uint256",
          "name": "_rentAmount",
          "type": "uint256"
        },
        {
          "internalType": "uint256",
          "name": "_securityDeposit",
          "type": "uint256"
        },
        {
          "internalType": "uint256",
          "name": "_leaseDuration",
          "type": "uint256"
        },
        {
          "internalType": "uint256",
          "name": "_startDate",
          "type": "uint256"
        },
        {
          "internalType": "uint256",
          "name": "_terminationDate",
          "type": "uint256"
        },
        {
          "internalType": "string",
          "name": "_status",
          "type": "string"
        }
      ],
      "stateMutability": "view",
      "type": "function"
    },
    {
      "inputs": [
        {
          "internalType": "string",
          "name": "_reason",
          "type": "string"
        }
      ],
      "name": "raiseSecurityDepositDispute",
      "outputs": [],
      "stateMutability": "nonpayable",
      "type": "function"
    },
    {
      "inputs": [
        {
          "internalType": "address",
          "name": "_tenant",
          "type": "address"
        },
        {
          "internalType": "string",
          "name": "_resolution",
          "type": "string"
        }
      ],
      "name": "respondToSecurityDepositDispute",
      "outputs": [],
      "stateMutability": "nonpayable",
      "type": "function"
    },
    {
      "inputs": [
        {
          "internalType": "string",
          "name": "_month",
          "type": "string"
        }
      ],
      "name": "raiseRentPaymentDispute",
      "outputs": [],
      "stateMutability": "nonpayable",
      "type": "function"
    },
    {
      "inputs": [
        {
          "internalType": "address",
          "name": "_tenant",
          "type": "address"
        },
        {
          "internalType": "string",
          "name": "_month",
          "type": "string"
        },
        {
          "internalType": "string",
          "name": "_resolution",
          "type": "string"
        }
      ],
      "name": "respondToRentPaymentDispute",
      "outputs": [],
      "stateMutability": "nonpayable",
      "type": "function"
    },
    {
      "inputs": [
        {
          "internalType": "string",
          "name": "_issue",
          "type": "string"
        }
      ],
      "name": "raiseMaintenanceDispute",
      "outputs": [],
      "stateMutability": "nonpayable",
      "type": "function"
    },
    {
      "inputs": [
        {
          "internalType": "address",
          "name": "_tenant",
          "type": "address"
        },
        {
          "internalType": "string",
          "name": "_issue",
          "type": "string"
        },
        {
          "internalType": "string",
          "name": "_resolution",
          "type": "string"
        }
      ],
      "name": "respondToMaintenanceDispute",
      "outputs": [],
      "stateMutability": "nonpayable",
      "type": "function"
    },
    {
      "inputs": [],
      "name": "getSecurityDepositDispute",
      "outputs": [
        {
          "internalType": "string",
          "name": "",
          "type": "string"
        },
        {
          "internalType": "string",
          "name": "",
          "type": "string"
        },
        {
          "internalType": "bool",
          "name": "",
          "type": "bool"
        }
      ],
      "stateMutability": "view",
      "type": "function"
    },
    {
      "inputs": [],
      "name": "getRentPaymentDispute",
      "outputs": [
        {
          "internalType": "string",
          "name": "",
          "type": "string"
        },
        {
          "internalType": "string",
          "name": "",
          "type": "string"
        },
        {
          "internalType": "bool",
          "name": "",
          "type": "bool"
        }
      ],
      "stateMutability": "view",
      "type": "function"
    },
    {
      "inputs": [],
      "name": "getMaintenanceDispute",
      "outputs": [
        {
          "internalType": "string",
          "name": "",
          "type": "string"
        },
        {
          "internalType": "string",
          "name": "",
          "type": "string"
        },
        {
          "internalType": "bool",
          "name": "",
          "type": "bool"
        }
      ],
      "stateMutability": "view",
      "type": "function"
    },
    {
      "inputs": [
        {
          "internalType": "address",
          "name": "_tenant",
          "type": "address"
        }
      ],
      "name": "getTenantSecurityDepositDispute",
      "outputs": [
        {
          "internalType": "string",
          "name": "",
          "type": "string"
        },
        {
          "internalType": "string",
          "name": "",
          "type": "string"
        },
        {
          "internalType": "bool",
          "name": "",
          "type": "bool"
        }
      ],
      "stateMutability": "view",
      "type": "function"
    },
    {
      "inputs": [
        {
          "internalType": "address",
          "name": "_tenant",
          "type": "address"
        }
      ],
      "name": "getTenantRentPaymentDispute",
      "outputs": [
        {
          "internalType": "string",
          "name": "",
          "type": "string"
        },
        {
          "internalType": "string",
          "name": "",
          "type": "string"
        },
        {
          "internalType": "bool",
          "name": "",
          "type": "bool"
        }
      ],
      "stateMutability": "view",
      "type": "function"
    },
    {
      "inputs": [
        {
          "internalType": "address",
          "name": "_tenant",
          "type": "address"
        }
      ],
      "name": "getTenantMaintenanceDispute",
      "outputs": [
        {
          "internalType": "string",
          "name": "",
          "type": "string"
        },
        {
          "internalType": "string",
          "name": "",
          "type": "string"
        },
        {
          "internalType": "bool",
          "name": "",
          "type": "bool"
        }
      ],
      "stateMutability": "view",
      "type": "function"
    }
  ],
  "bytecode": "0x60806040523480156200001157600080fd5b50336000806101000a81548173ffffffffffffffffffffffffffffffffffffffff021916908373ffffffffffffffffffffffffffffffffffffffff160217905550600860405180604001604052806040518060400160405280600681526020017f4c4553534f5200000000000000000000000000000000000000000000000000008152508152602001604051806060016040528060408152602001620056776040913981525090806001815401808255809150506001900390600052602060002090600202016000909190919091506000820151816000019081620000f7919062000b12565b5060208201518160010190816200010f919062000b12565b505050600860405180604001604052806040518060400160405280600681526020017f54454e414e54000000000000000000000000000000000000000000000000000081525081526020016040518060600160405280603681526020016200542e6036913981525090806001815401808255809150506001900390600052602060002090600202016000909190919091506000820151816000019081620001b7919062000b12565b506020820151816001019081620001cf919062000b12565b505050600860405180604001604052806040518060400160405280600a81526020017f4c45415345205445524d000000000000000000000000000000000000000000008152508152602001604051806080016040528060468152602001620054a4604691398152509080600181540180825580915050600190039060005260206000209060020201600090919091909150600082015181600001908162000277919062000b12565b5060208201518160010190816200028f919062000b12565b505050600860405180604001604052806040518060400160405280600481526020017f52454e54000000000000000000000000000000000000000000000000000000008152508152602001604051806080016040528060438152602001620056b7604391398152509080600181540180825580915050600190039060005260206000209060020201600090919091909150600082015181600001908162000337919062000b12565b5060208201518160010190816200034f919062000b12565b505050600860405180604001604052806040518060400160405280601081526020017f5345435552495459204445504f534954000000000000000000000000000000008152508152602001604051806080016040528060528152602001620055736052913981525090806001815401808255809150506001900390600052602060002090600202016000909190919091506000820151816000019081620003f7919062000b12565b5060208201518160010190816200040f919062000b12565b505050600860405180604001604052806040518060400160405280600981526020017f5554494c495449455300000000000000000000000000000000000000000000008152508152602001604051806080016040528060468152602001620054ea6046913981525090806001815401808255809150506001900390600052602060002090600202016000909190919091506000820151816000019081620004b7919062000b12565b506020820151816001019081620004cf919062000b12565b505050600860405180604001604052806040518060400160405280600b81526020017f4d41494e54454e414e434500000000000000000000000000000000000000000081525081526020016040518060600160405280603881526020016200563f603891398152509080600181540180825580915050600190039060005260206000209060020201600090919091909150600082015181600001908162000577919062000b12565b5060208201518160010190816200058f919062000b12565b505050600860405180604001604052806040518060400160405280600b81526020017f5445524d494e4154494f4e000000000000000000000000000000000000000000815250815260200160405180608001604052806043815260200162005530604391398152509080600181540180825580915050600190039060005260206000209060020201600090919091909150600082015181600001908162000637919062000b12565b5060208201518160010190816200064f919062000b12565b505050600860405180604001604052806040518060400160405280600d81526020017f4e4f5449434520504552494f44000000000000000000000000000000000000008152508152602001604051806060016040528060398152602001620056066039913981525090806001815401808255809150506001900390600052602060002090600202016000909190919091506000820151816000019081620006f7919062000b12565b5060208201518160010190816200070f919062000b12565b505050600860405180604001604052806040518060400160405280600781526020017f44454641554c54000000000000000000000000000000000000000000000000008152508152602001604051806080016040528060418152602001620055c56041913981525090806001815401808255809150506001900390600052602060002090600202016000909190919091506000820151816000019081620007b7919062000b12565b506020820151816001019081620007cf919062000b12565b505050600860405180604001604052806040518060400160405280600a81526020017f5349474e41545552455300000000000000000000000000000000000000000000815250815260200160405180606001604052806040815260200162005464604091398152509080600181540180825580915050600190039060005260206000209060020201600090919091909150600082015181600001908162000877919062000b12565b5060208201518160010190816200088f919062000b12565b50505062000bf9565b600081519050919050565b7f4e487b7100000000000000000000000000000000000000000000000000000000600052604160045260246000fd5b7f4e487b7100000000000000000000000000000000000000000000000000000000600052602260045260246000fd5b600060028204905060018216806200091a57607f821691505b60208210810362000930576200092f620008d2565b5b50919050565b60008190508160005260206000209050919050565b60006020601f8301049050919050565b600082821b905092915050565b6000600883026200099a7fffffffffffffffffffffffffffffffffffffffffffffffffffffffffffffffff826200095b565b620009a686836200095b565b95508019841693508086168417925050509392505050565b6000819050919050565b6000819050919050565b6000620009f3620009ed620009e784620009be565b620009c8565b620009be565b9050919050565b6000819050919050565b62000a0f83620009d2565b62000a2762000a1e82620009fa565b84845462000968565b825550505050565b600090565b62000a3e62000a2f565b62000a4b81848462000a04565b505050565b5b8181101562000a735762000a6760008262000a34565b60018101905062000a51565b5050565b601f82111562000ac25762000a8c8162000936565b62000a97846200094b565b8101602085101562000aa7578190505b62000abf62000ab6856200094b565b83018262000a50565b50505b505050565b600082821c905092915050565b600062000ae76000198460080262000ac7565b1980831691505092915050565b600062000b02838362000ad4565b9150826002028217905092915050565b62000b1d8262000898565b67ffffffffffffffff81111562000b395762000b38620008a3565b5b62000b45825462000901565b62000b5282828562000a77565b600060209050601f83116001811462000b8a576000841562000b75578287015190505b62000b81858262000af4565b86555062000bf1565b601f19841662000b9a8662000936565b60005b8281101562000bc45784890151825560018201915060208501945060208101905062000b9d565b8683101562000be4578489015162000be0601f89168262000ad4565b8355505b6001600288020188555050505b505050505050565b6148258062000c096000396000f3fe608060405234801561001057600080fd5b506004361061023d5760003560e01c80634f6be30f1161013b578063bd209e82116100b8578063f8ef1e131161007c578063f8ef1e1314610672578063fa961a3314610690578063fbc6be32146106c2578063ff5c086b146106e2578063ffa8da1e146107005761023d565b8063bd209e82146105cc578063c9fd6fb5146105e8578063dc1997ea14610604578063eb7d308c14610622578063f502236d146106545761023d565b806393ce9fc2116100ff57806393ce9fc2146105355780639dfc911714610551578063a566b63814610576578063abc456dd14610592578063adf07791146105ae5761023d565b80634f6be30f1461048b57806364a40642146104a95780636c4a3eb1146104c757806378f305c6146104f95780638566e12c146105175761023d565b806323b73725116101c95780633b5553911161018d5780633b5553911461040d5780634200dd71146104295780634745e4911461043357806347a644371461044f5780634e69d5601461046d5761023d565b806323b737251461033a5780633005c13f1461036c57806334f77a051461038a57806335f6acf2146103bc5780633ac8853e146103ed5761023d565b806311a27baf1161021057806311a27baf146102b857806319dec62a146102ea5780631efd95fd146102f4578063200d2ed2146102fe578063220e5ab31461031c5761023d565b80630295535f146102425780630b3bb024146102605780630b8330c71461027e5780630b97bc861461029a575b600080fd5b61024a610720565b60405161025791906136c4565b60405180910390f35b61026861072a565b6040516102759190613720565b60405180910390f35b61029860048036038101906102939190613895565b610754565b005b6102a26109f6565b6040516102af91906136c4565b60405180910390f35b6102d260048036038101906102cd919061390a565b6109fc565b6040516102e1939291906139d1565b60405180910390f35b6102f2610c3a565b005b6102fc610d91565b005b610306610ec4565b6040516103139190613a8d565b60405180910390f35b610324610ed7565b60405161033191906136c4565b60405180910390f35b610354600480360381019061034f919061390a565b610edd565b604051610363939291906139d1565b60405180910390f35b61037461111b565b60405161038191906136c4565b60405180910390f35b6103a4600480360381019061039f919061390a565b611121565b6040516103b3939291906139d1565b60405180910390f35b6103d660048036038101906103d19190613ad4565b611268565b6040516103e4929190613b01565b60405180910390f35b6103f56113ac565b604051610404939291906139d1565b60405180910390f35b61042760048036038101906104229190613895565b6115e9565b005b61043161188b565b005b61044d60048036038101906104489190613b38565b6119bb565b005b610457611c4c565b60405161046491906136c4565b60405180910390f35b610475611c56565b6040516104829190613b94565b60405180910390f35b610493611dfb565b6040516104a091906136c4565b60405180910390f35b6104b1611e01565b6040516104be91906136c4565b60405180910390f35b6104e160048036038101906104dc919061390a565b611e0b565b6040516104f0939291906139d1565b60405180910390f35b610501611f52565b60405161050e91906136c4565b60405180910390f35b61051f611f5c565b60405161052c9190613d06565b60405180910390f35b61054f600480360381019061054a9190613d28565b6120df565b005b6105596122d1565b60405161056d989796959493929190613d7b565b60405180910390f35b610590600480360381019061058b9190613e00565b6124eb565b005b6105ac60048036038101906105a79190613e7b565b61265f565b005b6105b66128f3565b6040516105c39190613720565b60405180910390f35b6105e660048036038101906105e19190613895565b612919565b005b61060260048036038101906105fd9190613e7b565b612bbb565b005b61060c612e4f565b6040516106199190613720565b60405180910390f35b61063c6004803603810190610637919061390a565b612e73565b60405161064b939291906139d1565b60405180910390f35b61065c6130b1565b6040516106699190613720565b60405180910390f35b61067a6130da565b60405161068791906136c4565b60405180910390f35b6106aa60048036038101906106a5919061390a565b6130e0565b6040516106b9939291906139d1565b60405180910390f35b6106ca613227565b6040516106d9939291906139d1565b60405180910390f35b6106ea613464565b6040516106f791906136c4565b60405180910390f35b61070861346e565b604051610717939291906139d1565b60405180910390f35b6000600254905090565b6000600160009054906101000a900473ffffffffffffffffffffffffffffffffffffffff16905090565b600160009054906101000a900473ffffffffffffffffffffffffffffffffffffffff1673ffffffffffffffffffffffffffffffffffffffff163373ffffffffffffffffffffffffffffffffffffffff16146107e4576040517f08c379a00000000000000000000000000000000000000000000000000000000081526004016107db90613f78565b60405180910390fd5b600160028111156107f8576107f7613a16565b5b600760009054906101000a900460ff16600281111561081a57610819613a16565b5b1461085a576040517f08c379a000000000000000000000000000000000000000000000000000000000815260040161085190613fe4565b60405180910390fd5b600a60003373ffffffffffffffffffffffffffffffffffffffff1673ffffffffffffffffffffffffffffffffffffffff16815260200190815260200160002060020160009054906101000a900460ff16156108ea576040517f08c379a00000000000000000000000000000000000000000000000000000000081526004016108e190614050565b60405180910390fd5b604051806060016040528082815260200160405180602001604052806000815250815260200160001515815250600a60003373ffffffffffffffffffffffffffffffffffffffff1673ffffffffffffffffffffffffffffffffffffffff168152602001908152602001600020600082015181600001908161096b919061427c565b506020820151816001019081610981919061427c565b5060408201518160020160006101000a81548160ff0219169083151502179055509050503373ffffffffffffffffffffffffffffffffffffffff167fbbb29dd66778e263b1268f240bbfd5aa1171bd370abbbfb1a8f556c7e588a519826040516109eb9190613b94565b60405180910390a250565b60055481565b60608060008060009054906101000a900473ffffffffffffffffffffffffffffffffffffffff1673ffffffffffffffffffffffffffffffffffffffff163373ffffffffffffffffffffffffffffffffffffffff1614610a90576040517f08c379a0000000000000000000000000000000000000000000000000000000008152600401610a87906143c0565b60405180910390fd5b6000600b60008673ffffffffffffffffffffffffffffffffffffffff1673ffffffffffffffffffffffffffffffffffffffff168152602001908152602001600020604051806060016040529081600082018054610aec9061409f565b80601f0160208091040260200160405190810160405280929190818152602001828054610b189061409f565b8015610b655780601f10610b3a57610100808354040283529160200191610b65565b820191906000526020600020905b815481529060010190602001808311610b4857829003601f168201915b50505050508152602001600182018054610b7e9061409f565b80601f0160208091040260200160405190810160405280929190818152602001828054610baa9061409f565b8015610bf75780601f10610bcc57610100808354040283529160200191610bf7565b820191906000526020600020905b815481529060010190602001808311610bda57829003601f168201915b505050505081526020016002820160009054906101000a900460ff1615151515815250509050806000015181602001518260400151935093509350509193909250565b600160009054906101000a900473ffffffffffffffffffffffffffffffffffffffff1673ffffffffffffffffffffffffffffffffffffffff163373ffffffffffffffffffffffffffffffffffffffff1614610cca576040517f08c379a0000000000000000000000000000000000000000000000000000000008152600401610cc190613f78565b60405180910390fd5b60006002811115610cde57610cdd613a16565b5b600760009054906101000a900460ff166002811115610d0057610cff613a16565b5b14610d40576040517f08c379a0000000000000000000000000000000000000000000000000000000008152600401610d379061442c565b60405180910390fd5b6001600760006101000a81548160ff02191690836002811115610d6657610d65613a16565b5b021790555062278d00600454610d7c919061447b565b600554610d8991906144bd565b600681905550565b600160009054906101000a900473ffffffffffffffffffffffffffffffffffffffff1673ffffffffffffffffffffffffffffffffffffffff163373ffffffffffffffffffffffffffffffffffffffff1614610e21576040517f08c379a0000000000000000000000000000000000000000000000000000000008152600401610e1890613f78565b60405180910390fd5b60006002811115610e3557610e34613a16565b5b600760009054906101000a900460ff166002811115610e5757610e56613a16565b5b14610e97576040517f08c379a0000000000000000000000000000000000000000000000000000000008152600401610e8e9061442c565b60405180910390fd5b6002600760006101000a81548160ff02191690836002811115610ebd57610ebc613a16565b5b0217905550565b600760009054906101000a900460ff1681565b60035481565b60608060008060009054906101000a900473ffffffffffffffffffffffffffffffffffffffff1673ffffffffffffffffffffffffffffffffffffffff163373ffffffffffffffffffffffffffffffffffffffff1614610f71576040517f08c379a0000000000000000000000000000000000000000000000000000000008152600401610f68906143c0565b60405180910390fd5b6000600a60008673ffffffffffffffffffffffffffffffffffffffff1673ffffffffffffffffffffffffffffffffffffffff168152602001908152602001600020604051806060016040529081600082018054610fcd9061409f565b80601f0160208091040260200160405190810160405280929190818152602001828054610ff99061409f565b80156110465780601f1061101b57610100808354040283529160200191611046565b820191906000526020600020905b81548152906001019060200180831161102957829003601f168201915b5050505050815260200160018201805461105f9061409f565b80601f016020809104026020016040519081016040528092919081815260200182805461108b9061409f565b80156110d85780601f106110ad576101008083540402835291602001916110d8565b820191906000526020600020905b8154815290600101906020018083116110bb57829003601f168201915b505050505081526020016002820160009054906101000a900460ff1615151515815250509050806000015181602001518260400151935093509350509193909250565b60065481565b600a6020528060005260406000206000915090508060000180546111449061409f565b80601f01602080910402602001604051908101604052809291908181526020018280546111709061409f565b80156111bd5780601f10611192576101008083540402835291602001916111bd565b820191906000526020600020905b8154815290600101906020018083116111a057829003601f168201915b5050505050908060010180546111d29061409f565b80601f01602080910402602001604051908101604052809291908181526020018280546111fe9061409f565b801561124b5780601f106112205761010080835404028352916020019161124b565b820191906000526020600020905b81548152906001019060200180831161122e57829003601f168201915b5050505050908060020160009054906101000a900460ff16905083565b6008818154811061127857600080fd5b906000526020600020906002020160009150905080600001805461129b9061409f565b80601f01602080910402602001604051908101604052809291908181526020018280546112c79061409f565b80156113145780601f106112e957610100808354040283529160200191611314565b820191906000526020600020905b8154815290600101906020018083116112f757829003601f168201915b5050505050908060010180546113299061409f565b80601f01602080910402602001604051908101604052809291908181526020018280546113559061409f565b80156113a25780601f10611377576101008083540402835291602001916113a2565b820191906000526020600020905b81548152906001019060200180831161138557829003601f168201915b5050505050905082565b6060806000600160009054906101000a900473ffffffffffffffffffffffffffffffffffffffff1673ffffffffffffffffffffffffffffffffffffffff163373ffffffffffffffffffffffffffffffffffffffff1614611441576040517f08c379a000000000000000000000000000000000000000000000000000000000815260040161143890613f78565b60405180910390fd5b6000600b60003373ffffffffffffffffffffffffffffffffffffffff1673ffffffffffffffffffffffffffffffffffffffff16815260200190815260200160002060405180606001604052908160008201805461149d9061409f565b80601f01602080910402602001604051908101604052809291908181526020018280546114c99061409f565b80156115165780601f106114eb57610100808354040283529160200191611516565b820191906000526020600020905b8154815290600101906020018083116114f957829003601f168201915b5050505050815260200160018201805461152f9061409f565b80601f016020809104026020016040519081016040528092919081815260200182805461155b9061409f565b80156115a85780601f1061157d576101008083540402835291602001916115a8565b820191906000526020600020905b81548152906001019060200180831161158b57829003601f168201915b505050505081526020016002820160009054906101000a900460ff161515151581525050905080600001518160200151826040015193509350935050909192565b600160009054906101000a900473ffffffffffffffffffffffffffffffffffffffff1673ffffffffffffffffffffffffffffffffffffffff163373ffffffffffffffffffffffffffffffffffffffff1614611679576040517f08c379a000000000000000000000000000000000000000000000000000000000815260040161167090613f78565b60405180910390fd5b6001600281111561168d5761168c613a16565b5b600760009054906101000a900460ff1660028111156116af576116ae613a16565b5b146116ef576040517f08c379a00000000000000000000000000000000000000000000000000000000081526004016116e690613fe4565b60405180910390fd5b600b60003373ffffffffffffffffffffffffffffffffffffffff1673ffffffffffffffffffffffffffffffffffffffff16815260200190815260200160002060020160009054906101000a900460ff161561177f576040517f08c379a000000000000000000000000000000000000000000000000000000000815260040161177690614050565b60405180910390fd5b604051806060016040528082815260200160405180602001604052806000815250815260200160001515815250600b60003373ffffffffffffffffffffffffffffffffffffffff1673ffffffffffffffffffffffffffffffffffffffff1681526020019081526020016000206000820151816000019081611800919061427c565b506020820151816001019081611816919061427c565b5060408201518160020160006101000a81548160ff0219169083151502179055509050503373ffffffffffffffffffffffffffffffffffffffff167f328ab6fb6624e29c2dc698b8fe36bdf3cd3178ba51fe21bae69de526ca365197826040516118809190613b94565b60405180910390a250565b60008054906101000a900473ffffffffffffffffffffffffffffffffffffffff1673ffffffffffffffffffffffffffffffffffffffff163373ffffffffffffffffffffffffffffffffffffffff1614611919576040517f08c379a0000000000000000000000000000000000000000000000000000000008152600401611910906143c0565b60405180910390fd5b60028081111561192c5761192b613a16565b5b600760009054906101000a900460ff16600281111561194e5761194d613a16565b5b0361198e576040517f08c379a000000000000000000000000000000000000000000000000000000000815260040161198590614563565b60405180910390fd5b6002600760006101000a81548160ff021916908360028111156119b4576119b3613a16565b5b0217905550565b60008054906101000a900473ffffffffffffffffffffffffffffffffffffffff1673ffffffffffffffffffffffffffffffffffffffff163373ffffffffffffffffffffffffffffffffffffffff1614611a49576040517f08c379a0000000000000000000000000000000000000000000000000000000008152600401611a40906143c0565b60405180910390fd5b60016002811115611a5d57611a5c613a16565b5b600760009054906101000a900460ff166002811115611a7f57611a7e613a16565b5b14611abf576040517f08c379a0000000000000000000000000000000000000000000000000000000008152600401611ab690613fe4565b60405180910390fd5b600960008373ffffffffffffffffffffffffffffffffffffffff1673ffffffffffffffffffffffffffffffffffffffff16815260200190815260200160002060020160009054906101000a900460ff1615611b4f576040517f08c379a0000000000000000000000000000000000000000000000000000000008152600401611b4690614050565b60405180910390fd5b80600960008473ffffffffffffffffffffffffffffffffffffffff1673ffffffffffffffffffffffffffffffffffffffff1681526020019081526020016000206001019081611b9e919061427c565b506001600960008473ffffffffffffffffffffffffffffffffffffffff1673ffffffffffffffffffffffffffffffffffffffff16815260200190815260200160002060020160006101000a81548160ff0219169083151502179055508173ffffffffffffffffffffffffffffffffffffffff167f7eed2f9dfae1bb13ebef1a4bd9fe904540cff542923a9e5e74e0965baf47e9ca82604051611c409190613b94565b60405180910390a25050565b6000600454905090565b606060006002811115611c6c57611c6b613a16565b5b600760009054906101000a900460ff166002811115611c8e57611c8d613a16565b5b03611cd0576040518060400160405280600781526020017f50656e64696e67000000000000000000000000000000000000000000000000008152509050611df8565b60016002811115611ce457611ce3613a16565b5b600760009054906101000a900460ff166002811115611d0657611d05613a16565b5b03611d48576040518060400160405280600681526020017f41637469766500000000000000000000000000000000000000000000000000008152509050611df8565b600280811115611d5b57611d5a613a16565b5b600760009054906101000a900460ff166002811115611d7d57611d7c613a16565b5b03611dbf576040518060400160405280600a81526020017f5465726d696e61746564000000000000000000000000000000000000000000008152509050611df8565b6040518060400160405280600581526020017f4572726f7200000000000000000000000000000000000000000000000000000081525090505b90565b60045481565b6000600354905090565b600b602052806000526040600020600091509050806000018054611e2e9061409f565b80601f0160208091040260200160405190810160405280929190818152602001828054611e5a9061409f565b8015611ea75780601f10611e7c57610100808354040283529160200191611ea7565b820191906000526020600020905b815481529060010190602001808311611e8a57829003601f168201915b505050505090806001018054611ebc9061409f565b80601f0160208091040260200160405190810160405280929190818152602001828054611ee89061409f565b8015611f355780601f10611f0a57610100808354040283529160200191611f35565b820191906000526020600020905b815481529060010190602001808311611f1857829003601f168201915b5050505050908060020160009054906101000a900460ff16905083565b6000600554905090565b60606008805480602002602001604051908101604052809291908181526020016000905b828210156120d65783829060005260206000209060020201604051806040016040529081600082018054611fb39061409f565b80601f0160208091040260200160405190810160405280929190818152602001828054611fdf9061409f565b801561202c5780601f106120015761010080835404028352916020019161202c565b820191906000526020600020905b81548152906001019060200180831161200f57829003601f168201915b505050505081526020016001820180546120459061409f565b80601f01602080910402602001604051908101604052809291908181526020018280546120719061409f565b80156120be5780601f10612093576101008083540402835291602001916120be565b820191906000526020600020905b8154815290600101906020018083116120a157829003601f168201915b50505050508152505081526020019060010190611f80565b50505050905090565b60008054906101000a900473ffffffffffffffffffffffffffffffffffffffff1673ffffffffffffffffffffffffffffffffffffffff163373ffffffffffffffffffffffffffffffffffffffff161461216d576040517f08c379a0000000000000000000000000000000000000000000000000000000008152600401612164906143c0565b60405180910390fd5b6001600281111561218157612180613a16565b5b600760009054906101000a900460ff1660028111156121a3576121a2613a16565b5b146121e3576040517f08c379a00000000000000000000000000000000000000000000000000000000081526004016121da906145f5565b60405180910390fd5b60008311612226576040517f08c379a000000000000000000000000000000000000000000000000000000000815260040161221d90614687565b60405180910390fd5b8260048190555081600581905550600c8311156122a2578060028190555060005b600c8461225491906146a7565b81101561229c576064600a60025461226c919061447b565b612276919061470a565b60025461228391906144bd565b60028190555080806122949061473b565b915050612247565b506122aa565b806002819055505b62278d00836122b9919061447b565b6005546122c691906144bd565b600681905550505050565b6000806000806000806000606060008054906101000a900473ffffffffffffffffffffffffffffffffffffffff169750600160009054906101000a900473ffffffffffffffffffffffffffffffffffffffff169650600254955060035494506004549350600554925060065491506000600281111561235357612352613a16565b5b600760009054906101000a900460ff16600281111561237557612374613a16565b5b036123b7576040518060400160405280600781526020017f50656e64696e670000000000000000000000000000000000000000000000000081525090506124e1565b600160028111156123cb576123ca613a16565b5b600760009054906101000a900460ff1660028111156123ed576123ec613a16565b5b0361242f576040518060400160405280600681526020017f416374697665000000000000000000000000000000000000000000000000000081525090506124e0565b60028081111561244257612441613a16565b5b600760009054906101000a900460ff16600281111561246457612463613a16565b5b036124a6576040518060400160405280600a81526020017f5465726d696e617465640000000000000000000000000000000000000000000081525090506124df565b6040518060400160405280600581526020017f4572726f7200000000000000000000000000000000000000000000000000000081525090505b5b5b9091929394959697565b600060028111156124ff576124fe613a16565b5b600760009054906101000a900460ff16600281111561252157612520613a16565b5b14612561576040517f08c379a0000000000000000000000000000000000000000000000000000000008152600401612558906147cf565b60405180910390fd5b84600160006101000a81548173ffffffffffffffffffffffffffffffffffffffff021916908373ffffffffffffffffffffffffffffffffffffffff1602179055508260038190555081600481905550806005819055506000600760006101000a81548160ff021916908360028111156125dd576125dc613a16565b5b0217905550600c821115612650578360028190555060005b600c8361260291906146a7565b81101561264a576064600a60025461261a919061447b565b612624919061470a565b60025461263191906144bd565b60028190555080806126429061473b565b9150506125f5565b50612658565b836002819055505b5050505050565b60008054906101000a900473ffffffffffffffffffffffffffffffffffffffff1673ffffffffffffffffffffffffffffffffffffffff163373ffffffffffffffffffffffffffffffffffffffff16146126ed576040517f08c379a00000000000000000000000000000000000000000000000000000000081526004016126e4906143c0565b60405180910390fd5b6001600281111561270157612700613a16565b5b600760009054906101000a900460ff16600281111561272357612722613a16565b5b14612763576040517f08c379a000000000000000000000000000000000000000000000000000000000815260040161275a90613fe4565b60405180910390fd5b600b60008473ffffffffffffffffffffffffffffffffffffffff1673ffffffffffffffffffffffffffffffffffffffff16815260200190815260200160002060020160009054906101000a900460ff16156127f3576040517f08c379a00000000000000000000000000000000000000000000000000000000081526004016127ea90614050565b60405180910390fd5b80600b60008573ffffffffffffffffffffffffffffffffffffffff1673ffffffffffffffffffffffffffffffffffffffff1681526020019081526020016000206001019081612842919061427c565b506001600b60008573ffffffffffffffffffffffffffffffffffffffff1673ffffffffffffffffffffffffffffffffffffffff16815260200190815260200160002060020160006101000a81548160ff0219169083151502179055508273ffffffffffffffffffffffffffffffffffffffff167f3f4e6af64bdebcc56ceee6ecb3515edc14406e2837086307f8aac7c6c2c13e9e83836040516128e6929190613b01565b60405180910390a2505050565b600160009054906101000a900473ffffffffffffffffffffffffffffffffffffffff1681565b600160009054906101000a900473ffffffffffffffffffffffffffffffffffffffff1673ffffffffffffffffffffffffffffffffffffffff163373ffffffffffffffffffffffffffffffffffffffff16146129a9576040517f08c379a00000000000000000000000000000000000000000000000000000000081526004016129a090613f78565b60405180910390fd5b600160028111156129bd576129bc613a16565b5b600760009054906101000a900460ff1660028111156129df576129de613a16565b5b14612a1f576040517f08c379a0000000000000000000000000000000000000000000000000000000008152600401612a1690613fe4565b60405180910390fd5b600960003373ffffffffffffffffffffffffffffffffffffffff1673ffffffffffffffffffffffffffffffffffffffff16815260200190815260200160002060020160009054906101000a900460ff1615612aaf576040517f08c379a0000000000000000000000000000000000000000000000000000000008152600401612aa690614050565b60405180910390fd5b604051806060016040528082815260200160405180602001604052806000815250815260200160001515815250600960003373ffffffffffffffffffffffffffffffffffffffff1673ffffffffffffffffffffffffffffffffffffffff1681526020019081526020016000206000820151816000019081612b30919061427c565b506020820151816001019081612b46919061427c565b5060408201518160020160006101000a81548160ff0219169083151502179055509050503373ffffffffffffffffffffffffffffffffffffffff167ffb4753f48b64166152947c129007d9befeb06a99b0ba4c5c726bdeaaf69f643282604051612bb09190613b94565b60405180910390a250565b60008054906101000a900473ffffffffffffffffffffffffffffffffffffffff1673ffffffffffffffffffffffffffffffffffffffff163373ffffffffffffffffffffffffffffffffffffffff1614612c49576040517f08c379a0000000000000000000000000000000000000000000000000000000008152600401612c40906143c0565b60405180910390fd5b60016002811115612c5d57612c5c613a16565b5b600760009054906101000a900460ff166002811115612c7f57612c7e613a16565b5b14612cbf576040517f08c379a0000000000000000000000000000000000000000000000000000000008152600401612cb690613fe4565b60405180910390fd5b600a60008473ffffffffffffffffffffffffffffffffffffffff1673ffffffffffffffffffffffffffffffffffffffff16815260200190815260200160002060020160009054906101000a900460ff1615612d4f576040517f08c379a0000000000000000000000000000000000000000000000000000000008152600401612d4690614050565b60405180910390fd5b80600a60008573ffffffffffffffffffffffffffffffffffffffff1673ffffffffffffffffffffffffffffffffffffffff1681526020019081526020016000206001019081612d9e919061427c565b506001600a60008573ffffffffffffffffffffffffffffffffffffffff1673ffffffffffffffffffffffffffffffffffffffff16815260200190815260200160002060020160006101000a81548160ff0219169083151502179055508273ffffffffffffffffffffffffffffffffffffffff167fc603d56572d90b1cce6a5e37cb6e795cad7d299a5f86fbb9240f2676d7fd17598383604051612e42929190613b01565b60405180910390a2505050565b60008054906101000a900473ffffffffffffffffffffffffffffffffffffffff1681565b60608060008060009054906101000a900473ffffffffffffffffffffffffffffffffffffffff1673ffffffffffffffffffffffffffffffffffffffff163373ffffffffffffffffffffffffffffffffffffffff1614612f07576040517f08c379a0000000000000000000000000000000000000000000000000000000008152600401612efe906143c0565b60405180910390fd5b6000600960008673ffffffffffffffffffffffffffffffffffffffff1673ffffffffffffffffffffffffffffffffffffffff168152602001908152602001600020604051806060016040529081600082018054612f639061409f565b80601f0160208091040260200160405190810160405280929190818152602001828054612f8f9061409f565b8015612fdc5780601f10612fb157610100808354040283529160200191612fdc565b820191906000526020600020905b815481529060010190602001808311612fbf57829003601f168201915b50505050508152602001600182018054612ff59061409f565b80601f01602080910402602001604051908101604052809291908181526020018280546130219061409f565b801561306e5780601f106130435761010080835404028352916020019161306e565b820191906000526020600020905b81548152906001019060200180831161305157829003601f168201915b505050505081526020016002820160009054906101000a900460ff1615151515815250509050806000015181602001518260400151935093509350509193909250565b60008060009054906101000a900473ffffffffffffffffffffffffffffffffffffffff16905090565b60025481565b60096020528060005260406000206000915090508060000180546131039061409f565b80601f016020809104026020016040519081016040528092919081815260200182805461312f9061409f565b801561317c5780601f106131515761010080835404028352916020019161317c565b820191906000526020600020905b81548152906001019060200180831161315f57829003601f168201915b5050505050908060010180546131919061409f565b80601f01602080910402602001604051908101604052809291908181526020018280546131bd9061409f565b801561320a5780601f106131df5761010080835404028352916020019161320a565b820191906000526020600020905b8154815290600101906020018083116131ed57829003601f168201915b5050505050908060020160009054906101000a900460ff16905083565b6060806000600160009054906101000a900473ffffffffffffffffffffffffffffffffffffffff1673ffffffffffffffffffffffffffffffffffffffff163373ffffffffffffffffffffffffffffffffffffffff16146132bc576040517f08c379a00000000000000000000000000000000000000000000000000000000081526004016132b390613f78565b60405180910390fd5b6000600960003373ffffffffffffffffffffffffffffffffffffffff1673ffffffffffffffffffffffffffffffffffffffff1681526020019081526020016000206040518060600160405290816000820180546133189061409f565b80601f01602080910402602001604051908101604052809291908181526020018280546133449061409f565b80156133915780601f1061336657610100808354040283529160200191613391565b820191906000526020600020905b81548152906001019060200180831161337457829003601f168201915b505050505081526020016001820180546133aa9061409f565b80601f01602080910402602001604051908101604052809291908181526020018280546133d69061409f565b80156134235780601f106133f857610100808354040283529160200191613423565b820191906000526020600020905b81548152906001019060200180831161340657829003601f168201915b505050505081526020016002820160009054906101000a900460ff161515151581525050905080600001518160200151826040015193509350935050909192565b6000600654905090565b6060806000600160009054906101000a900473ffffffffffffffffffffffffffffffffffffffff1673ffffffffffffffffffffffffffffffffffffffff163373ffffffffffffffffffffffffffffffffffffffff1614613503576040517f08c379a00000000000000000000000000000000000000000000000000000000081526004016134fa90613f78565b60405180910390fd5b6000600a60003373ffffffffffffffffffffffffffffffffffffffff1673ffffffffffffffffffffffffffffffffffffffff16815260200190815260200160002060405180606001604052908160008201805461355f9061409f565b80601f016020809104026020016040519081016040528092919081815260200182805461358b9061409f565b80156135d85780601f106135ad576101008083540402835291602001916135d8565b820191906000526020600020905b8154815290600101906020018083116135bb57829003601f168201915b505050505081526020016001820180546135f19061409f565b80601f016020809104026020016040519081016040528092919081815260200182805461361d9061409f565b801561366a5780601f1061363f5761010080835404028352916020019161366a565b820191906000526020600020905b81548152906001019060200180831161364d57829003601f168201915b505050505081526020016002820160009054906101000a900460ff161515151581525050905080600001518160200151826040015193509350935050909192565b6000819050919050565b6136be816136ab565b82525050565b60006020820190506136d960008301846136b5565b92915050565b600073ffffffffffffffffffffffffffffffffffffffff82169050919050565b600061370a826136df565b9050919050565b61371a816136ff565b82525050565b60006020820190506137356000830184613711565b92915050565b6000604051905090565b600080fd5b600080fd5b600080fd5b600080fd5b6000601f19601f8301169050919050565b7f4e487b7100000000000000000000000000000000000000000000000000000000600052604160045260246000fd5b6137a282613759565b810181811067ffffffffffffffff821117156137c1576137c061376a565b5b80604052505050565b60006137d461373b565b90506137e08282613799565b919050565b600067ffffffffffffffff821115613800576137ff61376a565b5b61380982613759565b9050602081019050919050565b82818337600083830152505050565b6000613838613833846137e5565b6137ca565b90508281526020810184848401111561385457613853613754565b5b61385f848285613816565b509392505050565b600082601f83011261387c5761387b61374f565b5b813561388c848260208601613825565b91505092915050565b6000602082840312156138ab576138aa613745565b5b600082013567ffffffffffffffff8111156138c9576138c861374a565b5b6138d584828501613867565b91505092915050565b6138e7816136ff565b81146138f257600080fd5b50565b600081359050613904816138de565b92915050565b6000602082840312156139205761391f613745565b5b600061392e848285016138f5565b91505092915050565b600081519050919050565b600082825260208201905092915050565b60005b83811015613971578082015181840152602081019050613956565b60008484015250505050565b600061398882613937565b6139928185613942565b93506139a2818560208601613953565b6139ab81613759565b840191505092915050565b60008115159050919050565b6139cb816139b6565b82525050565b600060608201905081810360008301526139eb818661397d565b905081810360208301526139ff818561397d565b9050613a0e60408301846139c2565b949350505050565b7f4e487b7100000000000000000000000000000000000000000000000000000000600052602160045260246000fd5b60038110613a5657613a55613a16565b5b50565b6000819050613a6782613a45565b919050565b6000613a7782613a59565b9050919050565b613a8781613a6c565b82525050565b6000602082019050613aa26000830184613a7e565b92915050565b613ab1816136ab565b8114613abc57600080fd5b50565b600081359050613ace81613aa8565b92915050565b600060208284031215613aea57613ae9613745565b5b6000613af884828501613abf565b91505092915050565b60006040820190508181036000830152613b1b818561397d565b90508181036020830152613b2f818461397d565b90509392505050565b60008060408385031215613b4f57613b4e613745565b5b6000613b5d858286016138f5565b925050602083013567ffffffffffffffff811115613b7e57613b7d61374a565b5b613b8a85828601613867565b9150509250929050565b60006020820190508181036000830152613bae818461397d565b905092915050565b600081519050919050565b600082825260208201905092915050565b6000819050602082019050919050565b600082825260208201905092915050565b6000613bfe82613937565b613c088185613be2565b9350613c18818560208601613953565b613c2181613759565b840191505092915050565b60006040830160008301518482036000860152613c498282613bf3565b91505060208301518482036020860152613c638282613bf3565b9150508091505092915050565b6000613c7c8383613c2c565b905092915050565b6000602082019050919050565b6000613c9c82613bb6565b613ca68185613bc1565b935083602082028501613cb885613bd2565b8060005b85811015613cf45784840389528151613cd58582613c70565b9450613ce083613c84565b925060208a01995050600181019050613cbc565b50829750879550505050505092915050565b60006020820190508181036000830152613d208184613c91565b905092915050565b600080600060608486031215613d4157613d40613745565b5b6000613d4f86828701613abf565b9350506020613d6086828701613abf565b9250506040613d7186828701613abf565b9150509250925092565b600061010082019050613d91600083018b613711565b613d9e602083018a613711565b613dab60408301896136b5565b613db860608301886136b5565b613dc560808301876136b5565b613dd260a08301866136b5565b613ddf60c08301856136b5565b81810360e0830152613df1818461397d565b90509998505050505050505050565b600080600080600060a08688031215613e1c57613e1b613745565b5b6000613e2a888289016138f5565b9550506020613e3b88828901613abf565b9450506040613e4c88828901613abf565b9350506060613e5d88828901613abf565b9250506080613e6e88828901613abf565b9150509295509295909350565b600080600060608486031215613e9457613e93613745565b5b6000613ea2868287016138f5565b935050602084013567ffffffffffffffff811115613ec357613ec261374a565b5b613ecf86828701613867565b925050604084013567ffffffffffffffff811115613ef057613eef61374a565b5b613efc86828701613867565b9150509250925092565b7f4f6e6c792074656e616e742063616e20706572666f726d20746869732061637460008201527f696f6e0000000000000000000000000000000000000000000000000000000000602082015250565b6000613f62602383613942565b9150613f6d82613f06565b604082019050919050565b60006020820190508181036000830152613f9181613f55565b9050919050565b7f41677265656d656e7420737461747573206d7573742062652061637469766500600082015250565b6000613fce601f83613942565b9150613fd982613f98565b602082019050919050565b60006020820190508181036000830152613ffd81613fc1565b9050919050565b7f4469737075746520616c7265616479207265736f6c7665640000000000000000600082015250565b600061403a601883613942565b915061404582614004565b602082019050919050565b600060208201905081810360008301526140698161402d565b9050919050565b7f4e487b7100000000000000000000000000000000000000000000000000000000600052602260045260246000fd5b600060028204905060018216806140b757607f821691505b6020821081036140ca576140c9614070565b5b50919050565b60008190508160005260206000209050919050565b60006020601f8301049050919050565b600082821b905092915050565b6000600883026141327fffffffffffffffffffffffffffffffffffffffffffffffffffffffffffffffff826140f5565b61413c86836140f5565b95508019841693508086168417925050509392505050565b6000819050919050565b600061417961417461416f846136ab565b614154565b6136ab565b9050919050565b6000819050919050565b6141938361415e565b6141a761419f82614180565b848454614102565b825550505050565b600090565b6141bc6141af565b6141c781848461418a565b505050565b5b818110156141eb576141e06000826141b4565b6001810190506141cd565b5050565b601f82111561423057614201816140d0565b61420a846140e5565b81016020851015614219578190505b61422d614225856140e5565b8301826141cc565b50505b505050565b600082821c905092915050565b600061425360001984600802614235565b1980831691505092915050565b600061426c8383614242565b9150826002028217905092915050565b61428582613937565b67ffffffffffffffff81111561429e5761429d61376a565b5b6142a8825461409f565b6142b38282856141ef565b600060209050601f8311600181146142e657600084156142d4578287015190505b6142de8582614260565b865550614346565b601f1984166142f4866140d0565b60005b8281101561431c578489015182556001820191506020850194506020810190506142f7565b868310156143395784890151614335601f891682614242565b8355505b6001600288020188555050505b505050505050565b7f4f6e6c79206c616e646c6f72642063616e20706572666f726d2074686973206160008201527f6374696f6e000000000000000000000000000000000000000000000000000000602082015250565b60006143aa602583613942565b91506143b58261434e565b604082019050919050565b600060208201905081810360008301526143d98161439d565b9050919050565b7f41677265656d656e74206973206e6f742070656e64696e670000000000000000600082015250565b6000614416601883613942565b9150614421826143e0565b602082019050919050565b6000602082019050818103600083015261444581614409565b9050919050565b7f4e487b7100000000000000000000000000000000000000000000000000000000600052601160045260246000fd5b6000614486826136ab565b9150614491836136ab565b925082820261449f816136ab565b915082820484148315176144b6576144b561444c565b5b5092915050565b60006144c8826136ab565b91506144d3836136ab565b92508282019050808211156144eb576144ea61444c565b5b92915050565b7f41677265656d656e742068617320616c7265616479206265656e207465726d6960008201527f6e61746564000000000000000000000000000000000000000000000000000000602082015250565b600061454d602583613942565b9150614558826144f1565b604082019050919050565b6000602082019050818103600083015261457c81614540565b9050919050565b7f41677265656d656e74206d7573742062652061637469766520746f2072656e6560008201527f7700000000000000000000000000000000000000000000000000000000000000602082015250565b60006145df602183613942565b91506145ea82614583565b604082019050919050565b6000602082019050818103600083015261460e816145d2565b9050919050565b7f4e6577206c65617365206475726174696f6e206d75737420626520677265617460008201527f6572207468616e207a65726f0000000000000000000000000000000000000000602082015250565b6000614671602c83613942565b915061467c82614615565b604082019050919050565b600060208201905081810360008301526146a081614664565b9050919050565b60006146b2826136ab565b91506146bd836136ab565b92508282039050818111156146d5576146d461444c565b5b92915050565b7f4e487b7100000000000000000000000000000000000000000000000000000000600052601260045260246000fd5b6000614715826136ab565b9150614720836136ab565b9250826147305761472f6146db565b5b828204905092915050565b6000614746826136ab565b91507fffffffffffffffffffffffffffffffffffffffffffffffffffffffffffffffff82036147785761477761444c565b5b600182019050919050565b7f41677265656d656e7420616c726561647920696e697469617465640000000000600082015250565b60006147b9601b83613942565b91506147c482614783565b602082019050919050565b600060208201905081810360008301526147e8816147ac565b905091905056fea2646970667358221220e085c7b5f83e8675f667534aca4ee7eaa755f9f14b59db67065a43f94538d3c564736f6c634300081300335468652070617274792077686f2069732072656e74696e67207468652070726f70657274792066726f6d20746865206c6573736f722e426f74682070617274696573206d757374207369676e207468652061677265656d656e7420746f206d616b65206974206c6567616c6c792062696e64696e672e546865206475726174696f6e20666f72207768696368207468652070726f7065727479206973206265696e67206c65617365642028652e672e2c203132206d6f6e746873292e536572766963657320737563682061732077617465722c20656c6563747269636974792c20616e64206761732070726f766964656420746f207468652070726f70657274792e436f6e646974696f6e7320756e64657220776869636820746865206c656173652063616e206265207465726d696e61746564206279206569746865722070617274792e4120726566756e6461626c6520616d6f756e742070616964206279207468652074656e616e7420617320736563757269747920616761696e73742064616d61676573206f7220756e706169642072656e742e536974756174696f6e7320776865726520656974686572207061727479206661696c7320746f2066756c66696c6c207468656972206f626c69676174696f6e732e54686520616476616e6365206e6f74696365207265717569726564206265666f7265207465726d696e6174696e6720746865206c656173652e526573706f6e736962696c69746965732072656c6174656420746f2070726f70657274792075706b65657020616e6420726570616972732e5468652070617274792077686f206f776e73207468652070726f706572747920616e64206973206c656173696e6720697420746f207468652074656e616e742e54686520616d6f756e742070616964206279207468652074656e616e7420746f20746865206c6573736f7220666f72207573696e67207468652070726f70657274792e",
  "immutableReferences": {},
  "source": "// SPDX-License-Identifier: MIT\r\npragma solidity ^0.8.19;\r\n\r\ncontract RentalContract {\r\n\r\n    address public landlord; // Landlord Address\r\n    address public tenant; // Tenant Address\r\n    \r\n    uint256 public rentAmount; // Monthly Rent Amount\r\n    uint256 public securityDeposit; // Security Deposit\r\n    uint256 public leaseDuration; // in months\r\n    uint256 public startDate; // Start date\r\n    uint256 public terminationDate; // Termination date\r\n\r\n    enum AgreementStatus { Pending, Active, Terminated }\r\n    AgreementStatus public status; // Status of Agreement\r\n\r\n    struct ContractTerms {\r\n        string termName;\r\n        string description;\r\n    }\r\n    \r\n    ContractTerms[] public sampleContractTerms;\r\n\r\n    struct SecurityDepositDispute {\r\n        string reason;\r\n        string resolution;\r\n        bool resolved;\r\n    }\r\n\r\n    struct RentPaymentDispute {\r\n        string month;\r\n        string resolution;\r\n        bool resolved;\r\n    }\r\n\r\n    struct MaintenanceDispute {\r\n        string issue;\r\n        string resolution;\r\n        bool resolved;\r\n    }\r\n\r\n    mapping(address => SecurityDepositDispute) public securityDepositDisputes;\r\n    mapping(address => RentPaymentDispute) public rentPaymentDisputes;\r\n    mapping(address => MaintenanceDispute) public maintenanceDisputes;\r\n\r\n    // Events for dispute resolution\r\n    event SecurityDepositDisputeRaised(address indexed _tenant, string _reason);\r\n    event SecurityDepositDisputeResolved(address indexed _tenant, string _resolution);\r\n\r\n    event RentPaymentDisputeRaised(address indexed _tenant, string _month);\r\n    event RentPaymentDisputeResolved(address indexed _tenant, string _month, string _resolution);\r\n\r\n    event MaintenanceDisputeRaised(address indexed _tenant, string _issue);\r\n    event MaintenanceDisputeResolved(address indexed _tenant, string _issue, string _resolution);\r\n\r\n    modifier onlyLandlord() {\r\n        require(msg.sender == landlord, \"Only landlord can perform this action\");\r\n        _;\r\n    }\r\n\r\n    modifier onlyTenant() {\r\n        require(msg.sender == tenant, \"Only tenant can perform this action\");\r\n        _;\r\n    }\r\n\r\n    modifier onlyParties() {\r\n        require(msg.sender == landlord || msg.sender == tenant, \"Only parties involved can perform this action\");\r\n        _;\r\n    }\r\n\r\n    modifier agreementActive() {\r\n        require(status == AgreementStatus.Active, \"Agreement status must be active\");\r\n        _;\r\n    }\r\n\r\n    constructor() {\r\n        landlord = msg.sender;\r\n        \r\n        // Initialize sample contract terms\r\n        // sampleContractTerms.push(ContractTerms(\"Term 1\", \"Description of Term 1\"));\r\n        // sampleContractTerms.push(ContractTerms(\"Term 2\", \"Description of Term 2\"));\r\n        // Add more terms as needed\r\n        // Initialize sample contract terms\r\n        sampleContractTerms.push(ContractTerms(\"LESSOR\", \"The party who owns the property and is leasing it to the tenant.\"));\r\n        sampleContractTerms.push(ContractTerms(\"TENANT\", \"The party who is renting the property from the lessor.\"));\r\n        sampleContractTerms.push(ContractTerms(\"LEASE TERM\", \"The duration for which the property is being leased (e.g., 12 months).\"));\r\n        sampleContractTerms.push(ContractTerms(\"RENT\", \"The amount paid by the tenant to the lessor for using the property.\"));\r\n        sampleContractTerms.push(ContractTerms(\"SECURITY DEPOSIT\", \"A refundable amount paid by the tenant as security against damages or unpaid rent.\"));\r\n        sampleContractTerms.push(ContractTerms(\"UTILITIES\", \"Services such as water, electricity, and gas provided to the property.\"));\r\n        sampleContractTerms.push(ContractTerms(\"MAINTENANCE\", \"Responsibilities related to property upkeep and repairs.\"));\r\n        sampleContractTerms.push(ContractTerms(\"TERMINATION\", \"Conditions under which the lease can be terminated by either party.\"));\r\n        sampleContractTerms.push(ContractTerms(\"NOTICE PERIOD\", \"The advance notice required before terminating the lease.\"));\r\n        sampleContractTerms.push(ContractTerms(\"DEFAULT\", \"Situations where either party fails to fulfill their obligations.\"));\r\n        sampleContractTerms.push(ContractTerms(\"SIGNATURES\", \"Both parties must sign the agreement to make it legally binding.\"));\r\n\r\n    }\r\n    \r\n    function initiateAgreement(\r\n        address _tenant,\r\n        uint256 _rentAmount,\r\n        uint256 _securityDeposit,\r\n        uint256 _leaseDuration,\r\n        uint256 _startDate\r\n    ) external  {\r\n        require(status == AgreementStatus.Pending, \"Agreement already initiated\");\r\n        tenant = _tenant;\r\n        securityDeposit = _securityDeposit;\r\n        leaseDuration = _leaseDuration;\r\n        startDate = _startDate;\r\n        status = AgreementStatus.Pending;\r\n        \r\n        if (_leaseDuration > 12) {\r\n            rentAmount = _rentAmount;\r\n            for (uint256 i = 0; i < _leaseDuration - 12; i++) {\r\n                rentAmount = rentAmount + (rentAmount * 10 / 100); // Increase rent by 10% yearly\r\n            }\r\n        } else {\r\n            rentAmount = _rentAmount;\r\n        }\r\n    }\r\n\r\n    function approveAgreement() external onlyTenant {\r\n        require(status == AgreementStatus.Pending, \"Agreement is not pending\");\r\n        status = AgreementStatus.Active;\r\n        terminationDate = startDate + (leaseDuration * 30 days);\r\n    }\r\n\r\n    function disapproveAgreement() external onlyTenant {\r\n        require(status == AgreementStatus.Pending, \"Agreement is not pending\");\r\n        status = AgreementStatus.Terminated;\r\n    }\r\n\r\n    function terminateAgreement() external onlyLandlord {\r\n        require(status != AgreementStatus.Terminated, \"Agreement has already been terminated\");\r\n        status = AgreementStatus.Terminated;\r\n    }\r\n\r\n    function renewContract(\r\n        uint256 _newLeaseDuration,\r\n        uint256 _newStartDate,\r\n        uint256 _newRentAmount\r\n    ) external onlyLandlord {\r\n        require(status == AgreementStatus.Active, \"Agreement must be active to renew\");\r\n        require(_newLeaseDuration > 0, \"New lease duration must be greater than zero\");\r\n        \r\n        // Update lease duration and start date\r\n        leaseDuration = _newLeaseDuration;\r\n        startDate = _newStartDate;\r\n        \r\n        // If the new lease duration is greater than 12 months, adjust the rent amount accordingly\r\n        if (_newLeaseDuration > 12) {\r\n            rentAmount = _newRentAmount;\r\n            for (uint256 i = 0; i < _newLeaseDuration - 12; i++) {\r\n                rentAmount = rentAmount + (rentAmount * 10 / 100); // Increase rent by 10% yearly\r\n            }\r\n        } else {\r\n            rentAmount = _newRentAmount;\r\n        }\r\n        \r\n        // Reset termination date based on the new lease duration\r\n        terminationDate = startDate + (_newLeaseDuration * 30 days);\r\n    }\r\n\r\n\r\n    // Function to retrieve landlord's address\r\n    function getLandlord() external view returns (address) {\r\n        return landlord;\r\n    }\r\n    \r\n    // Function to retrieve tenant's address\r\n    function getTenant() external view returns (address) {\r\n        return tenant;\r\n    }\r\n    \r\n    // Function to retrieve rent amount\r\n    function getRentAmount() external view returns (uint256) {\r\n        return rentAmount;\r\n    }\r\n    \r\n    // Function to retrieve security deposit\r\n    function getSecurityDeposit() external view returns (uint256) {\r\n        return securityDeposit;\r\n    }\r\n    \r\n    // Function to retrieve lease duration\r\n    function getLeaseDuration() external view returns (uint256) {\r\n        return leaseDuration;\r\n    }\r\n    \r\n    // Function to retrieve start date\r\n    function getStartDate() external view returns (uint256) {\r\n        return startDate;\r\n    }\r\n    \r\n    // Function to retrieve termination date\r\n    function getTerminationDate() external view returns (uint256) {\r\n        return terminationDate;\r\n    }\r\n    \r\n    // Function to retrieve agreement status\r\n    function getStatus() external view returns (string memory) {\r\n        if (status == AgreementStatus.Pending) {\r\n            return \"Pending\";\r\n        } else if (status == AgreementStatus.Active) {\r\n            return \"Active\";\r\n        } else if (status == AgreementStatus.Terminated) {\r\n            return \"Terminated\";\r\n        } else {\r\n            return \"Error\";\r\n        }\r\n    }\r\n\r\n    // Function to retrieve contract terms\r\n    function getContractTerms() external view returns (ContractTerms[] memory) {\r\n        return sampleContractTerms;\r\n    }\r\n    \r\n        // Function to retrieve all contract details\r\n    function getContractDetails() external view returns (\r\n        address _landlord,\r\n        address _tenant,\r\n        uint256 _rentAmount,\r\n        uint256 _securityDeposit,\r\n        uint256 _leaseDuration,\r\n        uint256 _startDate,\r\n        uint256 _terminationDate,\r\n        string memory _status\r\n    ) {\r\n        _landlord = landlord;\r\n        _tenant = tenant;\r\n        _rentAmount = rentAmount;\r\n        _securityDeposit = securityDeposit;\r\n        _leaseDuration = leaseDuration;\r\n        _startDate = startDate;\r\n        _terminationDate = terminationDate;\r\n        \r\n        if (status == AgreementStatus.Pending) {\r\n            _status = \"Pending\";\r\n        } else if (status == AgreementStatus.Active) {\r\n            _status = \"Active\";\r\n        } else if (status == AgreementStatus.Terminated) {\r\n            _status = \"Terminated\";\r\n        } else {\r\n            _status = \"Error\";\r\n        }\r\n    }\r\n\r\n\r\n    //Dispute Resolution Functions\r\n\r\n     // Function to raise a dispute regarding the security deposit\r\n    function raiseSecurityDepositDispute(string memory _reason) external onlyTenant agreementActive {\r\n        require(!securityDepositDisputes[msg.sender].resolved, \"Dispute already resolved\");\r\n        securityDepositDisputes[msg.sender] = SecurityDepositDispute(_reason, \"\", false);\r\n        emit SecurityDepositDisputeRaised(msg.sender, _reason);\r\n    }\r\n\r\n    // Function for the landlord to respond to a security deposit dispute\r\n    function respondToSecurityDepositDispute(address _tenant, string memory _resolution) external onlyLandlord agreementActive {\r\n        require(!securityDepositDisputes[_tenant].resolved, \"Dispute already resolved\");\r\n        securityDepositDisputes[_tenant].resolution = _resolution;\r\n        securityDepositDisputes[_tenant].resolved = true;\r\n        emit SecurityDepositDisputeResolved(_tenant, _resolution);\r\n    }\r\n\r\n    // Function to raise a dispute regarding rent payment for a specific month\r\n    function raiseRentPaymentDispute(string memory _month) external onlyTenant agreementActive {\r\n        require(!rentPaymentDisputes[msg.sender].resolved, \"Dispute already resolved\");\r\n        rentPaymentDisputes[msg.sender] = RentPaymentDispute(_month, \"\", false);\r\n        emit RentPaymentDisputeRaised(msg.sender, _month);\r\n    }\r\n\r\n    // Function for the landlord to respond to a rent payment dispute\r\n    function respondToRentPaymentDispute(address _tenant, string memory _month, string memory _resolution) external onlyLandlord agreementActive {\r\n        require(!rentPaymentDisputes[_tenant].resolved, \"Dispute already resolved\");\r\n        rentPaymentDisputes[_tenant].resolution = _resolution;\r\n        rentPaymentDisputes[_tenant].resolved = true;\r\n        emit RentPaymentDisputeResolved(_tenant, _month, _resolution);\r\n    }\r\n\r\n    // Function to raise a dispute regarding maintenance issues\r\n    function raiseMaintenanceDispute(string memory _issue) external onlyTenant agreementActive {\r\n        require(!maintenanceDisputes[msg.sender].resolved, \"Dispute already resolved\");\r\n        maintenanceDisputes[msg.sender] = MaintenanceDispute(_issue, \"\", false);\r\n        emit MaintenanceDisputeRaised(msg.sender, _issue);\r\n    }\r\n\r\n    // Function for the landlord to respond to a maintenance dispute\r\n    function respondToMaintenanceDispute(address _tenant, string memory _issue, string memory _resolution) external onlyLandlord agreementActive {\r\n        require(!maintenanceDisputes[_tenant].resolved, \"Dispute already resolved\");\r\n        maintenanceDisputes[_tenant].resolution = _resolution;\r\n        maintenanceDisputes[_tenant].resolved = true;\r\n        emit MaintenanceDisputeResolved(_tenant, _issue, _resolution);\r\n    }\r\n\r\n        // Function for tenant to get details of their security deposit dispute\r\n    function getSecurityDepositDispute() external view onlyTenant returns (string memory, string memory, bool) {\r\n        SecurityDepositDispute memory dispute = securityDepositDisputes[msg.sender];\r\n        return (dispute.reason, dispute.resolution, dispute.resolved);\r\n    }\r\n\r\n    // Function for tenant to get details of their rent payment dispute\r\n    function getRentPaymentDispute() external view onlyTenant returns (string memory, string memory, bool) {\r\n        RentPaymentDispute memory dispute = rentPaymentDisputes[msg.sender];\r\n        return (dispute.month, dispute.resolution, dispute.resolved);\r\n    }\r\n\r\n    // Function for tenant to get details of their maintenance dispute\r\n    function getMaintenanceDispute() external view onlyTenant returns (string memory, string memory, bool) {\r\n        MaintenanceDispute memory dispute = maintenanceDisputes[msg.sender];\r\n        return (dispute.issue, dispute.resolution, dispute.resolved);\r\n    }\r\n\r\n    // Function for landlord to get details of tenant's security deposit dispute\r\n    function getTenantSecurityDepositDispute(address _tenant) external view onlyLandlord returns (string memory, string memory, bool) {\r\n        SecurityDepositDispute memory dispute = securityDepositDisputes[_tenant];\r\n        return (dispute.reason, dispute.resolution, dispute.resolved);\r\n    }\r\n\r\n    // Function for landlord to get details of tenant's rent payment dispute\r\n    function getTenantRentPaymentDispute(address _tenant) external view onlyLandlord returns (string memory, string memory, bool) {\r\n        RentPaymentDispute memory dispute = rentPaymentDisputes[_tenant];\r\n        return (dispute.month, dispute.resolution, dispute.resolved);\r\n    }\r\n\r\n    // Function for landlord to get details of tenant's maintenance dispute\r\n    function getTenantMaintenanceDispute(address _tenant) external view onlyLandlord returns (string memory, string memory, bool) {\r\n        MaintenanceDispute memory dispute = maintenanceDisputes[_tenant];\r\n        return (dispute.issue, dispute.resolution, dispute.resolved);\r\n    }\r\n    \r\n}",
  "sourcePath": "C:\\Users\\usman\\OneDrive\\Documents\\FYO\\TranspaRent FYP2\\TranspaRent_v2\\TranspaRent_v2\\Blockchain\\contracts\\RentalContract.sol",
  "compiler": {
    "name": "solc",
    "version": "0.8.19+commit.7dd6d404.Emscripten.clang"
  },
  "schemaVersion": "3.4.16",
  "updatedAt": "2024-03-29T02:47:44.627Z",
  "networkType": "ethereum",
  "devdoc": {
    "kind": "dev",
    "methods": {},
    "version": 1
  },
  "userdoc": {
    "kind": "user",
    "methods": {},
    "version": 1
  }
}