{
  "contractName": "RentalContract",
  "abi": [
    {
      "inputs": [],
      "stateMutability": "nonpayable",
      "type": "constructor"
    },
    {
      "anonymous": false,
      "inputs": [
        {
          "indexed": true,
          "internalType": "address",
          "name": "_tenant",
          "type": "address"
        },
        {
          "indexed": false,
          "internalType": "string",
          "name": "_issue",
          "type": "string"
        }
      ],
      "name": "MaintenanceDisputeRaised",
      "type": "event"
    },
    {
      "anonymous": false,
      "inputs": [
        {
          "indexed": true,
          "internalType": "address",
          "name": "_tenant",
          "type": "address"
        },
        {
          "indexed": false,
          "internalType": "string",
          "name": "_issue",
          "type": "string"
        },
        {
          "indexed": false,
          "internalType": "string",
          "name": "_resolution",
          "type": "string"
        }
      ],
      "name": "MaintenanceDisputeResolved",
      "type": "event"
    },
    {
      "anonymous": false,
      "inputs": [
        {
          "indexed": true,
          "internalType": "address",
          "name": "_tenant",
          "type": "address"
        },
        {
          "indexed": false,
          "internalType": "string",
          "name": "_month",
          "type": "string"
        }
      ],
      "name": "RentPaymentDisputeRaised",
      "type": "event"
    },
    {
      "anonymous": false,
      "inputs": [
        {
          "indexed": true,
          "internalType": "address",
          "name": "_tenant",
          "type": "address"
        },
        {
          "indexed": false,
          "internalType": "string",
          "name": "_month",
          "type": "string"
        },
        {
          "indexed": false,
          "internalType": "string",
          "name": "_resolution",
          "type": "string"
        }
      ],
      "name": "RentPaymentDisputeResolved",
      "type": "event"
    },
    {
      "anonymous": false,
      "inputs": [
        {
          "indexed": true,
          "internalType": "address",
          "name": "_tenant",
          "type": "address"
        },
        {
          "indexed": false,
          "internalType": "string",
          "name": "_reason",
          "type": "string"
        }
      ],
      "name": "SecurityDepositDisputeRaised",
      "type": "event"
    },
    {
      "anonymous": false,
      "inputs": [
        {
          "indexed": true,
          "internalType": "address",
          "name": "_tenant",
          "type": "address"
        },
        {
          "indexed": false,
          "internalType": "string",
          "name": "_resolution",
          "type": "string"
        }
      ],
      "name": "SecurityDepositDisputeResolved",
      "type": "event"
    },
    {
      "inputs": [],
      "name": "landlord",
      "outputs": [
        {
          "internalType": "address",
          "name": "",
          "type": "address"
        }
      ],
      "stateMutability": "view",
      "type": "function"
    },
    {
      "inputs": [],
      "name": "leaseDuration",
      "outputs": [
        {
          "internalType": "uint256",
          "name": "",
          "type": "uint256"
        }
      ],
      "stateMutability": "view",
      "type": "function"
    },
    {
      "inputs": [
        {
          "internalType": "address",
          "name": "",
          "type": "address"
        }
      ],
      "name": "maintenanceDisputes",
      "outputs": [
        {
          "internalType": "string",
          "name": "issue",
          "type": "string"
        },
        {
          "internalType": "string",
          "name": "resolution",
          "type": "string"
        },
        {
          "internalType": "bool",
          "name": "resolved",
          "type": "bool"
        }
      ],
      "stateMutability": "view",
      "type": "function"
    },
    {
      "inputs": [],
      "name": "rentAmount",
      "outputs": [
        {
          "internalType": "uint256",
          "name": "",
          "type": "uint256"
        }
      ],
      "stateMutability": "view",
      "type": "function"
    },
    {
      "inputs": [
        {
          "internalType": "address",
          "name": "",
          "type": "address"
        }
      ],
      "name": "rentPaymentDisputes",
      "outputs": [
        {
          "internalType": "string",
          "name": "month",
          "type": "string"
        },
        {
          "internalType": "string",
          "name": "resolution",
          "type": "string"
        },
        {
          "internalType": "bool",
          "name": "resolved",
          "type": "bool"
        }
      ],
      "stateMutability": "view",
      "type": "function"
    },
    {
      "inputs": [
        {
          "internalType": "uint256",
          "name": "",
          "type": "uint256"
        }
      ],
      "name": "sampleContractTerms",
      "outputs": [
        {
          "internalType": "string",
          "name": "termName",
          "type": "string"
        },
        {
          "internalType": "string",
          "name": "description",
          "type": "string"
        }
      ],
      "stateMutability": "view",
      "type": "function"
    },
    {
      "inputs": [],
      "name": "securityDeposit",
      "outputs": [
        {
          "internalType": "uint256",
          "name": "",
          "type": "uint256"
        }
      ],
      "stateMutability": "view",
      "type": "function"
    },
    {
      "inputs": [
        {
          "internalType": "address",
          "name": "",
          "type": "address"
        }
      ],
      "name": "securityDepositDisputes",
      "outputs": [
        {
          "internalType": "string",
          "name": "reason",
          "type": "string"
        },
        {
          "internalType": "string",
          "name": "resolution",
          "type": "string"
        },
        {
          "internalType": "bool",
          "name": "resolved",
          "type": "bool"
        }
      ],
      "stateMutability": "view",
      "type": "function"
    },
    {
      "inputs": [],
      "name": "startDate",
      "outputs": [
        {
          "internalType": "uint256",
          "name": "",
          "type": "uint256"
        }
      ],
      "stateMutability": "view",
      "type": "function"
    },
    {
      "inputs": [],
      "name": "status",
      "outputs": [
        {
          "internalType": "enum RentalContract.AgreementStatus",
          "name": "",
          "type": "uint8"
        }
      ],
      "stateMutability": "view",
      "type": "function"
    },
    {
      "inputs": [],
      "name": "tenant",
      "outputs": [
        {
          "internalType": "address",
          "name": "",
          "type": "address"
        }
      ],
      "stateMutability": "view",
      "type": "function"
    },
    {
      "inputs": [],
      "name": "terminationDate",
      "outputs": [
        {
          "internalType": "uint256",
          "name": "",
          "type": "uint256"
        }
      ],
      "stateMutability": "view",
      "type": "function"
    },
    {
      "inputs": [
        {
          "internalType": "address",
          "name": "_tenant",
          "type": "address"
        },
        {
          "internalType": "uint256",
          "name": "_rentAmount",
          "type": "uint256"
        },
        {
          "internalType": "uint256",
          "name": "_securityDeposit",
          "type": "uint256"
        },
        {
          "internalType": "uint256",
          "name": "_leaseDuration",
          "type": "uint256"
        },
        {
          "internalType": "uint256",
          "name": "_startDate",
          "type": "uint256"
        }
      ],
      "name": "initiateAgreement",
      "outputs": [],
      "stateMutability": "nonpayable",
      "type": "function"
    },
    {
      "inputs": [],
      "name": "approveAgreement",
      "outputs": [],
      "stateMutability": "nonpayable",
      "type": "function"
    },
    {
      "inputs": [],
      "name": "disapproveAgreement",
      "outputs": [],
      "stateMutability": "nonpayable",
      "type": "function"
    },
    {
      "inputs": [],
      "name": "terminateAgreement",
      "outputs": [],
      "stateMutability": "nonpayable",
      "type": "function"
    },
    {
      "inputs": [
        {
          "internalType": "uint256",
          "name": "_newLeaseDuration",
          "type": "uint256"
        },
        {
          "internalType": "uint256",
          "name": "_newStartDate",
          "type": "uint256"
        },
        {
          "internalType": "uint256",
          "name": "_newRentAmount",
          "type": "uint256"
        }
      ],
      "name": "renewContract",
      "outputs": [],
      "stateMutability": "nonpayable",
      "type": "function"
    },
    {
      "inputs": [],
      "name": "getLandlord",
      "outputs": [
        {
          "internalType": "address",
          "name": "",
          "type": "address"
        }
      ],
      "stateMutability": "view",
      "type": "function"
    },
    {
      "inputs": [],
      "name": "getTenant",
      "outputs": [
        {
          "internalType": "address",
          "name": "",
          "type": "address"
        }
      ],
      "stateMutability": "view",
      "type": "function"
    },
    {
      "inputs": [],
      "name": "getRentAmount",
      "outputs": [
        {
          "internalType": "uint256",
          "name": "",
          "type": "uint256"
        }
      ],
      "stateMutability": "view",
      "type": "function"
    },
    {
      "inputs": [],
      "name": "getSecurityDeposit",
      "outputs": [
        {
          "internalType": "uint256",
          "name": "",
          "type": "uint256"
        }
      ],
      "stateMutability": "view",
      "type": "function"
    },
    {
      "inputs": [],
      "name": "getLeaseDuration",
      "outputs": [
        {
          "internalType": "uint256",
          "name": "",
          "type": "uint256"
        }
      ],
      "stateMutability": "view",
      "type": "function"
    },
    {
      "inputs": [],
      "name": "getStartDate",
      "outputs": [
        {
          "internalType": "uint256",
          "name": "",
          "type": "uint256"
        }
      ],
      "stateMutability": "view",
      "type": "function"
    },
    {
      "inputs": [],
      "name": "getTerminationDate",
      "outputs": [
        {
          "internalType": "uint256",
          "name": "",
          "type": "uint256"
        }
      ],
      "stateMutability": "view",
      "type": "function"
    },
    {
      "inputs": [],
      "name": "getStatus",
      "outputs": [
        {
          "internalType": "string",
          "name": "",
          "type": "string"
        }
      ],
      "stateMutability": "view",
      "type": "function"
    },
    {
      "inputs": [],
      "name": "getContractTerms",
      "outputs": [
        {
          "components": [
            {
              "internalType": "string",
              "name": "termName",
              "type": "string"
            },
            {
              "internalType": "string",
              "name": "description",
              "type": "string"
            }
          ],
          "internalType": "struct RentalContract.ContractTerms[]",
          "name": "",
          "type": "tuple[]"
        }
      ],
      "stateMutability": "view",
      "type": "function"
    },
    {
      "inputs": [],
      "name": "getContractDetails",
      "outputs": [
        {
          "internalType": "address",
          "name": "_landlord",
          "type": "address"
        },
        {
          "internalType": "address",
          "name": "_tenant",
          "type": "address"
        },
        {
          "internalType": "uint256",
          "name": "_rentAmount",
          "type": "uint256"
        },
        {
          "internalType": "uint256",
          "name": "_securityDeposit",
          "type": "uint256"
        },
        {
          "internalType": "uint256",
          "name": "_leaseDuration",
          "type": "uint256"
        },
        {
          "internalType": "uint256",
          "name": "_startDate",
          "type": "uint256"
        },
        {
          "internalType": "uint256",
          "name": "_terminationDate",
          "type": "uint256"
        },
        {
          "internalType": "string",
          "name": "_status",
          "type": "string"
        }
      ],
      "stateMutability": "view",
      "type": "function"
    },
    {
      "inputs": [
        {
          "internalType": "string",
          "name": "_reason",
          "type": "string"
        }
      ],
      "name": "raiseSecurityDepositDispute",
      "outputs": [],
      "stateMutability": "nonpayable",
      "type": "function"
    },
    {
      "inputs": [
        {
          "internalType": "address",
          "name": "_tenant",
          "type": "address"
        },
        {
          "internalType": "string",
          "name": "_resolution",
          "type": "string"
        }
      ],
      "name": "respondToSecurityDepositDispute",
      "outputs": [],
      "stateMutability": "nonpayable",
      "type": "function"
    },
    {
      "inputs": [
        {
          "internalType": "string",
          "name": "_month",
          "type": "string"
        }
      ],
      "name": "raiseRentPaymentDispute",
      "outputs": [],
      "stateMutability": "nonpayable",
      "type": "function"
    },
    {
      "inputs": [
        {
          "internalType": "address",
          "name": "_tenant",
          "type": "address"
        },
        {
          "internalType": "string",
          "name": "_month",
          "type": "string"
        },
        {
          "internalType": "string",
          "name": "_resolution",
          "type": "string"
        }
      ],
      "name": "respondToRentPaymentDispute",
      "outputs": [],
      "stateMutability": "nonpayable",
      "type": "function"
    },
    {
      "inputs": [
        {
          "internalType": "string",
          "name": "_issue",
          "type": "string"
        }
      ],
      "name": "raiseMaintenanceDispute",
      "outputs": [],
      "stateMutability": "nonpayable",
      "type": "function"
    },
    {
      "inputs": [
        {
          "internalType": "address",
          "name": "_tenant",
          "type": "address"
        },
        {
          "internalType": "string",
          "name": "_issue",
          "type": "string"
        },
        {
          "internalType": "string",
          "name": "_resolution",
          "type": "string"
        }
      ],
      "name": "respondToMaintenanceDispute",
      "outputs": [],
      "stateMutability": "nonpayable",
      "type": "function"
    },
    {
      "inputs": [],
      "name": "getSecurityDepositDispute",
      "outputs": [
        {
          "internalType": "string",
          "name": "",
          "type": "string"
        },
        {
          "internalType": "string",
          "name": "",
          "type": "string"
        },
        {
          "internalType": "bool",
          "name": "",
          "type": "bool"
        }
      ],
      "stateMutability": "view",
      "type": "function"
    },
    {
      "inputs": [],
      "name": "getRentPaymentDispute",
      "outputs": [
        {
          "internalType": "string",
          "name": "",
          "type": "string"
        },
        {
          "internalType": "string",
          "name": "",
          "type": "string"
        },
        {
          "internalType": "bool",
          "name": "",
          "type": "bool"
        }
      ],
      "stateMutability": "view",
      "type": "function"
    },
    {
      "inputs": [],
      "name": "getMaintenanceDispute",
      "outputs": [
        {
          "internalType": "string",
          "name": "",
          "type": "string"
        },
        {
          "internalType": "string",
          "name": "",
          "type": "string"
        },
        {
          "internalType": "bool",
          "name": "",
          "type": "bool"
        }
      ],
      "stateMutability": "view",
      "type": "function"
    },
    {
      "inputs": [
        {
          "internalType": "address",
          "name": "_tenant",
          "type": "address"
        }
      ],
      "name": "getTenantSecurityDepositDispute",
      "outputs": [
        {
          "internalType": "string",
          "name": "",
          "type": "string"
        },
        {
          "internalType": "string",
          "name": "",
          "type": "string"
        },
        {
          "internalType": "bool",
          "name": "",
          "type": "bool"
        }
      ],
      "stateMutability": "view",
      "type": "function"
    },
    {
      "inputs": [
        {
          "internalType": "address",
          "name": "_tenant",
          "type": "address"
        }
      ],
      "name": "getTenantRentPaymentDispute",
      "outputs": [
        {
          "internalType": "string",
          "name": "",
          "type": "string"
        },
        {
          "internalType": "string",
          "name": "",
          "type": "string"
        },
        {
          "internalType": "bool",
          "name": "",
          "type": "bool"
        }
      ],
      "stateMutability": "view",
      "type": "function"
    },
    {
      "inputs": [
        {
          "internalType": "address",
          "name": "_tenant",
          "type": "address"
        }
      ],
      "name": "getTenantMaintenanceDispute",
      "outputs": [
        {
          "internalType": "string",
          "name": "",
          "type": "string"
        },
        {
          "internalType": "string",
          "name": "",
          "type": "string"
        },
        {
          "internalType": "bool",
          "name": "",
          "type": "bool"
        }
      ],
      "stateMutability": "view",
      "type": "function"
    }
  ],
  "bytecode": "0x6040608081523462000c8557600080546001600160a01b03191633179055620000ad6200002b62000c8a565b6200003562000c8a565b60068152652622a9a9a7a960d11b602082015281526200005462000caa565b8381527f5468652070617274792077686f206f776e73207468652070726f70657274792060208201527f616e64206973206c656173696e6720697420746f207468652074656e616e742e84820152602082015262000cea565b6200013e620000bb62000c8a565b620000c562000c8a565b600681526515115390539560d21b60208201528152620000e462000caa565b603681527f5468652070617274792077686f2069732072656e74696e67207468652070726f60208201527f70657274792066726f6d20746865206c6573736f722e0000000000000000000084820152602082015262000cea565b620001e26200014c62000c8a565b6200015662000c8a565b600a8152694c45415345205445524d60b01b602082015281526200017962000cca565b604681527f546865206475726174696f6e20666f72207768696368207468652070726f706560208201527f727479206973206265696e67206c65617365642028652e672e2c203132206d6f8482015265373a3439949760d11b6060820152602082015262000cea565b620001ec62000c8a565b90620001f762000c8a565b60048152631491539560e21b602082015282526200021462000cca565b604381527f54686520616d6f756e742070616964206279207468652074656e616e7420746f60208201527f20746865206c6573736f7220666f72207573696e67207468652070726f70657282820152623a3c9760e91b60608201526020830152600880549268010000000000000000841015620009c5576001840180835584101562000aaf57600082815260209020815180516001600160401b039691878211620009c5578260011b840154600181811c9116801562000c7a575b6020821014620009a457601f811162000c28575b50602090601f831160011462000bab579180600194926020969460009262000b9f575b5050600019600383901b1c191690841b1781841b8301555b821b0101910151805190858211620009c557825490600182811c9216801562000b94575b6020831014620009a45781601f84931162000b3c575b50602090601f831160011462000ad15760009262000ac5575b50508160011b916000199060031b1c19161790555b6200043c6200039462000c8a565b6200039e62000c8a565b601081526f14d150d5549255164811115413d4d25560821b60208201528152620003c762000cca565b605281527f4120726566756e6461626c6520616d6f756e742070616964206279207468652060208201527f74656e616e7420617320736563757269747920616761696e73742064616d6167858201527132b99037b9103ab73830b4b2103932b73a1760711b6060820152602082015262000cea565b620004df6200044a62000c8a565b6200045462000c8a565b60098152685554494c495449455360b81b602082015281526200047662000cca565b604681527f536572766963657320737563682061732077617465722c20656c65637472696360208201527f6974792c20616e64206761732070726f766964656420746f207468652070726f85820152653832b93a3c9760d11b6060820152602082015262000cea565b62000575620004ed62000c8a565b620004f762000c8a565b600b81526a4d41494e54454e414e434560a81b602082015281526200051b62000caa565b603881527f526573706f6e736962696c69746965732072656c6174656420746f2070726f7060208201527f657274792075706b65657020616e6420726570616972732e000000000000000085820152602082015262000cea565b6200057f62000c8a565b6200058962000c8a565b600b81526a2a22a926a4a720aa24a7a760a91b60208201528152620005ad62000cca565b91604383527f436f6e646974696f6e7320756e64657220776869636820746865206c6561736560208401527f2063616e206265207465726d696e61746564206279206569746865722070617284840152623a3c9760e91b60608401526020820192835280549068010000000000000000821015620009c5576001820180825582101562000aaf5760005260206000209060011b019051805190858211620009c5578254600181811c9116801562000aa4575b6020821014620009a457601f811162000a57575b50602090601f8311600114620009e757600193929160009183620009db575b5050600019600383901b1c191690831b1781555b019051928351908111620009c5578154600181811c91168015620009ba575b6020821014620009a457601f811162000957575b506020601f8211600114620008ec5781929394600092620008e0575b50508160011b916000199060031b1c19161790555b620007a26200071862000c8a565b6200072262000c8a565b600d81526c1393d51250d1481411549253d1609a1b602082015281526200074862000caa565b603981527f54686520616476616e6365206e6f74696365207265717569726564206265666f60208201527f7265207465726d696e6174696e6720746865206c656173652e0000000000000084820152602082015262000cea565b6200083e620007b062000c8a565b620007ba62000c8a565b60078152661111519055531560ca1b60208201528152620007da62000cca565b604181527f536974756174696f6e732077686572652065697468657220706172747920666160208201527f696c7320746f2066756c66696c6c207468656972206f626c69676174696f6e7384820152601760f91b6060820152602082015262000cea565b620008d26200084c62000c8a565b6200085662000c8a565b600a8152695349474e41545552455360b01b602082015281526200087962000caa565b8381527f426f74682070617274696573206d757374207369676e2074686520616772656560208201527f6d656e7420746f206d616b65206974206c6567616c6c792062696e64696e672e84820152602082015262000cea565b51611e5d908162000ff58239f35b015190503880620006f5565b601f198216908360005260206000209160005b8181106200093e5750958360019596971062000924575b505050811b0190556200070a565b015160001960f88460031b161c1916905538808062000916565b9192602060018192868b015181550194019201620008ff565b826000526020600020601f830160051c8101916020841062000999575b601f0160051c01905b8181106200098c5750620006d9565b600081556001016200097d565b909150819062000974565b634e487b7160e01b600052602260045260246000fd5b90607f1690620006c5565b634e487b7160e01b600052604160045260246000fd5b01519050388062000692565b90601f198316918460005260206000209260005b81811062000a3e575091600195949291838795931062000a24575b505050811b018155620006a6565b015160001960f88460031b161c1916905538808062000a16565b92936020600181928786015181550195019301620009fb565b836000526020600020601f840160051c8101916020851062000a99575b601f0160051c01905b81811062000a8c575062000673565b6000815560010162000a7d565b909150819062000a74565b90607f16906200065f565b634e487b7160e01b600052603260045260246000fd5b01519050388062000371565b6000858152602081209350601f198516905b81811062000b23575090846001959493921062000b09575b505050811b01905562000386565b015160001960f88460031b161c1916905538808062000afb565b9293602060018192878601518155019501930162000ae3565b909150836000526020600020601f840160051c8101916020851062000b89575b90601f859493920160051c01905b81811062000b79575062000358565b6000815584935060010162000b6a565b909150819062000b5c565b91607f169162000342565b01519050388062000306565b908360011b850160005260206000209160005b601f198516811062000c0f5750926001949285926020979583601f1981161062000bf5575b505050811b0181841b8301556200031e565b015160001960f88460031b161c1916905538808062000be3565b9192602060018192868501518155019401920162000bbe565b8360011b85016000526020600020601f840160051c8101916020851062000c6f575b601f0160051c01905b81811062000c625750620002e3565b6000815560010162000c53565b909150819062000c4a565b90607f1690620002cf565b600080fd5b60408051919082016001600160401b03811183821017620009c557604052565b60405190606082016001600160401b03811183821017620009c557604052565b60405190608082016001600160401b03811183821017620009c557604052565b60085468010000000000000000811015620009c55760018082018060085582101562000aaf5760086000908152835180516020946001600160401b0394939190841b7ff3f7a9fe364faab93b216da50a3214154f22a0a2b415b23a84c8169e8b636ee3019085811162000fe0578154938585811c9516801562000fd5575b8886101462000fc1579185918893601f9687811162000f6a575b50849087831160011462000f03578691908362000ef7575b5050600019600383901b1c191690831b1781555b0196015190815194851162000ee35786548481811c9116801562000ed8575b8782101462000ec45783811162000e7c575b508592851160011462000e1957939450849291908362000e0d575b50501b916000199060031b1c1916179055565b01519250388062000dfa565b86815285812093958591601f198316915b8883831062000e61575050501062000e47575b505050811b019055565b015160001960f88460031b161c1916905538808062000e3d565b85870151885590960195948501948793509081019062000e2a565b8782528682208480880160051c82019289891062000eba575b0160051c019085905b82811062000eae57505062000ddf565b83815501859062000e9e565b9250819262000e95565b634e487b7160e01b82526022600452602482fd5b90607f169062000dcd565b634e487b7160e01b81526041600452602490fd5b01519050388062000d9a565b8387528587209190601f198416885b81811062000f515750908487959493921062000f37575b505050811b01815562000dae565b015160001960f88460031b161c1916905538808062000f29565b8284015185558d988c9890950194938401930162000f12565b9193509180945085528885208680850160051c8201928b861062000fb7575b91899593918c9795930160051c01905b81811062000fa8575062000d82565b8781558b965089950162000f99565b9250819262000f89565b634e487b7160e01b84526022600452602484fd5b94607f169462000d68565b634e487b7160e01b83526041600452602483fdfe60806040908082526004908136101561001757600080fd5b600091823560e01c9182630295535f14611613575081630b3bb024146106915781630b8330c7146115365781630b97bc8614610dec57816311a27baf146114ef57816319dec62a146114595781631efd95fd146113f6578163200d2ed2146113b7578163220e5ab314610e4757816323b73725146113705781633005c13f1461135157816334f77a051461131557816335f6acf21461128b5781633ac8853e146112515781633b555391146111745781634200dd71146110d55781634745e49114610eb657816347a6443714610e665781634e69d56014610e855781634f6be30f14610e6657816364a4064214610e475781636c4a3eb114610e0b57816378f305c614610dec5781638566e12c14610c8b57816393ce9fc214610ab05781639dfc9117146109da578163a566b63814610877578163abc456dd146106ba578163adf0779114610691578163bd209e8214610588578163c9fd6fb51461037457508063dc1997ea14610306578063eb7d308c1461032e578063f502236d14610306578063f8ef1e13146102e7578063fa961a331461028b578063fbc6be3214610252578063ff5c086b1461022f5763ffa8da1e146101d357600080fd5b3461022c578060031936011261022c578161020b916101fd60018060a01b0360015416331461192a565b338152600a60205220611dec565b906102288251918060208501519401511515905193849384611768565b0390f35b80fd5b50903461024e578160031936011261024e576020906006549051908152f35b5080fd5b503461022c578060031936011261022c578161020b9161027d60018060a01b0360015416331461192a565b338152600960205220611dec565b50903461024e57602036600319011261024e579081906001600160a01b036102b1611712565b168152600960205220906102286102c7836117d4565b9160ff60026102d8600187016117d4565b95015416905193849384611768565b50903461024e578160031936011261024e576020906002549051908152f35b50903461024e578160031936011261024e57905490516001600160a01b039091168152602090f35b503461022c57602036600319011261022c578161020b9161034d611712565b81546001600160a01b03919061036690831633146119ce565b168152600960205220611dec565b9050823461058457610385366118a2565b92909160018060a01b0361039d8188541633146119ce565b60ff60075416916003831015610571576103ba6001809414611b0f565b1694858752602090600a82526103d960ff6002868b2001541615611b5b565b868852600a82528284892001908651906001600160401b03821161055e5750610402825461179a565b601f8111610518575b5082601f8211600114610490579261047f949282600a937fc603d56572d90b1cce6a5e37cb6e795cad7d299a5f86fbb9240f2676d7fd17599a9998968d91610485575b50600019600383901b1c191690851b1790555b888a52526002828920019060ff19825416179055519283928361187a565b0390a280f35b90508901518d61044e565b828a52838a2090601f1983168b5b818110610503575095837fc603d56572d90b1cce6a5e37cb6e795cad7d299a5f86fbb9240f2676d7fd17599a99989693829693600a9661047f9a106104ea575b5050811b019055610461565b8b015160001960f88460031b161c191690558d806104de565b8a83015184559287019291860191860161049e565b828a52838a20601f830160051c810191858410610554575b601f0160051c019085905b82811061054957505061040b565b8b815501859061053b565b9091508190610530565b634e487b7160e01b8a5260419052602489fd5b634e487b7160e01b885260218752602488fd5b8280fd5b83915034610584576020918260031936011261068d5781356001600160401b038111610689576105bb90369084016116b7565b916105d160018060a01b0360015416331461192a565b60ff6007541690600382101561067657509161047f9161061460017ffb4753f48b64166152947c129007d9befeb06a99b0ba4c5c726bdeaaf69f64329514611b0f565b3386526009855261062e60ff600283892001541615611b5b565b610665815161063c8161162f565b838152825161064a81611660565b88815287820152878382015233885260098752828820611ba7565b519182918583523395830190611728565b634e487b7160e01b865260219052602485fd5b8480fd5b8380fd5b82843461024e578160031936011261024e5760015490516001600160a01b039091168152602090f35b90508234610584576106cb366118a2565b92909160018060a01b036106e38188541633146119ce565b60ff60075416916003831015610571576107006001809414611b0f565b1694858752602090600b825261071f60ff6002868b2001541615611b5b565b868852600b82528284892001908651906001600160401b03821161055e5750610748825461179a565b601f8111610831575b5082601f82116001146107c3579261047f949282600b937f3f4e6af64bdebcc56ceee6ecb3515edc14406e2837086307f8aac7c6c2c13e9e9a9998968d916104855750600019600383901b1c191690851b179055888a52526002828920019060ff19825416179055519283928361187a565b828a52838a2090601f1983168b5b81811061081c575095837f3f4e6af64bdebcc56ceee6ecb3515edc14406e2837086307f8aac7c6c2c13e9e9a99989693829693600b9661047f9a106104ea575050811b019055610461565b8a8301518455928701929186019186016107d1565b828a52838a20601f830160051c81019185841061086d575b601f0160051c019085905b828110610862575050610751565b8b8155018590610854565b9091508190610849565b839150346105845760a036600319011261058457610893611712565b916024918235926064928335906007549060ff821660038110156109c8576109885750600180546001600160a01b0319166001600160a01b0390981697909717875560443560035581845560843560055560ff1916600755600c81111561097c576002948555600b19810190811187875b610914575b505050505050505080f35b8161096a5782811015610965578654600a8082029082820414821517156109535761094d92918861094692049061191d565b88556118f8565b87610904565b634e487b7160e01b8b5260118752858bfd5b610909565b634e487b7160e01b8952601185528389fd5b50505050905060025580f35b5162461bcd60e51b8152602081860152601b818501527f41677265656d656e7420616c726561647920696e69746961746564000000000060448201528590fd5b634e487b7160e01b8a5260218652848afd5b82843461024e578160031936011261024e5760018060a01b039081835416916001541692600254600354865490600554926006549460ff60075416906003821015610a9d5750610228979899508015600014610a6f5750610a39611a91565b955b8051998a998a5260208a01528801526060870152608086015260a085015260c08401526101008060e0850152830190611728565b60018103610a865750610a80611a6f565b95610a3b565b600203610a9557610a80611a49565b610a80611a28565b634e487b7160e01b815260218b52602490fd5b90503461024e57606036600319011261024e5780359060443593610ade60018060a01b0385541633146119ce565b60ff60075416906003821015610c78576001809203610c2c578315610bd557508282556024803560055594600c841115610bcc576002908155600b19840184811186845b610b63575b50505050505b6005549062278d0080840293840403610b51575090610b4b9161191d565b60065580f35b634e487b7160e01b8452601190528383fd5b81610bba5782811015610bb5578354600a808202908282041482151715610ba357610b9d92916064610b9692049061191d565b85556118f8565b84610b22565b634e487b7160e01b8a52601188528a8afd5b610b27565b634e487b7160e01b8852601186528888fd5b60025550610b2d565b5162461bcd60e51b8152602081840152602c60248201527f4e6577206c65617365206475726174696f6e206d75737420626520677265617460448201526b6572207468616e207a65726f60a01b6064820152608490fd5b5162461bcd60e51b8152602081840152602160248201527f41677265656d656e74206d7573742062652061637469766520746f2072656e656044820152607760f81b6064820152608490fd5b634e487b7160e01b855260218352602485fd5b90503461024e578160031936011261024e57600854906001600160401b0391828111610dd9579290845190602094610cc8868260051b0184611696565b8083528583018095600886527ff3f7a9fe364faab93b216da50a3214154f22a0a2b415b23a84c8169e8b636ee39086925b848410610d7c575050505050508451938085019181865251809252858501868360051b8701019493965b838810610d305786860387f35b90919293948380610d6b600193603f198b820301875289519083610d5b835189845289840190611728565b9201519084818403910152611728565b970193019701969093929193610d23565b8a99969799518b810181811084821117610dc6576001926002928a928f52610da3876117d4565b8152610db08588016117d4565b8382015281520193019301929198969598610cf9565b634e487b7160e01b8c526041885260248cfd5b634e487b7160e01b845260418252602484fd5b82843461024e578160031936011261024e576020906005549051908152f35b82843461024e57602036600319011261024e579081906001600160a01b03610e31611712565b168152600b60205220906102286102c7836117d4565b82843461024e578160031936011261024e576020906003549051908152f35b8391503461058457826003193601126105845760209250549051908152f35b82843461024e578160031936011261024e5761022890610ea3611ab4565b9051918291602083526020830190611728565b90508234610584578060031936011261058457610ed1611712565b906001600160401b03906024358281116110d157610ef290369086016116b7565b9260018060a01b03610f088188541633146119ce565b60ff6007541691600383101561057157610f256001809414611b0f565b169485875260209360098552610f4460ff6002868b2001541615611b5b565b8688526009855282848920019186519182116110be5750610f65825461179a565b601f8111611078575b5084601f8211600114610ff257918161047f94927f7eed2f9dfae1bb13ebef1a4bd9fe904540cff542923a9e5e74e0965baf47e9ca989796948b91610fe7575b50600019600383901b1c191690831b1790555b868852600984526002828920019060ff1982541617905551928284938452830190611728565b90508701518b610fae565b82895285892090601f1983168a5b8181106110635750927f7eed2f9dfae1bb13ebef1a4bd9fe904540cff542923a9e5e74e0965baf47e9ca98979694928694928261047f98941061104a575b5050811b019055610fc1565b89015160001960f88460031b161c191690558b8061103e565b89830151845592860192918801918801611000565b828952858920601f830160051c8101918784106110b4575b601f0160051c019084905b8281106110a9575050610f6e565b8a815501849061109b565b9091508190611090565b634e487b7160e01b895260419052602488fd5b8580fd5b839150346105845782600319360112610584576110fc60018060a01b0384541633146119ce565b6007549160ff83166003811015610c78576002146111235760ff1983166002176007558380f35b906020608492519162461bcd60e51b8352820152602560248201527f41677265656d656e742068617320616c7265616479206265656e207465726d696044820152641b985d195960da1b6064820152fd5b83915034610584576020918260031936011261068d5781356001600160401b038111610689576111a790369084016116b7565b916111bd60018060a01b0360015416331461192a565b60ff6007541690600382101561067657509161047f9161120060017f328ab6fb6624e29c2dc698b8fe36bdf3cd3178ba51fe21bae69de526ca3651979514611b0f565b338652600b855261121a60ff600283892001541615611b5b565b61066581516112288161162f565b838152825161123681611660565b888152878201528783820152338852600b8752828820611ba7565b50503461022c578060031936011261022c578161020b9161127d60018060a01b0360015416331461192a565b338152600b60205220611dec565b90503461024e57602036600319011261024e57359060085482101561022c576008905260011b61022861130a7ff3f7a9fe364faab93b216da50a3214154f22a0a2b415b23a84c8169e8b636ee4611303847ff3f7a9fe364faab93b216da50a3214154f22a0a2b415b23a84c8169e8b636ee3016117d4565b93016117d4565b92519283928361187a565b82843461024e57602036600319011261024e579081906001600160a01b0361133b611712565b168152600a60205220906102286102c7836117d4565b82843461024e578160031936011261024e576020906006549051908152f35b50503461022c57602036600319011261022c578161020b91611390611712565b81546001600160a01b0391906113a990831633146119ce565b168152600a60205220611dec565b82843461024e578160031936011261024e5760ff6007541690519160038210156113e357602083838152f35b634e487b7160e01b815260218452602490fd5b823461022c578060031936011261022c5761141c60018060a01b0360015416331461192a565b60075460ff8116926003841015611446575061143b6002929315611982565b60ff19161760075580f35b634e487b7160e01b835260219052602482fd5b823461022c578060031936011261022c5761147f60018060a01b0360015416331461192a565b60075460ff811660038110156114dc579061149c60019215611982565b60ff19161760075560055482549062278d00918281029281840414901517156114c95790610b4b9161191d565b634e487b7160e01b835260118452602483fd5b634e487b7160e01b835260218452602483fd5b50503461022c57602036600319011261022c578161020b9161150f611712565b81546001600160a01b03919061152890831633146119ce565b168152600b60205220611dec565b83915034610584576020918260031936011261068d5781356001600160401b0381116106895761156990369084016116b7565b9161157f60018060a01b0360015416331461192a565b60ff6007541690600382101561067657509161047f916115c260017fbbb29dd66778e263b1268f240bbfd5aa1171bd370abbbfb1a8f556c7e588a5199514611b0f565b338652600a85526115dc60ff600283892001541615611b5b565b61066581516115ea8161162f565b83815282516115f881611660565b888152878201528783820152338852600a8752828820611ba7565b83903461024e578160031936011261024e576020906002548152f35b606081019081106001600160401b0382111761164a57604052565b634e487b7160e01b600052604160045260246000fd5b602081019081106001600160401b0382111761164a57604052565b604081019081106001600160401b0382111761164a57604052565b90601f801991011681019081106001600160401b0382111761164a57604052565b81601f8201121561170d578035906001600160401b03821161164a57604051926116eb601f8401601f191660200185611696565b8284526020838301011161170d57816000926020809301838601378301015290565b600080fd5b600435906001600160a01b038216820361170d57565b919082519283825260005b848110611754575050826000602080949584010152601f8019910116010190565b602081830181015184830182015201611733565b9161179290611784604093969596606086526060860190611728565b908482036020860152611728565b931515910152565b90600182811c921680156117ca575b60208310146117b457565b634e487b7160e01b600052602260045260246000fd5b91607f16916117a9565b90604051918260008254926117e88461179a565b9081845260019485811690816000146118575750600114611814575b505061181292500383611696565b565b9093915060005260209081600020936000915b81831061183f57505061181293508201013880611804565b85548884018501529485019487945091830191611827565b91505061181294506020925060ff191682840152151560051b8201013880611804565b909161189161189f93604084526040840190611728565b916020818403910152611728565b90565b606060031982011261170d576004356001600160a01b038116810361170d57916001600160401b0360243581811161170d57836118e1916004016116b7565b9260443591821161170d5761189f916004016116b7565b60001981146119075760010190565b634e487b7160e01b600052601160045260246000fd5b9190820180921161190757565b1561193157565b60405162461bcd60e51b815260206004820152602360248201527f4f6e6c792074656e616e742063616e20706572666f726d20746869732061637460448201526234b7b760e91b6064820152608490fd5b1561198957565b60405162461bcd60e51b815260206004820152601860248201527f41677265656d656e74206973206e6f742070656e64696e6700000000000000006044820152606490fd5b156119d557565b60405162461bcd60e51b815260206004820152602560248201527f4f6e6c79206c616e646c6f72642063616e20706572666f726d2074686973206160448201526431ba34b7b760d91b6064820152608490fd5b60405190611a358261167b565b600582526422b93937b960d91b6020830152565b60405190611a568261167b565b600a82526915195c9b5a5b985d195960b21b6020830152565b60405190611a7c8261167b565b600682526541637469766560d01b6020830152565b60405190611a9e8261167b565b600782526650656e64696e6760c81b6020830152565b60ff600754166003811015611af95780611ad1575061189f611a91565b60018103611ae2575061189f611a6f565b600203611af15761189f611a49565b61189f611a28565b634e487b7160e01b600052602160045260246000fd5b15611b1657565b60405162461bcd60e51b815260206004820152601f60248201527f41677265656d656e7420737461747573206d75737420626520616374697665006044820152606490fd5b15611b6257565b60405162461bcd60e51b815260206004820152601860248201527f4469737075746520616c7265616479207265736f6c76656400000000000000006044820152606490fd5b815180516001600160401b039081811161164a5780611bc6855461179a565b93601f94858111611d9a575b50602090858311600114611d3557600092611d2a575b50508160011b916000199060031b1c19161783555b6001808401926020860151805193841161164a57611c1b855461179a565b828111611ce2575b506020918411600114611c7557928060029593819360409896600094611c6a575b50501b916000199060031b1c19161790555b01910151151560ff80198354169116179055565b015192503880611c44565b90601f9392931983169185600052816000209260005b818110611ccc57509160409795939185600298969410611cb3575b505050811b019055611c56565b015160001960f88460031b161c19169055388080611ca6565b8284015185559386019360209384019301611c8b565b8560005260206000208380870160051c82019260208810611d21575b0160051c019084905b828110611d15575050611c23565b60008155018490611d07565b92508192611cfe565b015190503880611be8565b60008781528281209350601f198516905b818110611d825750908460019594939210611d69575b505050811b018355611bfd565b015160001960f88460031b161c19169055388080611d5c565b92936020600181928786015181550195019301611d46565b9091506000868152602081208680860160051c82019360208710611de3575b908695949392910160051c01915b828110611dd5575050611bd2565b818155859450600101611dc7565b93508193611db9565b90604051611df98161162f565b604060ff60028395611e0a816117d4565b8552611e18600182016117d4565b6020860152015416151591015256fea2646970667358221220b51d396f93000908d5b6ac6afbfc66fe0b487eae313b11c7f49dc1381efe84a464736f6c63430008130033",
  "immutableReferences": {},
  "source": "// SPDX-License-Identifier: MIT\r\npragma solidity ^0.8.19;\r\n\r\ncontract RentalContract {\r\n\r\n    address public landlord; // Landlord Address\r\n    address public tenant; // Tenant Address\r\n    \r\n    uint256 public rentAmount; // Monthly Rent Amount\r\n    uint256 public securityDeposit; // Security Deposit\r\n    uint256 public leaseDuration; // in months\r\n    uint256 public startDate; // Start date\r\n    uint256 public terminationDate; // Termination date\r\n\r\n    enum AgreementStatus { Pending, Active, Terminated }\r\n    AgreementStatus public status; // Status of Agreement\r\n\r\n    struct ContractTerms {\r\n        string termName;\r\n        string description;\r\n    }\r\n    \r\n    ContractTerms[] public sampleContractTerms;\r\n\r\n    struct SecurityDepositDispute {\r\n        string reason;\r\n        string resolution;\r\n        bool resolved;\r\n    }\r\n\r\n    struct RentPaymentDispute {\r\n        string month;\r\n        string resolution;\r\n        bool resolved;\r\n    }\r\n\r\n    struct MaintenanceDispute {\r\n        string issue;\r\n        string resolution;\r\n        bool resolved;\r\n    }\r\n\r\n    mapping(address => SecurityDepositDispute) public securityDepositDisputes;\r\n    mapping(address => RentPaymentDispute) public rentPaymentDisputes;\r\n    mapping(address => MaintenanceDispute) public maintenanceDisputes;\r\n\r\n    // Events for dispute resolution\r\n    event SecurityDepositDisputeRaised(address indexed _tenant, string _reason);\r\n    event SecurityDepositDisputeResolved(address indexed _tenant, string _resolution);\r\n\r\n    event RentPaymentDisputeRaised(address indexed _tenant, string _month);\r\n    event RentPaymentDisputeResolved(address indexed _tenant, string _month, string _resolution);\r\n\r\n    event MaintenanceDisputeRaised(address indexed _tenant, string _issue);\r\n    event MaintenanceDisputeResolved(address indexed _tenant, string _issue, string _resolution);\r\n\r\n    modifier onlyLandlord() {\r\n        require(msg.sender == landlord, \"Only landlord can perform this action\");\r\n        _;\r\n    }\r\n\r\n    modifier onlyTenant() {\r\n        require(msg.sender == tenant, \"Only tenant can perform this action\");\r\n        _;\r\n    }\r\n\r\n    modifier onlyParties() {\r\n        require(msg.sender == landlord || msg.sender == tenant, \"Only parties involved can perform this action\");\r\n        _;\r\n    }\r\n\r\n    modifier agreementActive() {\r\n        require(status == AgreementStatus.Active, \"Agreement status must be active\");\r\n        _;\r\n    }\r\n\r\n    constructor() {\r\n        landlord = msg.sender;\r\n        \r\n        // Initialize sample contract terms\r\n        // sampleContractTerms.push(ContractTerms(\"Term 1\", \"Description of Term 1\"));\r\n        // sampleContractTerms.push(ContractTerms(\"Term 2\", \"Description of Term 2\"));\r\n        // Add more terms as needed\r\n        // Initialize sample contract terms\r\n        sampleContractTerms.push(ContractTerms(\"LESSOR\", \"The party who owns the property and is leasing it to the tenant.\"));\r\n        sampleContractTerms.push(ContractTerms(\"TENANT\", \"The party who is renting the property from the lessor.\"));\r\n        sampleContractTerms.push(ContractTerms(\"LEASE TERM\", \"The duration for which the property is being leased (e.g., 12 months).\"));\r\n        sampleContractTerms.push(ContractTerms(\"RENT\", \"The amount paid by the tenant to the lessor for using the property.\"));\r\n        sampleContractTerms.push(ContractTerms(\"SECURITY DEPOSIT\", \"A refundable amount paid by the tenant as security against damages or unpaid rent.\"));\r\n        sampleContractTerms.push(ContractTerms(\"UTILITIES\", \"Services such as water, electricity, and gas provided to the property.\"));\r\n        sampleContractTerms.push(ContractTerms(\"MAINTENANCE\", \"Responsibilities related to property upkeep and repairs.\"));\r\n        sampleContractTerms.push(ContractTerms(\"TERMINATION\", \"Conditions under which the lease can be terminated by either party.\"));\r\n        sampleContractTerms.push(ContractTerms(\"NOTICE PERIOD\", \"The advance notice required before terminating the lease.\"));\r\n        sampleContractTerms.push(ContractTerms(\"DEFAULT\", \"Situations where either party fails to fulfill their obligations.\"));\r\n        sampleContractTerms.push(ContractTerms(\"SIGNATURES\", \"Both parties must sign the agreement to make it legally binding.\"));\r\n\r\n    }\r\n    \r\n    function initiateAgreement(\r\n        address _tenant,\r\n        uint256 _rentAmount,\r\n        uint256 _securityDeposit,\r\n        uint256 _leaseDuration,\r\n        uint256 _startDate\r\n    ) external  {\r\n        require(status == AgreementStatus.Pending, \"Agreement already initiated\");\r\n        tenant = _tenant;\r\n        securityDeposit = _securityDeposit;\r\n        leaseDuration = _leaseDuration;\r\n        startDate = _startDate;\r\n        status = AgreementStatus.Pending;\r\n        \r\n        if (_leaseDuration > 12) {\r\n            rentAmount = _rentAmount;\r\n            for (uint256 i = 0; i < _leaseDuration - 12; i++) {\r\n                rentAmount = rentAmount + (rentAmount * 10 / 100); // Increase rent by 10% yearly\r\n            }\r\n        } else {\r\n            rentAmount = _rentAmount;\r\n        }\r\n    }\r\n\r\n    function approveAgreement() external onlyTenant {\r\n        require(status == AgreementStatus.Pending, \"Agreement is not pending\");\r\n        status = AgreementStatus.Active;\r\n        terminationDate = startDate + (leaseDuration * 30 days);\r\n    }\r\n\r\n    function disapproveAgreement() external onlyTenant {\r\n        require(status == AgreementStatus.Pending, \"Agreement is not pending\");\r\n        status = AgreementStatus.Terminated;\r\n    }\r\n\r\n    function terminateAgreement() external onlyLandlord {\r\n        require(status != AgreementStatus.Terminated, \"Agreement has already been terminated\");\r\n        status = AgreementStatus.Terminated;\r\n    }\r\n\r\n    function renewContract(\r\n        uint256 _newLeaseDuration,\r\n        uint256 _newStartDate,\r\n        uint256 _newRentAmount\r\n    ) external onlyLandlord {\r\n        require(status == AgreementStatus.Active, \"Agreement must be active to renew\");\r\n        require(_newLeaseDuration > 0, \"New lease duration must be greater than zero\");\r\n        \r\n        // Update lease duration and start date\r\n        leaseDuration = _newLeaseDuration;\r\n        startDate = _newStartDate;\r\n        \r\n        // If the new lease duration is greater than 12 months, adjust the rent amount accordingly\r\n        if (_newLeaseDuration > 12) {\r\n            rentAmount = _newRentAmount;\r\n            for (uint256 i = 0; i < _newLeaseDuration - 12; i++) {\r\n                rentAmount = rentAmount + (rentAmount * 10 / 100); // Increase rent by 10% yearly\r\n            }\r\n        } else {\r\n            rentAmount = _newRentAmount;\r\n        }\r\n        \r\n        // Reset termination date based on the new lease duration\r\n        terminationDate = startDate + (_newLeaseDuration * 30 days);\r\n    }\r\n\r\n\r\n    // Function to retrieve landlord's address\r\n    function getLandlord() external view returns (address) {\r\n        return landlord;\r\n    }\r\n    \r\n    // Function to retrieve tenant's address\r\n    function getTenant() external view returns (address) {\r\n        return tenant;\r\n    }\r\n    \r\n    // Function to retrieve rent amount\r\n    function getRentAmount() external view returns (uint256) {\r\n        return rentAmount;\r\n    }\r\n    \r\n    // Function to retrieve security deposit\r\n    function getSecurityDeposit() external view returns (uint256) {\r\n        return securityDeposit;\r\n    }\r\n    \r\n    // Function to retrieve lease duration\r\n    function getLeaseDuration() external view returns (uint256) {\r\n        return leaseDuration;\r\n    }\r\n    \r\n    // Function to retrieve start date\r\n    function getStartDate() external view returns (uint256) {\r\n        return startDate;\r\n    }\r\n    \r\n    // Function to retrieve termination date\r\n    function getTerminationDate() external view returns (uint256) {\r\n        return terminationDate;\r\n    }\r\n    \r\n    // Function to retrieve agreement status\r\n    function getStatus() external view returns (string memory) {\r\n        if (status == AgreementStatus.Pending) {\r\n            return \"Pending\";\r\n        } else if (status == AgreementStatus.Active) {\r\n            return \"Active\";\r\n        } else if (status == AgreementStatus.Terminated) {\r\n            return \"Terminated\";\r\n        } else {\r\n            return \"Error\";\r\n        }\r\n    }\r\n\r\n    // Function to retrieve contract terms\r\n    function getContractTerms() external view returns (ContractTerms[] memory) {\r\n        return sampleContractTerms;\r\n    }\r\n    \r\n        // Function to retrieve all contract details\r\n    function getContractDetails() external view returns (\r\n        address _landlord,\r\n        address _tenant,\r\n        uint256 _rentAmount,\r\n        uint256 _securityDeposit,\r\n        uint256 _leaseDuration,\r\n        uint256 _startDate,\r\n        uint256 _terminationDate,\r\n        string memory _status\r\n    ) {\r\n        _landlord = landlord;\r\n        _tenant = tenant;\r\n        _rentAmount = rentAmount;\r\n        _securityDeposit = securityDeposit;\r\n        _leaseDuration = leaseDuration;\r\n        _startDate = startDate;\r\n        _terminationDate = terminationDate;\r\n        \r\n        if (status == AgreementStatus.Pending) {\r\n            _status = \"Pending\";\r\n        } else if (status == AgreementStatus.Active) {\r\n            _status = \"Active\";\r\n        } else if (status == AgreementStatus.Terminated) {\r\n            _status = \"Terminated\";\r\n        } else {\r\n            _status = \"Error\";\r\n        }\r\n    }\r\n\r\n\r\n    //Dispute Resolution Functions\r\n\r\n     // Function to raise a dispute regarding the security deposit\r\n    function raiseSecurityDepositDispute(string memory _reason) external onlyTenant agreementActive {\r\n        require(!securityDepositDisputes[msg.sender].resolved, \"Dispute already resolved\");\r\n        securityDepositDisputes[msg.sender] = SecurityDepositDispute(_reason, \"\", false);\r\n        emit SecurityDepositDisputeRaised(msg.sender, _reason);\r\n    }\r\n\r\n    // Function for the landlord to respond to a security deposit dispute\r\n    function respondToSecurityDepositDispute(address _tenant, string memory _resolution) external onlyLandlord agreementActive {\r\n        require(!securityDepositDisputes[_tenant].resolved, \"Dispute already resolved\");\r\n        securityDepositDisputes[_tenant].resolution = _resolution;\r\n        securityDepositDisputes[_tenant].resolved = true;\r\n        emit SecurityDepositDisputeResolved(_tenant, _resolution);\r\n    }\r\n\r\n    // Function to raise a dispute regarding rent payment for a specific month\r\n    function raiseRentPaymentDispute(string memory _month) external onlyTenant agreementActive {\r\n        require(!rentPaymentDisputes[msg.sender].resolved, \"Dispute already resolved\");\r\n        rentPaymentDisputes[msg.sender] = RentPaymentDispute(_month, \"\", false);\r\n        emit RentPaymentDisputeRaised(msg.sender, _month);\r\n    }\r\n\r\n    // Function for the landlord to respond to a rent payment dispute\r\n    function respondToRentPaymentDispute(address _tenant, string memory _month, string memory _resolution) external onlyLandlord agreementActive {\r\n        require(!rentPaymentDisputes[_tenant].resolved, \"Dispute already resolved\");\r\n        rentPaymentDisputes[_tenant].resolution = _resolution;\r\n        rentPaymentDisputes[_tenant].resolved = true;\r\n        emit RentPaymentDisputeResolved(_tenant, _month, _resolution);\r\n    }\r\n\r\n    // Function to raise a dispute regarding maintenance issues\r\n    function raiseMaintenanceDispute(string memory _issue) external onlyTenant agreementActive {\r\n        require(!maintenanceDisputes[msg.sender].resolved, \"Dispute already resolved\");\r\n        maintenanceDisputes[msg.sender] = MaintenanceDispute(_issue, \"\", false);\r\n        emit MaintenanceDisputeRaised(msg.sender, _issue);\r\n    }\r\n\r\n    // Function for the landlord to respond to a maintenance dispute\r\n    function respondToMaintenanceDispute(address _tenant, string memory _issue, string memory _resolution) external onlyLandlord agreementActive {\r\n        require(!maintenanceDisputes[_tenant].resolved, \"Dispute already resolved\");\r\n        maintenanceDisputes[_tenant].resolution = _resolution;\r\n        maintenanceDisputes[_tenant].resolved = true;\r\n        emit MaintenanceDisputeResolved(_tenant, _issue, _resolution);\r\n    }\r\n\r\n        // Function for tenant to get details of their security deposit dispute\r\n    function getSecurityDepositDispute() external view onlyTenant returns (string memory, string memory, bool) {\r\n        SecurityDepositDispute memory dispute = securityDepositDisputes[msg.sender];\r\n        return (dispute.reason, dispute.resolution, dispute.resolved);\r\n    }\r\n\r\n    // Function for tenant to get details of their rent payment dispute\r\n    function getRentPaymentDispute() external view onlyTenant returns (string memory, string memory, bool) {\r\n        RentPaymentDispute memory dispute = rentPaymentDisputes[msg.sender];\r\n        return (dispute.month, dispute.resolution, dispute.resolved);\r\n    }\r\n\r\n    // Function for tenant to get details of their maintenance dispute\r\n    function getMaintenanceDispute() external view onlyTenant returns (string memory, string memory, bool) {\r\n        MaintenanceDispute memory dispute = maintenanceDisputes[msg.sender];\r\n        return (dispute.issue, dispute.resolution, dispute.resolved);\r\n    }\r\n\r\n    // Function for landlord to get details of tenant's security deposit dispute\r\n    function getTenantSecurityDepositDispute(address _tenant) external view onlyLandlord returns (string memory, string memory, bool) {\r\n        SecurityDepositDispute memory dispute = securityDepositDisputes[_tenant];\r\n        return (dispute.reason, dispute.resolution, dispute.resolved);\r\n    }\r\n\r\n    // Function for landlord to get details of tenant's rent payment dispute\r\n    function getTenantRentPaymentDispute(address _tenant) external view onlyLandlord returns (string memory, string memory, bool) {\r\n        RentPaymentDispute memory dispute = rentPaymentDisputes[_tenant];\r\n        return (dispute.month, dispute.resolution, dispute.resolved);\r\n    }\r\n\r\n    // Function for landlord to get details of tenant's maintenance dispute\r\n    function getTenantMaintenanceDispute(address _tenant) external view onlyLandlord returns (string memory, string memory, bool) {\r\n        MaintenanceDispute memory dispute = maintenanceDisputes[_tenant];\r\n        return (dispute.issue, dispute.resolution, dispute.resolved);\r\n    }\r\n    \r\n}",
  "sourcePath": "D:\\Fast\\Sem 8\\FYP_Final\\TranspaRent\\Blockchain\\contracts\\RentalContract.sol",
  "compiler": {
    "name": "solc",
    "version": "0.8.19+commit.7dd6d404.Emscripten.clang"
  },
  "schemaVersion": "3.4.16",
  "updatedAt": "2024-04-16T20:05:05.852Z",
  "networkType": "ethereum",
  "devdoc": {
    "kind": "dev",
    "methods": {},
    "version": 1
  },
  "userdoc": {
    "kind": "user",
    "methods": {},
    "version": 1
  }
}