{
  "contractName": "Reviews",
  "abi": [
    {
      "inputs": [],
      "name": "availableBalance",
      "outputs": [
        {
          "internalType": "uint256",
          "name": "",
          "type": "uint256"
        }
      ],
      "stateMutability": "view",
      "type": "function",
      "constant": true
    },
    {
      "inputs": [
        {
          "internalType": "address",
          "name": "",
          "type": "address"
        },
        {
          "internalType": "uint256",
          "name": "",
          "type": "uint256"
        }
      ],
      "name": "reviews",
      "outputs": [
        {
          "internalType": "address",
          "name": "account",
          "type": "address"
        },
        {
          "internalType": "address",
          "name": "reviewer",
          "type": "address"
        },
        {
          "internalType": "string",
          "name": "review",
          "type": "string"
        },
        {
          "internalType": "uint256",
          "name": "rating",
          "type": "uint256"
        },
        {
          "internalType": "uint256",
          "name": "requestedDate",
          "type": "uint256"
        }
      ],
      "stateMutability": "view",
      "type": "function",
      "constant": true
    },
    {
      "inputs": [],
      "name": "addFunds",
      "outputs": [],
      "stateMutability": "payable",
      "type": "function",
      "payable": true
    },
    {
      "inputs": [
        {
          "internalType": "address",
          "name": "account",
          "type": "address"
        },
        {
          "internalType": "string",
          "name": "str",
          "type": "string"
        },
        {
          "internalType": "uint256",
          "name": "rating",
          "type": "uint256"
        }
      ],
      "name": "addReview",
      "outputs": [],
      "stateMutability": "nonpayable",
      "type": "function"
    },
    {
      "inputs": [
        {
          "internalType": "address",
          "name": "account",
          "type": "address"
        }
      ],
      "name": "getReviews",
      "outputs": [
        {
          "components": [
            {
              "internalType": "address",
              "name": "account",
              "type": "address"
            },
            {
              "internalType": "address",
              "name": "reviewer",
              "type": "address"
            },
            {
              "internalType": "string",
              "name": "review",
              "type": "string"
            },
            {
              "internalType": "uint256",
              "name": "rating",
              "type": "uint256"
            },
            {
              "internalType": "uint256",
              "name": "requestedDate",
              "type": "uint256"
            }
          ],
          "internalType": "struct Reviews.ReviewDetails[]",
          "name": "",
          "type": "tuple[]"
        }
      ],
      "stateMutability": "view",
      "type": "function",
      "constant": true
    }
  ],
  "bytecode": "0x608060405234801561001057600080fd5b50610f47806100206000396000f3fe60806040526004361061004a5760003560e01c80634ef5a0171461004f5780636db3328f1461008c578063a26759cb146100cd578063ab2f0e51146100d7578063ba92fb9d14610102575b600080fd5b34801561005b57600080fd5b5061007660048036038101906100719190610675565b61012b565b6040516100839190610892565b60405180910390f35b34801561009857600080fd5b506100b360048036038101906100ae91906108e0565b61031a565b6040516100c4959493929190610988565b60405180910390f35b6100d5610435565b005b3480156100e357600080fd5b506100ec610452565b6040516100f991906109e2565b60405180910390f35b34801561010e57600080fd5b5061012960048036038101906101249190610b32565b610458565b005b60606000808373ffffffffffffffffffffffffffffffffffffffff1673ffffffffffffffffffffffffffffffffffffffff168152602001908152602001600020805480602002602001604051908101604052809291908181526020016000905b8282101561030f57838290600052602060002090600502016040518060a00160405290816000820160009054906101000a900473ffffffffffffffffffffffffffffffffffffffff1673ffffffffffffffffffffffffffffffffffffffff1673ffffffffffffffffffffffffffffffffffffffff1681526020016001820160009054906101000a900473ffffffffffffffffffffffffffffffffffffffff1673ffffffffffffffffffffffffffffffffffffffff1673ffffffffffffffffffffffffffffffffffffffff16815260200160028201805461026a90610bd0565b80601f016020809104026020016040519081016040528092919081815260200182805461029690610bd0565b80156102e35780601f106102b8576101008083540402835291602001916102e3565b820191906000526020600020905b8154815290600101906020018083116102c657829003601f168201915b50505050508152602001600382015481526020016004820154815250508152602001906001019061018b565b505050509050919050565b6000602052816000526040600020818154811061033657600080fd5b9060005260206000209060050201600091509150508060000160009054906101000a900473ffffffffffffffffffffffffffffffffffffffff16908060010160009054906101000a900473ffffffffffffffffffffffffffffffffffffffff16908060020180546103a690610bd0565b80601f01602080910402602001604051908101604052809291908181526020018280546103d290610bd0565b801561041f5780601f106103f45761010080835404028352916020019161041f565b820191906000526020600020905b81548152906001019060200180831161040257829003601f168201915b5050505050908060030154908060040154905085565b61044a346001546105d790919063ffffffff16565b600181905550565b60015481565b60006040518060a001604052808573ffffffffffffffffffffffffffffffffffffffff1681526020013373ffffffffffffffffffffffffffffffffffffffff1681526020018481526020018381526020014281525090506000808573ffffffffffffffffffffffffffffffffffffffff1673ffffffffffffffffffffffffffffffffffffffff16815260200190815260200160002081908060018154018082558091505060019003906000526020600020906005020160009091909190915060008201518160000160006101000a81548173ffffffffffffffffffffffffffffffffffffffff021916908373ffffffffffffffffffffffffffffffffffffffff16021790555060208201518160010160006101000a81548173ffffffffffffffffffffffffffffffffffffffff021916908373ffffffffffffffffffffffffffffffffffffffff16021790555060408201518160020190816105ba9190610dad565b506060820151816003015560808201518160040155505050505050565b60008082846105e69190610eae565b9050838110156105f9576105f8610ee2565b5b8091505092915050565b6000604051905090565b600080fd5b600080fd5b600073ffffffffffffffffffffffffffffffffffffffff82169050919050565b600061064282610617565b9050919050565b61065281610637565b811461065d57600080fd5b50565b60008135905061066f81610649565b92915050565b60006020828403121561068b5761068a61060d565b5b600061069984828501610660565b91505092915050565b600081519050919050565b600082825260208201905092915050565b6000819050602082019050919050565b6106d781610637565b82525050565b600081519050919050565b600082825260208201905092915050565b60005b838110156107175780820151818401526020810190506106fc565b60008484015250505050565b6000601f19601f8301169050919050565b600061073f826106dd565b61074981856106e8565b93506107598185602086016106f9565b61076281610723565b840191505092915050565b6000819050919050565b6107808161076d565b82525050565b600060a08301600083015161079e60008601826106ce565b5060208301516107b160208601826106ce565b50604083015184820360408601526107c98282610734565b91505060608301516107de6060860182610777565b5060808301516107f16080860182610777565b508091505092915050565b60006108088383610786565b905092915050565b6000602082019050919050565b6000610828826106a2565b61083281856106ad565b935083602082028501610844856106be565b8060005b85811015610880578484038952815161086185826107fc565b945061086c83610810565b925060208a01995050600181019050610848565b50829750879550505050505092915050565b600060208201905081810360008301526108ac818461081d565b905092915050565b6108bd8161076d565b81146108c857600080fd5b50565b6000813590506108da816108b4565b92915050565b600080604083850312156108f7576108f661060d565b5b600061090585828601610660565b9250506020610916858286016108cb565b9150509250929050565b61092981610637565b82525050565b600082825260208201905092915050565b600061094b826106dd565b610955818561092f565b93506109658185602086016106f9565b61096e81610723565b840191505092915050565b6109828161076d565b82525050565b600060a08201905061099d6000830188610920565b6109aa6020830187610920565b81810360408301526109bc8186610940565b90506109cb6060830185610979565b6109d86080830184610979565b9695505050505050565b60006020820190506109f76000830184610979565b92915050565b600080fd5b600080fd5b7f4e487b7100000000000000000000000000000000000000000000000000000000600052604160045260246000fd5b610a3f82610723565b810181811067ffffffffffffffff82111715610a5e57610a5d610a07565b5b80604052505050565b6000610a71610603565b9050610a7d8282610a36565b919050565b600067ffffffffffffffff821115610a9d57610a9c610a07565b5b610aa682610723565b9050602081019050919050565b82818337600083830152505050565b6000610ad5610ad084610a82565b610a67565b905082815260208101848484011115610af157610af0610a02565b5b610afc848285610ab3565b509392505050565b600082601f830112610b1957610b186109fd565b5b8135610b29848260208601610ac2565b91505092915050565b600080600060608486031215610b4b57610b4a61060d565b5b6000610b5986828701610660565b935050602084013567ffffffffffffffff811115610b7a57610b79610612565b5b610b8686828701610b04565b9250506040610b97868287016108cb565b9150509250925092565b7f4e487b7100000000000000000000000000000000000000000000000000000000600052602260045260246000fd5b60006002820490506001821680610be857607f821691505b602082108103610bfb57610bfa610ba1565b5b50919050565b60008190508160005260206000209050919050565b60006020601f8301049050919050565b600082821b905092915050565b600060088302610c637fffffffffffffffffffffffffffffffffffffffffffffffffffffffffffffffff82610c26565b610c6d8683610c26565b95508019841693508086168417925050509392505050565b6000819050919050565b6000610caa610ca5610ca08461076d565b610c85565b61076d565b9050919050565b6000819050919050565b610cc483610c8f565b610cd8610cd082610cb1565b848454610c33565b825550505050565b600090565b610ced610ce0565b610cf8818484610cbb565b505050565b5b81811015610d1c57610d11600082610ce5565b600181019050610cfe565b5050565b601f821115610d6157610d3281610c01565b610d3b84610c16565b81016020851015610d4a578190505b610d5e610d5685610c16565b830182610cfd565b50505b505050565b600082821c905092915050565b6000610d8460001984600802610d66565b1980831691505092915050565b6000610d9d8383610d73565b9150826002028217905092915050565b610db6826106dd565b67ffffffffffffffff811115610dcf57610dce610a07565b5b610dd98254610bd0565b610de4828285610d20565b600060209050601f831160018114610e175760008415610e05578287015190505b610e0f8582610d91565b865550610e77565b601f198416610e2586610c01565b60005b82811015610e4d57848901518255600182019150602085019450602081019050610e28565b86831015610e6a5784890151610e66601f891682610d73565b8355505b6001600288020188555050505b505050505050565b7f4e487b7100000000000000000000000000000000000000000000000000000000600052601160045260246000fd5b6000610eb98261076d565b9150610ec48361076d565b9250828201905080821115610edc57610edb610e7f565b5b92915050565b7f4e487b7100000000000000000000000000000000000000000000000000000000600052600160045260246000fdfea2646970667358221220f4e4bde43fe1e60e238a88a57f22285a2e946b9016a4345f24fd7893c9ef921264736f6c63430008130033",
  "immutableReferences": {},
  "source": "// SPDX-License-Identifier: MIT\r\npragma solidity ^0.8.19;\r\n\r\nimport './SafeMath.sol';\r\n\r\ncontract Reviews {\r\n\r\n    using SafeMath for uint;\r\n\r\n    // Struct to represent the Review details\r\n    struct ReviewDetails {\r\n        address account;\r\n        address reviewer;\r\n        string review;\r\n        uint rating; // out of ten\r\n        uint requestedDate;\r\n    }\r\n\r\n    // Mapping to store reviews by account address\r\n    mapping(address => ReviewDetails[]) public reviews;\r\n\r\n    // Variable to store the available balance in the contract\r\n    uint public availableBalance;\r\n\r\n    // Function to add funds to the contract\r\n    function addFunds() public payable {\r\n        availableBalance = availableBalance.add(msg.value);\r\n    }\r\n\r\n    // Function to add a review\r\n    function addReview(address account, string memory str, uint rating) public {\r\n        // Create a new review\r\n        ReviewDetails memory newReview = ReviewDetails({\r\n            account: account,\r\n            reviewer: msg.sender,\r\n            review: str,\r\n            rating: rating,\r\n            requestedDate: block.timestamp\r\n        });\r\n        // Add the review to the array of reviews for the specified account\r\n        reviews[account].push(newReview);\r\n    }\r\n\r\n    // Function to get all reviews for a specific account\r\n    function getReviews(address account) external view returns (ReviewDetails[] memory) {\r\n        return reviews[account];\r\n    }\r\n}\r\n",
  "sourcePath": "C:\\Users\\usman\\OneDrive\\Documents\\FYO\\TranspaRent FYP2\\TranspaRent_v2\\TranspaRent_v2\\Blockchain\\contracts\\Reviews.sol",
  "compiler": {
    "name": "solc",
    "version": "0.8.19+commit.7dd6d404.Emscripten.clang"
  },
  "schemaVersion": "3.4.16",
  "updatedAt": "2024-03-29T02:47:44.553Z",
  "networkType": "ethereum",
  "devdoc": {
    "kind": "dev",
    "methods": {},
    "version": 1
  },
  "userdoc": {
    "kind": "user",
    "methods": {},
    "version": 1
  }
}