{
  "contractName": "Reviews",
  "abi": [
    {
      "inputs": [],
      "name": "availableBalance",
      "outputs": [
        {
          "internalType": "uint256",
          "name": "",
          "type": "uint256"
        }
      ],
      "stateMutability": "view",
      "type": "function",
      "constant": true
    },
    {
      "inputs": [
        {
          "internalType": "address",
          "name": "",
          "type": "address"
        },
        {
          "internalType": "uint256",
          "name": "",
          "type": "uint256"
        }
      ],
      "name": "reviews",
      "outputs": [
        {
          "internalType": "address",
          "name": "account",
          "type": "address"
        },
        {
          "internalType": "address",
          "name": "reviewer",
          "type": "address"
        },
        {
          "internalType": "string",
          "name": "review",
          "type": "string"
        },
        {
          "internalType": "uint256",
          "name": "rating",
          "type": "uint256"
        },
        {
          "internalType": "uint256",
          "name": "requestedDate",
          "type": "uint256"
        }
      ],
      "stateMutability": "view",
      "type": "function",
      "constant": true
    },
    {
      "inputs": [],
      "name": "addFunds",
      "outputs": [],
      "stateMutability": "payable",
      "type": "function",
      "payable": true
    },
    {
      "inputs": [
        {
          "internalType": "address",
          "name": "account",
          "type": "address"
        },
        {
          "internalType": "string",
          "name": "str",
          "type": "string"
        },
        {
          "internalType": "uint256",
          "name": "rating",
          "type": "uint256"
        }
      ],
      "name": "addReview",
      "outputs": [],
      "stateMutability": "nonpayable",
      "type": "function"
    },
    {
      "inputs": [
        {
          "internalType": "address",
          "name": "account",
          "type": "address"
        }
      ],
      "name": "getReviews",
      "outputs": [
        {
          "components": [
            {
              "internalType": "address",
              "name": "account",
              "type": "address"
            },
            {
              "internalType": "address",
              "name": "reviewer",
              "type": "address"
            },
            {
              "internalType": "string",
              "name": "review",
              "type": "string"
            },
            {
              "internalType": "uint256",
              "name": "rating",
              "type": "uint256"
            },
            {
              "internalType": "uint256",
              "name": "requestedDate",
              "type": "uint256"
            }
          ],
          "internalType": "struct Reviews.ReviewDetails[]",
          "name": "",
          "type": "tuple[]"
        }
      ],
      "stateMutability": "view",
      "type": "function",
      "constant": true
    }
  ],
  "bytecode": "0x608080604052346100165761074d908161001c8239f35b600080fdfe6080604081815260048036101561001557600080fd5b600092833560e01c9081634ef5a017146103dc575080636db3328f1461033e578063a26759cb146102ef578063ab2f0e51146102cc5763ba92fb9d1461005a57600080fd5b346102b25760603660031901126102b257610073610556565b9160249081359367ffffffffffffffff8086116102c857366023870112156102c85785850135908082116102b65783519288602098601f19946100bd8b87601f840116018861064f565b808752368982840101116102b25780898c930183890137860101528451976100e48961061d565b60018060a01b0380921696878a52818a01338152878b0196875260608b0197604435895260808c0199428b528d528c84528c20938454680100000000000000008110156102a05761013c9060019687820181556105b1565b9c909c61028f5790808d9251166bffffffffffffffffffffffff60a01b80935416178d55858d019251169082541617905560028a01955190815194851161027e575061018886546105e3565b601f8111610238575b5081601f85116001146101d75750839450908392918b946101cc575b50501b916000199060031b1c19161790555b5160038401555191015580f35b0151925038806101ad565b929484908116878d52848d20948d905b8883831061021e5750505010610205575b505050811b0190556101bf565b015160001960f88460031b161c191690553880806101f8565b8587015188559096019594850194879350908101906101e7565b868c52828c20601f860160051c810191848710610274575b601f0160051c019084905b828110610269575050610191565b8d815501849061025b565b9091508190610250565b634e487b7160e01b8c5260418a528bfd5b634e487b7160e01b8e528d8c52838efd5b634e487b7160e01b8e5260418c52838efd5b8280fd5b634e487b7160e01b8852604186528488fd5b8680fd5b5050346102eb57816003193601126102eb576020906001549051908152f35b5080fd5b8382816003193601126102eb57600154903482019182811161032b578210610318575060015580f35b634e487b7160e01b835260019052602482fd5b634e487b7160e01b845260118252602484fd5b509190346102eb57806003193601126102eb57610359610556565b6001600160a01b039081168352602083905281832080549193602435928310156103d9575090610388916105b1565b50906103ca83835416936001840154169460a06103a760028601610671565b9160038601549501549380519788978852602088015286015260a0850190610571565b91606084015260808301520390f35b80fd5b83858492346102eb576020806003193601126102b2576001600160a01b039283610404610556565b16815280825284812093845467ffffffffffffffff811161054357869285858a89946005916104378483851b018661064f565b81855283850190819787528487209087925b8484106104e157505050505086519582870193838852518094528784818901931b8801019594975b84891061047e5787870388f35b9091929394958480600192603f198b8203018752895190868251168152868383015116838201526104bb8683015160a08089850152830190610571565b916060808201519083015260808091015191015298019401980197919094939294610471565b85876001928e809e999f9c9a9b9c51906104fa8261061d565b8a88541682528a86890154168483015261051660028901610671565b90820152600387015460608201528587015460808201528152019301930192919a94999a97969597610449565b634e487b7160e01b835260418852602483fd5b600435906001600160a01b038216820361056c57565b600080fd5b919082519283825260005b84811061059d575050826000602080949584010152601f8019910116010190565b60208183018101518483018201520161057c565b80548210156105cd576000526005602060002091020190600090565b634e487b7160e01b600052603260045260246000fd5b90600182811c92168015610613575b60208310146105fd57565b634e487b7160e01b600052602260045260246000fd5b91607f16916105f2565b60a0810190811067ffffffffffffffff82111761063957604052565b634e487b7160e01b600052604160045260246000fd5b90601f8019910116810190811067ffffffffffffffff82111761063957604052565b9060405191826000825492610685846105e3565b9081845260019485811690816000146106f457506001146106b1575b50506106af9250038361064f565b565b9093915060005260209081600020936000915b8183106106dc5750506106af935082010138806106a1565b855488840185015294850194879450918301916106c4565b9150506106af94506020925060ff191682840152151560051b82010138806106a156fea26469706673582212204537e66d938441ee8c1e2a527e1ac519ba4d086df5d160954fa7629b8e4767a364736f6c63430008130033",
  "immutableReferences": {},
  "source": "// SPDX-License-Identifier: MIT\r\npragma solidity ^0.8.19;\r\n\r\nimport './SafeMath.sol';\r\n\r\ncontract Reviews {\r\n\r\n    using SafeMath for uint;\r\n\r\n    // Struct to represent the Review details\r\n    struct ReviewDetails {\r\n        address account;\r\n        address reviewer;\r\n        string review;\r\n        uint rating; // out of ten\r\n        uint requestedDate;\r\n    }\r\n\r\n    // Mapping to store reviews by account address\r\n    mapping(address => ReviewDetails[]) public reviews;\r\n\r\n    // Variable to store the available balance in the contract\r\n    uint public availableBalance;\r\n\r\n    // Function to add funds to the contract\r\n    function addFunds() public payable {\r\n        availableBalance = availableBalance.add(msg.value);\r\n    }\r\n\r\n    // Function to add a review\r\n    function addReview(address account, string memory str, uint rating) public {\r\n        // Create a new review\r\n        ReviewDetails memory newReview = ReviewDetails({\r\n            account: account,\r\n            reviewer: msg.sender,\r\n            review: str,\r\n            rating: rating,\r\n            requestedDate: block.timestamp\r\n        });\r\n        // Add the review to the array of reviews for the specified account\r\n        reviews[account].push(newReview);\r\n    }\r\n\r\n    // Function to get all reviews for a specific account\r\n    function getReviews(address account) external view returns (ReviewDetails[] memory) {\r\n        return reviews[account];\r\n    }\r\n}\r\n",
  "sourcePath": "C:\\Users\\usman\\OneDrive\\Documents\\FYO\\TranspaRent FYP2\\TranspaRent_v2\\TranspaRent_v2\\Blockchain\\contracts\\Reviews.sol",
  "compiler": {
    "name": "solc",
    "version": "0.8.19+commit.7dd6d404.Emscripten.clang"
  },
  "schemaVersion": "3.4.16",
  "updatedAt": "2024-04-23T14:30:13.128Z",
  "networkType": "ethereum",
  "devdoc": {
    "kind": "dev",
    "methods": {},
    "version": 1
  },
  "userdoc": {
    "kind": "user",
    "methods": {},
    "version": 1
  }
}